{"contracts/TradeBot.sol":{"SingleSwap":{"abi":[{"inputs":[],"stateMutability":"nonpayable","type":"constructor"},{"anonymous":false,"inputs":[{"indexed":false,"internalType":"bytes","name":"bytesFailure","type":"bytes"}],"name":"BytesFailure","type":"event"},{"anonymous":false,"inputs":[{"indexed":false,"internalType":"uint256","name":"gridIndex","type":"uint256"},{"indexed":false,"internalType":"bool","name":"isFirstBreach","type":"bool"},{"indexed":false,"internalType":"uint256","name":"qty","type":"uint256"},{"indexed":false,"internalType":"uint256","name":"price","type":"uint256"}],"name":"GridBreached","type":"event"},{"anonymous":false,"inputs":[{"indexed":false,"internalType":"string","name":"stringFailure","type":"string"}],"name":"StringFailure","type":"event"},{"inputs":[{"internalType":"uint256","name":"_upper_range","type":"uint256"},{"internalType":"uint256","name":"_lower_range","type":"uint256"},{"internalType":"uint256","name":"_no_of_grids","type":"uint256"},{"internalType":"uint256","name":"_amount","type":"uint256"}],"name":"CreateBot","outputs":[],"stateMutability":"payable","type":"function"},{"inputs":[],"name":"WETH","outputs":[{"internalType":"address","name":"","type":"address"}],"stateMutability":"view","type":"function"},{"inputs":[],"name":"WMATIC","outputs":[{"internalType":"address","name":"","type":"address"}],"stateMutability":"view","type":"function"},{"inputs":[],"name":"amount","outputs":[{"internalType":"uint256","name":"","type":"uint256"}],"stateMutability":"view","type":"function"},{"inputs":[],"name":"breachCounter","outputs":[{"internalType":"uint256","name":"","type":"uint256"}],"stateMutability":"view","type":"function"},{"inputs":[],"name":"buyCounter","outputs":[{"internalType":"uint256","name":"","type":"uint256"}],"stateMutability":"view","type":"function"},{"inputs":[{"internalType":"bytes","name":"","type":"bytes"}],"name":"checkUpkeep","outputs":[{"internalType":"bool","name":"upkeepNeeded","type":"bool"},{"internalType":"bytes","name":"performData","type":"bytes"}],"stateMutability":"view","type":"function"},{"inputs":[{"internalType":"uint256","name":"amount","type":"uint256"}],"name":"depositWmatic","outputs":[],"stateMutability":"payable","type":"function"},{"inputs":[],"name":"getAllowance","outputs":[{"internalType":"uint256","name":"","type":"uint256"}],"stateMutability":"view","type":"function"},{"inputs":[],"name":"getBalance","outputs":[{"internalType":"uint256","name":"","type":"uint256"}],"stateMutability":"view","type":"function"},{"inputs":[],"name":"getBotsDetails","outputs":[{"internalType":"uint256","name":"_upper_range","type":"uint256"},{"internalType":"uint256","name":"_lower_range","type":"uint256"},{"internalType":"uint256","name":"_no_of_grids","type":"uint256"},{"internalType":"uint256","name":"_amount","type":"uint256"},{"internalType":"address","name":"tokeIn","type":"address"},{"internalType":"address","name":"tokenOut","type":"address"}],"stateMutability":"view","type":"function"},{"inputs":[],"name":"getDecimals","outputs":[{"internalType":"uint8","name":"","type":"uint8"}],"stateMutability":"view","type":"function"},{"inputs":[],"name":"getGrids","outputs":[{"internalType":"uint256[]","name":"_grids","type":"uint256[]"}],"stateMutability":"view","type":"function"},{"inputs":[],"name":"getOraclePrice","outputs":[{"internalType":"int256","name":"","type":"int256"}],"stateMutability":"view","type":"function"},{"inputs":[],"name":"getScaledPrice","outputs":[{"internalType":"uint256","name":"","type":"uint256"}],"stateMutability":"view","type":"function"},{"inputs":[{"internalType":"uint256","name":"","type":"uint256"}],"name":"grids","outputs":[{"internalType":"uint256","name":"","type":"uint256"}],"stateMutability":"view","type":"function"},{"inputs":[],"name":"linkToken","outputs":[{"internalType":"contract IERC20","name":"","type":"address"}],"stateMutability":"view","type":"function"},{"inputs":[],"name":"lower_range","outputs":[{"internalType":"uint256","name":"","type":"uint256"}],"stateMutability":"view","type":"function"},{"inputs":[],"name":"no_of_grids","outputs":[{"internalType":"uint256","name":"","type":"uint256"}],"stateMutability":"view","type":"function"},{"inputs":[],"name":"payContract","outputs":[],"stateMutability":"payable","type":"function"},{"inputs":[{"internalType":"bytes","name":"performData","type":"bytes"}],"name":"performUpkeep","outputs":[],"stateMutability":"nonpayable","type":"function"},{"inputs":[],"name":"poolFee","outputs":[{"internalType":"uint24","name":"","type":"uint24"}],"stateMutability":"view","type":"function"},{"inputs":[],"name":"routerAddress","outputs":[{"internalType":"address","name":"","type":"address"}],"stateMutability":"view","type":"function"},{"inputs":[],"name":"sellCounter","outputs":[{"internalType":"uint256","name":"","type":"uint256"}],"stateMutability":"view","type":"function"},{"inputs":[],"name":"setAllowance","outputs":[],"stateMutability":"nonpayable","type":"function"},{"inputs":[{"internalType":"uint256","name":"amountIn","type":"uint256"},{"internalType":"address","name":"tin","type":"address"},{"internalType":"address","name":"tout","type":"address"}],"name":"swapExactInputSingle","outputs":[{"internalType":"uint256","name":"amountOut","type":"uint256"}],"stateMutability":"payable","type":"function"},{"inputs":[],"name":"swapRouter","outputs":[{"internalType":"contract ISwapRouter","name":"","type":"address"}],"stateMutability":"view","type":"function"},{"inputs":[],"name":"upper_range","outputs":[{"internalType":"uint256","name":"","type":"uint256"}],"stateMutability":"view","type":"function"},{"inputs":[],"name":"withdraw","outputs":[],"stateMutability":"nonpayable","type":"function"},{"inputs":[{"internalType":"uint256","name":"amount","type":"uint256"}],"name":"withdrawWmatic","outputs":[],"stateMutability":"nonpayable","type":"function"},{"stateMutability":"payable","type":"receive"}],"evm":{"bytecode":{"linkReferences":{},"object":"60a060405273e592427a0aece92de3edee1f18e0157c0586156473ffffffffffffffffffffffffffffffffffffffff1660809073ffffffffffffffffffffffffffffffffffffffff1660601b815250603c600855739c3c9283d3e44854697cd22d3faa240cfb032889600d60006101000a81548173ffffffffffffffffffffffffffffffffffffffff021916908373ffffffffffffffffffffffffffffffffffffffff1602179055503480156100b457600080fd5b50730715a7794a1dc8e42615f059dd6e406a6594651a6000806101000a81548173ffffffffffffffffffffffffffffffffffffffff021916908373ffffffffffffffffffffffffffffffffffffffff160217905550600060038190555060805160601c61284a61014b60003960008181610d5601528181610e8701528181611364015281816114350152611519015261284a6000f3fe6080604052600436106101cf5760003560e01c80636e04ff0d116100f7578063aa8c217c11610095578063ecb0b86211610064578063ecb0b8621461063c578063f0141d8414610646578063f34ca3ee14610671578063f77ab1e01461068d576101d6565b8063aa8c217c1461057e578063ad5c4648146105a9578063af3b9678146105d4578063c31c9c0714610611576101d6565b806391ceedbf116100d157806391ceedbf146104e6578063973e9b8b146105115780639c315aa81461053c578063a4d0047d14610553576101d6565b80636e04ff0d1461045257806378126dfa14610490578063796da7af146104bb576101d6565b80633268cc561161016f5780634585e33b1161013e5780634585e33b146103a35780634ce4dca5146103cc5780634d95cad9146103fc57806357970e9314610427576101d6565b80633268cc561461030d5780633a86b66a146103385780633ccfd60b146103615780633e70c93d14610378576101d6565b8063089fe6aa116101ab578063089fe6aa1461026157806312065fe01461028c57806317b37bd9146102b7578063182305b1146102e2576101d6565b806256cf2f146101db578062c993dd1461020657806305bce22614610236576101d6565b366101d657005b600080fd5b3480156101e757600080fd5b506101f06106a9565b6040516101fd9190612049565b60405180910390f35b34801561021257600080fd5b5061021b6106af565b60405161022d969594939291906120d2565b60405180910390f35b34801561024257600080fd5b5061024b610702565b6040516102589190612049565b60405180910390f35b34801561026d57600080fd5b50610276610708565b604051610283919061202e565b60405180910390f35b34801561029857600080fd5b506102a161070e565b6040516102ae9190612049565b60405180910390f35b3480156102c357600080fd5b506102cc610716565b6040516102d99190612049565b60405180910390f35b3480156102ee57600080fd5b506102f7610757565b6040516103049190612049565b60405180910390f35b34801561031957600080fd5b5061032261075d565b60405161032f9190611e1e565b60405180910390f35b34801561034457600080fd5b5061035f600480360381019061035a919061198f565b610775565b005b34801561036d57600080fd5b506103766108f9565b005b34801561038457600080fd5b5061038d61094e565b60405161039a9190612049565b60405180910390f35b3480156103af57600080fd5b506103ca60048036038101906103c59190611942565b610954565b005b6103e660048036038101906103e191906119e9565b610d14565b6040516103f39190612049565b60405180910390f35b34801561040857600080fd5b50610411611017565b60405161041e9190611e1e565b60405180910390f35b34801561043357600080fd5b5061043c61102f565b6040516104499190611f5f565b60405180910390f35b34801561045e57600080fd5b5061047960048036038101906104749190611942565b611055565b604051610487929190611f0d565b60405180910390f35b34801561049c57600080fd5b506104a5611215565b6040516104b29190611eeb565b60405180910390f35b3480156104c757600080fd5b506104d061126d565b6040516104dd9190611f95565b60405180910390f35b3480156104f257600080fd5b506104fb61131b565b6040516105089190612049565b60405180910390f35b34801561051d57600080fd5b50610526611321565b6040516105339190612049565b60405180910390f35b34801561054857600080fd5b506105516113f5565b005b34801561055f57600080fd5b506105686114cf565b6040516105759190612049565b60405180910390f35b34801561058a57600080fd5b506105936114d5565b6040516105a09190612049565b60405180910390f35b3480156105b557600080fd5b506105be6114db565b6040516105cb9190611e1e565b60405180910390f35b3480156105e057600080fd5b506105fb60048036038101906105f6919061198f565b6114f3565b6040516106089190612049565b60405180910390f35b34801561061d57600080fd5b50610626611517565b6040516106339190611f7a565b60405180910390f35b61064461153b565b005b34801561065257600080fd5b5061065b61153d565b6040516106689190612133565b60405180910390f35b61068b60048036038101906106869190611a7c565b6115e3565b005b6106a760048036038101906106a2919061198f565b61172d565b005b60095481565b600080600080600080600954600a54600b54600c54739c3c9283d3e44854697cd22d3faa240cfb03288973a6fa4fb5f76172d178d61b04b0ecd319c5d1c0aa955095509550955095509550909192939495565b60035481565b610bb881565b600047905090565b60008061072161126d565b9050600061072d61153d565b905060008160ff16600a61074191906122a3565b8361074c919061221f565b905080935050505090565b600a5481565b73e592427a0aece92de3edee1f18e0157c0586156481565b80739c3c9283d3e44854697cd22d3faa240cfb03288973ffffffffffffffffffffffffffffffffffffffff166370a08231306040518263ffffffff1660e01b81526004016107c39190611e1e565b60206040518083038186803b1580156107db57600080fd5b505afa1580156107ef573d6000803e3d6000fd5b505050506040513d601f19601f8201168201806040525081019061081391906119bc565b1015610854576040517f08c379a000000000000000000000000000000000000000000000000000000000815260040161084b90611fd2565b60405180910390fd5b739c3c9283d3e44854697cd22d3faa240cfb03288973ffffffffffffffffffffffffffffffffffffffff1663a9059cbb33836040518363ffffffff1660e01b81526004016108a3929190611ec2565b602060405180830381600087803b1580156108bd57600080fd5b505af11580156108d1573d6000803e3d6000fd5b505050506040513d601f19601f820116820180604052508101906108f59190611915565b5050565b600033905060004790508173ffffffffffffffffffffffffffffffffffffffff166108fc829081150290604051600060405180830381858888f19350505050158015610949573d6000803e3d6000fd5b505050565b600b5481565b6000808084848101906109679190611a3c565b915091508015610bc35760016002600084815260200190815260200160002060006101000a81548160ff021916908315150217905550600360008154809291906109b090612537565b91905055506000821180156109ef5750600260006001846109d191906123c1565b815260200190815260200160002060009054906101000a900460ff16155b15610aae5760046000815480929190610a0790612537565b91905055506000610a49670214e8348c4f0000739c3c9283d3e44854697cd22d3faa240cfb03288973a6fa4fb5f76172d178d61b04b0ecd319c5d1c0aa610d14565b90508060066000858152602001908152602001600020819055507f4dd189d126bc54edefed41708fddf7028d7043657c8888914503a07df469e82c83600183610a90610716565b604051610aa0949392919061208d565b60405180910390a150610bbe565b60066000600184610abf91906123c1565b81526020019081526020016000205492506000831115610bbd5760066000600184610aea91906123c1565b81526020019081526020016000206000905560026000600184610b0d91906123c1565b815260200190815260200160002060006101000a81549060ff021916905560056000815480929190610b3e90612537565b9190505550610b768373a6fa4fb5f76172d178d61b04b0ecd319c5d1c0aa739c3c9283d3e44854697cd22d3faa240cfb032889610d14565b507f4dd189d126bc54edefed41708fddf7028d7043657c8888914503a07df469e82c82600085610ba4610716565b604051610bb4949392919061208d565b60405180910390a15b5b610d06565b60026000600184610bd491906123c1565b815260200190815260200160002060009054906101000a900460ff1615610d055760066000600184610c0691906123c1565b81526020019081526020016000205492506000831115610d045760066000600184610c3191906123c1565b81526020019081526020016000206000905560026000600184610c5491906123c1565b815260200190815260200160002060006101000a81549060ff021916905560056000815480929190610c8590612537565b9190505550610cbd8373a6fa4fb5f76172d178d61b04b0ecd319c5d1c0aa739c3c9283d3e44854697cd22d3faa240cfb032889610d14565b507f4dd189d126bc54edefed41708fddf7028d7043657c8888914503a07df469e82c82600085610ceb610716565b604051610cfb949392919061208d565b60405180910390a15b5b5b426007819055505050505050565b6000600d60009054906101000a900473ffffffffffffffffffffffffffffffffffffffff1673ffffffffffffffffffffffffffffffffffffffff1663095ea7b37f0000000000000000000000000000000000000000000000000000000000000000866040518363ffffffff1660e01b8152600401610d93929190611ec2565b602060405180830381600087803b158015610dad57600080fd5b505af1158015610dc1573d6000803e3d6000fd5b505050506040513d601f19601f82011682018060405250810190610de59190611915565b5060006040518061010001604052808573ffffffffffffffffffffffffffffffffffffffff1681526020018473ffffffffffffffffffffffffffffffffffffffff168152602001610bb862ffffff1681526020013073ffffffffffffffffffffffffffffffffffffffff16815260200142815260200186815260200160008152602001600073ffffffffffffffffffffffffffffffffffffffff1681525090507f000000000000000000000000000000000000000000000000000000000000000073ffffffffffffffffffffffffffffffffffffffff1663414bf389826040518263ffffffff1660e01b8152600401610ede9190612012565b602060405180830381600087803b158015610ef857600080fd5b505af1925050508015610f2957506040513d601f19601f82011682018060405250810190610f2691906119bc565b60015b61100457610f3561263c565b806308c379a01415610f925750610f4a6126f4565b80610f555750610f94565b7f81d03b083a6c8b385b5dd0a26081c4e095a4a552b17dc35036054153033ab0db81604051610f849190611fb0565b60405180910390a150610fff565b505b3d8060008114610fc0576040519150601f19603f3d011682016040523d82523d6000602084013e610fc5565b606091505b507f4b87bbd93ba65ede1e2efeca735d9f7a6720bf7d6db0a8355b17dba5b64e578381604051610ff59190611f3d565b60405180910390a1505b61100e565b8092505050611010565b505b9392505050565b739c3c9283d3e44854697cd22d3faa240cfb03288981565b600d60009054906101000a900473ffffffffffffffffffffffffffffffffffffffff1681565b6000606060006001805490501415611070576000915061120e565b600061107a610716565b905060007fffffffffffffffffffffffffffffffffffffffffffffffffffffffffffffffff90506000600180549050905060005b600180549050811015611161576000600182815481106110d1576110d06125de565b5b906000526020600020015485116111115784600183815481106110f7576110f66125de565b5b906000526020600020015461110c91906123c1565b61113c565b60018281548110611125576111246125de565b5b90600052602060002001548561113b91906123c1565b5b90508381101561114d578093508192505b50808061115990612537565b9150506110ae565b5060006008546007544261117591906123c1565b119050600283111580156111865750805b15611209576002600083815260200190815260200160002060009054906101000a900460ff166111de57600195508160016040516020016111c8929190612064565b6040516020818303038152906040529450611208565b600195508160006040516020016111f6929190612064565b60405160208183030381529060405294505b5b505050505b9250929050565b6060600180548060200260200160405190810160405280929190818152602001828054801561126357602002820191906000526020600020905b81548152602001906001019080831161124f575b5050505050905090565b60008060008054906101000a900473ffffffffffffffffffffffffffffffffffffffff1673ffffffffffffffffffffffffffffffffffffffff1663feaf968c6040518163ffffffff1660e01b815260040160a06040518083038186803b1580156112d657600080fd5b505afa1580156112ea573d6000803e3d6000fd5b505050506040513d601f19601f8201168201806040525081019061130e9190611ae3565b5050509150508091505090565b60045481565b6000600d60009054906101000a900473ffffffffffffffffffffffffffffffffffffffff1673ffffffffffffffffffffffffffffffffffffffff1663dd62ed3e307f00000000000000000000000000000000000000000000000000000000000000006040518363ffffffff1660e01b81526004016113a0929190611e39565b60206040518083038186803b1580156113b857600080fd5b505afa1580156113cc573d6000803e3d6000fd5b505050506040513d601f19601f820116820180604052508101906113f091906119bc565b905090565b600d60009054906101000a900473ffffffffffffffffffffffffffffffffffffffff1673ffffffffffffffffffffffffffffffffffffffff1663095ea7b37f0000000000000000000000000000000000000000000000000000000000000000674563918244f400006040518363ffffffff1660e01b815260040161147a929190611e99565b602060405180830381600087803b15801561149457600080fd5b505af11580156114a8573d6000803e3d6000fd5b505050506040513d601f19601f820116820180604052508101906114cc9190611915565b50565b60055481565b600c5481565b73a6fa4fb5f76172d178d61b04b0ecd319c5d1c0aa81565b6001818154811061150357600080fd5b906000526020600020016000915090505481565b7f000000000000000000000000000000000000000000000000000000000000000081565b565b60008060009054906101000a900473ffffffffffffffffffffffffffffffffffffffff1673ffffffffffffffffffffffffffffffffffffffff1663313ce5676040518163ffffffff1660e01b815260040160206040518083038186803b1580156115a657600080fd5b505afa1580156115ba573d6000803e3d6000fd5b505050506040513d601f19601f820116820180604052508101906115de9190611b5e565b905090565b8360098190555082600a8190555081600b8190555080600c81905550739c3c9283d3e44854697cd22d3faa240cfb03288973ffffffffffffffffffffffffffffffffffffffff166323b872dd3330600c546040518463ffffffff1660e01b815260040161165293929190611e62565b602060405180830381600087803b15801561166c57600080fd5b505af1158015611680573d6000803e3d6000fd5b505050506040513d601f19601f820116820180604052508101906116a49190611915565b506000600b54600a546009546116ba91906123c1565b6116c4919061221f565b90506000805b600b5481116117245781600a546116e191906121c9565b600182815481106116f5576116f46125de565b5b9060005260206000200181905550828261170f91906121c9565b9150808061171c90612537565b9150506116ca565b50505050505050565b60003414611770576040517f08c379a000000000000000000000000000000000000000000000000000000000815260040161176790611ff2565b60405180910390fd5b739c3c9283d3e44854697cd22d3faa240cfb03288973ffffffffffffffffffffffffffffffffffffffff166323b872dd3330846040518463ffffffff1660e01b81526004016117c193929190611e62565b602060405180830381600087803b1580156117db57600080fd5b505af11580156117ef573d6000803e3d6000fd5b505050506040513d601f19601f820116820180604052508101906118139190611915565b5050565b6000813590506118268161278a565b92915050565b60008135905061183b816127a1565b92915050565b600081519050611850816127a1565b92915050565b60008083601f84011261186c5761186b612663565b5b8235905067ffffffffffffffff8111156118895761188861265e565b5b6020830191508360018202830111156118a5576118a4612668565b5b9250929050565b6000815190506118bb816127b8565b92915050565b6000813590506118d0816127cf565b92915050565b6000815190506118e5816127cf565b92915050565b6000815190506118fa816127fd565b92915050565b60008151905061190f816127e6565b92915050565b60006020828403121561192b5761192a612672565b5b600061193984828501611841565b91505092915050565b6000806020838503121561195957611958612672565b5b600083013567ffffffffffffffff8111156119775761197661266d565b5b61198385828601611856565b92509250509250929050565b6000602082840312156119a5576119a4612672565b5b60006119b3848285016118c1565b91505092915050565b6000602082840312156119d2576119d1612672565b5b60006119e0848285016118d6565b91505092915050565b600080600060608486031215611a0257611a01612672565b5b6000611a10868287016118c1565b9350506020611a2186828701611817565b9250506040611a3286828701611817565b9150509250925092565b60008060408385031215611a5357611a52612672565b5b6000611a61858286016118c1565b9250506020611a728582860161182c565b9150509250929050565b60008060008060808587031215611a9657611a95612672565b5b6000611aa4878288016118c1565b9450506020611ab5878288016118c1565b9350506040611ac6878288016118c1565b9250506060611ad7878288016118c1565b91505092959194509250565b600080600080600060a08688031215611aff57611afe612672565b5b6000611b0d888289016118eb565b9550506020611b1e888289016118ac565b9450506040611b2f888289016118d6565b9350506060611b40888289016118d6565b9250506080611b51888289016118eb565b9150509295509295909350565b600060208284031215611b7457611b73612672565b5b6000611b8284828501611900565b91505092915050565b6000611b978383611df1565b60208301905092915050565b611bac816123f5565b82525050565b611bbb816123f5565b82525050565b6000611bcc82612168565b611bd68185612196565b9350611be183612158565b8060005b83811015611c12578151611bf98882611b8b565b9750611c0483612189565b925050600181019050611be5565b5085935050505092915050565b611c2881612407565b82525050565b6000611c3982612173565b611c4381856121a7565b9350611c538185602086016124d3565b611c5c81612677565b840191505092915050565b611c7081612479565b82525050565b611c7f8161248b565b82525050565b611c8e81612413565b82525050565b611c9d8161249d565b82525050565b6000611cae8261217e565b611cb881856121b8565b9350611cc88185602086016124d3565b611cd181612677565b840191505092915050565b6000611ce96014836121b8565b9150611cf4826126a2565b602082019050919050565b6000611d0c6010836121b8565b9150611d17826126cb565b602082019050919050565b61010082016000820151611d396000850182611ba3565b506020820151611d4c6020850182611ba3565b506040820151611d5f6040850182611dd3565b506060820151611d726060850182611ba3565b506080820151611d856080850182611df1565b5060a0820151611d9860a0850182611df1565b5060c0820151611dab60c0850182611df1565b5060e0820151611dbe60e0850182611dc4565b50505050565b611dcd8161241d565b82525050565b611ddc8161243d565b82525050565b611deb8161243d565b82525050565b611dfa8161244c565b82525050565b611e098161244c565b82525050565b611e1881612456565b82525050565b6000602082019050611e336000830184611bb2565b92915050565b6000604082019050611e4e6000830185611bb2565b611e5b6020830184611bb2565b9392505050565b6000606082019050611e776000830186611bb2565b611e846020830185611bb2565b611e916040830184611e00565b949350505050565b6000604082019050611eae6000830185611bb2565b611ebb6020830184611c94565b9392505050565b6000604082019050611ed76000830185611bb2565b611ee46020830184611e00565b9392505050565b60006020820190508181036000830152611f058184611bc1565b905092915050565b6000604082019050611f226000830185611c1f565b8181036020830152611f348184611c2e565b90509392505050565b60006020820190508181036000830152611f578184611c2e565b905092915050565b6000602082019050611f746000830184611c67565b92915050565b6000602082019050611f8f6000830184611c76565b92915050565b6000602082019050611faa6000830184611c85565b92915050565b60006020820190508181036000830152611fca8184611ca3565b905092915050565b60006020820190508181036000830152611feb81611cdc565b9050919050565b6000602082019050818103600083015261200b81611cff565b9050919050565b6000610100820190506120286000830184611d22565b92915050565b60006020820190506120436000830184611de2565b92915050565b600060208201905061205e6000830184611e00565b92915050565b60006040820190506120796000830185611e00565b6120866020830184611c1f565b9392505050565b60006080820190506120a26000830187611e00565b6120af6020830186611c1f565b6120bc6040830185611e00565b6120c96060830184611e00565b95945050505050565b600060c0820190506120e76000830189611e00565b6120f46020830188611e00565b6121016040830187611e00565b61210e6060830186611e00565b61211b6080830185611bb2565b61212860a0830184611bb2565b979650505050505050565b60006020820190506121486000830184611e0f565b92915050565b6000604051905090565b6000819050602082019050919050565b600081519050919050565b600081519050919050565b600081519050919050565b6000602082019050919050565b600082825260208201905092915050565b600082825260208201905092915050565b600082825260208201905092915050565b60006121d48261244c565b91506121df8361244c565b9250827fffffffffffffffffffffffffffffffffffffffffffffffffffffffffffffffff0382111561221457612213612580565b5b828201905092915050565b600061222a8261244c565b91506122358361244c565b925082612245576122446125af565b5b828204905092915050565b6000808291508390505b600185111561229a5780860481111561227657612275612580565b5b60018516156122855780820291505b808102905061229385612688565b945061225a565b94509492505050565b60006122ae8261244c565b91506122b98361244c565b92506122e67fffffffffffffffffffffffffffffffffffffffffffffffffffffffffffffffff84846122ee565b905092915050565b6000826122fe57600190506123ba565b8161230c57600090506123ba565b8160018114612322576002811461232c5761235b565b60019150506123ba565b60ff84111561233e5761233d612580565b5b8360020a91508482111561235557612354612580565b5b506123ba565b5060208310610133831016604e8410600b84101617156123905782820a90508381111561238b5761238a612580565b5b6123ba565b61239d8484846001612250565b925090508184048111156123b4576123b3612580565b5b81810290505b9392505050565b60006123cc8261244c565b91506123d78361244c565b9250828210156123ea576123e9612580565b5b828203905092915050565b60006124008261241d565b9050919050565b60008115159050919050565b6000819050919050565b600073ffffffffffffffffffffffffffffffffffffffff82169050919050565b600062ffffff82169050919050565b6000819050919050565b600060ff82169050919050565b600069ffffffffffffffffffff82169050919050565b6000612484826124af565b9050919050565b6000612496826124af565b9050919050565b60006124a88261244c565b9050919050565b60006124ba826124c1565b9050919050565b60006124cc8261241d565b9050919050565b60005b838110156124f15780820151818401526020810190506124d6565b83811115612500576000848401525b50505050565b61250f82612677565b810181811067ffffffffffffffff8211171561252e5761252d61260d565b5b80604052505050565b60006125428261244c565b91507fffffffffffffffffffffffffffffffffffffffffffffffffffffffffffffffff82141561257557612574612580565b5b600182019050919050565b7f4e487b7100000000000000000000000000000000000000000000000000000000600052601160045260246000fd5b7f4e487b7100000000000000000000000000000000000000000000000000000000600052601260045260246000fd5b7f4e487b7100000000000000000000000000000000000000000000000000000000600052603260045260246000fd5b7f4e487b7100000000000000000000000000000000000000000000000000000000600052604160045260246000fd5b600060033d111561265b5760046000803e612658600051612695565b90505b90565b600080fd5b600080fd5b600080fd5b600080fd5b600080fd5b6000601f19601f8301169050919050565b60008160011c9050919050565b60008160e01c9050919050565b7f496e73756666696369656e742062616c616e6365000000000000000000000000600082015250565b7f455448206e6f7420616363657074656400000000000000000000000000000000600082015250565b600060443d101561270457612787565b61270c61214e565b60043d036004823e80513d602482011167ffffffffffffffff82111715612734575050612787565b808201805167ffffffffffffffff8111156127525750505050612787565b80602083010160043d03850181111561276f575050505050612787565b61277e82602001850186612506565b82955050505050505b90565b612793816123f5565b811461279e57600080fd5b50565b6127aa81612407565b81146127b557600080fd5b50565b6127c181612413565b81146127cc57600080fd5b50565b6127d88161244c565b81146127e357600080fd5b50565b6127ef81612456565b81146127fa57600080fd5b50565b61280681612463565b811461281157600080fd5b5056fea2646970667358221220e858646768540af52f8852c0c84ff3389ba947a084dbb27668e139420c9342c864736f6c63430008070033","opcodes":"PUSH1 0xA0 PUSH1 0x40 MSTORE PUSH20 0xE592427A0AECE92DE3EDEE1F18E0157C05861564 PUSH20 0xFFFFFFFFFFFFFFFFFFFFFFFFFFFFFFFFFFFFFFFF AND PUSH1 0x80 SWAP1 PUSH20 0xFFFFFFFFFFFFFFFFFFFFFFFFFFFFFFFFFFFFFFFF AND PUSH1 0x60 SHL DUP2 MSTORE POP PUSH1 0x3C PUSH1 0x8 SSTORE PUSH20 0x9C3C9283D3E44854697CD22D3FAA240CFB032889 PUSH1 0xD PUSH1 0x0 PUSH2 0x100 EXP DUP2 SLOAD DUP2 PUSH20 0xFFFFFFFFFFFFFFFFFFFFFFFFFFFFFFFFFFFFFFFF MUL NOT AND SWAP1 DUP4 PUSH20 0xFFFFFFFFFFFFFFFFFFFFFFFFFFFFFFFFFFFFFFFF AND MUL OR SWAP1 SSTORE POP CALLVALUE DUP1 ISZERO PUSH2 0xB4 JUMPI PUSH1 0x0 DUP1 REVERT JUMPDEST POP PUSH20 0x715A7794A1DC8E42615F059DD6E406A6594651A PUSH1 0x0 DUP1 PUSH2 0x100 EXP DUP2 SLOAD DUP2 PUSH20 0xFFFFFFFFFFFFFFFFFFFFFFFFFFFFFFFFFFFFFFFF MUL NOT AND SWAP1 DUP4 PUSH20 0xFFFFFFFFFFFFFFFFFFFFFFFFFFFFFFFFFFFFFFFF AND MUL OR SWAP1 SSTORE POP PUSH1 0x0 PUSH1 0x3 DUP2 SWAP1 SSTORE POP PUSH1 0x80 MLOAD PUSH1 0x60 SHR PUSH2 0x284A PUSH2 0x14B PUSH1 0x0 CODECOPY PUSH1 0x0 DUP2 DUP2 PUSH2 0xD56 ADD MSTORE DUP2 DUP2 PUSH2 0xE87 ADD MSTORE DUP2 DUP2 PUSH2 0x1364 ADD MSTORE DUP2 DUP2 PUSH2 0x1435 ADD MSTORE PUSH2 0x1519 ADD MSTORE PUSH2 0x284A PUSH1 0x0 RETURN INVALID PUSH1 0x80 PUSH1 0x40 MSTORE PUSH1 0x4 CALLDATASIZE LT PUSH2 0x1CF JUMPI PUSH1 0x0 CALLDATALOAD PUSH1 0xE0 SHR DUP1 PUSH4 0x6E04FF0D GT PUSH2 0xF7 JUMPI DUP1 PUSH4 0xAA8C217C GT PUSH2 0x95 JUMPI DUP1 PUSH4 0xECB0B862 GT PUSH2 0x64 JUMPI DUP1 PUSH4 0xECB0B862 EQ PUSH2 0x63C JUMPI DUP1 PUSH4 0xF0141D84 EQ PUSH2 0x646 JUMPI DUP1 PUSH4 0xF34CA3EE EQ PUSH2 0x671 JUMPI DUP1 PUSH4 0xF77AB1E0 EQ PUSH2 0x68D JUMPI PUSH2 0x1D6 JUMP JUMPDEST DUP1 PUSH4 0xAA8C217C EQ PUSH2 0x57E JUMPI DUP1 PUSH4 0xAD5C4648 EQ PUSH2 0x5A9 JUMPI DUP1 PUSH4 0xAF3B9678 EQ PUSH2 0x5D4 JUMPI DUP1 PUSH4 0xC31C9C07 EQ PUSH2 0x611 JUMPI PUSH2 0x1D6 JUMP JUMPDEST DUP1 PUSH4 0x91CEEDBF GT PUSH2 0xD1 JUMPI DUP1 PUSH4 0x91CEEDBF EQ PUSH2 0x4E6 JUMPI DUP1 PUSH4 0x973E9B8B EQ PUSH2 0x511 JUMPI DUP1 PUSH4 0x9C315AA8 EQ PUSH2 0x53C JUMPI DUP1 PUSH4 0xA4D0047D EQ PUSH2 0x553 JUMPI PUSH2 0x1D6 JUMP JUMPDEST DUP1 PUSH4 0x6E04FF0D EQ PUSH2 0x452 JUMPI DUP1 PUSH4 0x78126DFA EQ PUSH2 0x490 JUMPI DUP1 PUSH4 0x796DA7AF EQ PUSH2 0x4BB JUMPI PUSH2 0x1D6 JUMP JUMPDEST DUP1 PUSH4 0x3268CC56 GT PUSH2 0x16F JUMPI DUP1 PUSH4 0x4585E33B GT PUSH2 0x13E JUMPI DUP1 PUSH4 0x4585E33B EQ PUSH2 0x3A3 JUMPI DUP1 PUSH4 0x4CE4DCA5 EQ PUSH2 0x3CC JUMPI DUP1 PUSH4 0x4D95CAD9 EQ PUSH2 0x3FC JUMPI DUP1 PUSH4 0x57970E93 EQ PUSH2 0x427 JUMPI PUSH2 0x1D6 JUMP JUMPDEST DUP1 PUSH4 0x3268CC56 EQ PUSH2 0x30D JUMPI DUP1 PUSH4 0x3A86B66A EQ PUSH2 0x338 JUMPI DUP1 PUSH4 0x3CCFD60B EQ PUSH2 0x361 JUMPI DUP1 PUSH4 0x3E70C93D EQ PUSH2 0x378 JUMPI PUSH2 0x1D6 JUMP JUMPDEST DUP1 PUSH4 0x89FE6AA GT PUSH2 0x1AB JUMPI DUP1 PUSH4 0x89FE6AA EQ PUSH2 0x261 JUMPI DUP1 PUSH4 0x12065FE0 EQ PUSH2 0x28C JUMPI DUP1 PUSH4 0x17B37BD9 EQ PUSH2 0x2B7 JUMPI DUP1 PUSH4 0x182305B1 EQ PUSH2 0x2E2 JUMPI PUSH2 0x1D6 JUMP JUMPDEST DUP1 PUSH3 0x56CF2F EQ PUSH2 0x1DB JUMPI DUP1 PUSH3 0xC993DD EQ PUSH2 0x206 JUMPI DUP1 PUSH4 0x5BCE226 EQ PUSH2 0x236 JUMPI PUSH2 0x1D6 JUMP JUMPDEST CALLDATASIZE PUSH2 0x1D6 JUMPI STOP JUMPDEST PUSH1 0x0 DUP1 REVERT JUMPDEST CALLVALUE DUP1 ISZERO PUSH2 0x1E7 JUMPI PUSH1 0x0 DUP1 REVERT JUMPDEST POP PUSH2 0x1F0 PUSH2 0x6A9 JUMP JUMPDEST PUSH1 0x40 MLOAD PUSH2 0x1FD SWAP2 SWAP1 PUSH2 0x2049 JUMP JUMPDEST PUSH1 0x40 MLOAD DUP1 SWAP2 SUB SWAP1 RETURN JUMPDEST CALLVALUE DUP1 ISZERO PUSH2 0x212 JUMPI PUSH1 0x0 DUP1 REVERT JUMPDEST POP PUSH2 0x21B PUSH2 0x6AF JUMP JUMPDEST PUSH1 0x40 MLOAD PUSH2 0x22D SWAP7 SWAP6 SWAP5 SWAP4 SWAP3 SWAP2 SWAP1 PUSH2 0x20D2 JUMP JUMPDEST PUSH1 0x40 MLOAD DUP1 SWAP2 SUB SWAP1 RETURN JUMPDEST CALLVALUE DUP1 ISZERO PUSH2 0x242 JUMPI PUSH1 0x0 DUP1 REVERT JUMPDEST POP PUSH2 0x24B PUSH2 0x702 JUMP JUMPDEST PUSH1 0x40 MLOAD PUSH2 0x258 SWAP2 SWAP1 PUSH2 0x2049 JUMP JUMPDEST PUSH1 0x40 MLOAD DUP1 SWAP2 SUB SWAP1 RETURN JUMPDEST CALLVALUE DUP1 ISZERO PUSH2 0x26D JUMPI PUSH1 0x0 DUP1 REVERT JUMPDEST POP PUSH2 0x276 PUSH2 0x708 JUMP JUMPDEST PUSH1 0x40 MLOAD PUSH2 0x283 SWAP2 SWAP1 PUSH2 0x202E JUMP JUMPDEST PUSH1 0x40 MLOAD DUP1 SWAP2 SUB SWAP1 RETURN JUMPDEST CALLVALUE DUP1 ISZERO PUSH2 0x298 JUMPI PUSH1 0x0 DUP1 REVERT JUMPDEST POP PUSH2 0x2A1 PUSH2 0x70E JUMP JUMPDEST PUSH1 0x40 MLOAD PUSH2 0x2AE SWAP2 SWAP1 PUSH2 0x2049 JUMP JUMPDEST PUSH1 0x40 MLOAD DUP1 SWAP2 SUB SWAP1 RETURN JUMPDEST CALLVALUE DUP1 ISZERO PUSH2 0x2C3 JUMPI PUSH1 0x0 DUP1 REVERT JUMPDEST POP PUSH2 0x2CC PUSH2 0x716 JUMP JUMPDEST PUSH1 0x40 MLOAD PUSH2 0x2D9 SWAP2 SWAP1 PUSH2 0x2049 JUMP JUMPDEST PUSH1 0x40 MLOAD DUP1 SWAP2 SUB SWAP1 RETURN JUMPDEST CALLVALUE DUP1 ISZERO PUSH2 0x2EE JUMPI PUSH1 0x0 DUP1 REVERT JUMPDEST POP PUSH2 0x2F7 PUSH2 0x757 JUMP JUMPDEST PUSH1 0x40 MLOAD PUSH2 0x304 SWAP2 SWAP1 PUSH2 0x2049 JUMP JUMPDEST PUSH1 0x40 MLOAD DUP1 SWAP2 SUB SWAP1 RETURN JUMPDEST CALLVALUE DUP1 ISZERO PUSH2 0x319 JUMPI PUSH1 0x0 DUP1 REVERT JUMPDEST POP PUSH2 0x322 PUSH2 0x75D JUMP JUMPDEST PUSH1 0x40 MLOAD PUSH2 0x32F SWAP2 SWAP1 PUSH2 0x1E1E JUMP JUMPDEST PUSH1 0x40 MLOAD DUP1 SWAP2 SUB SWAP1 RETURN JUMPDEST CALLVALUE DUP1 ISZERO PUSH2 0x344 JUMPI PUSH1 0x0 DUP1 REVERT JUMPDEST POP PUSH2 0x35F PUSH1 0x4 DUP1 CALLDATASIZE SUB DUP2 ADD SWAP1 PUSH2 0x35A SWAP2 SWAP1 PUSH2 0x198F JUMP JUMPDEST PUSH2 0x775 JUMP JUMPDEST STOP JUMPDEST CALLVALUE DUP1 ISZERO PUSH2 0x36D JUMPI PUSH1 0x0 DUP1 REVERT JUMPDEST POP PUSH2 0x376 PUSH2 0x8F9 JUMP JUMPDEST STOP JUMPDEST CALLVALUE DUP1 ISZERO PUSH2 0x384 JUMPI PUSH1 0x0 DUP1 REVERT JUMPDEST POP PUSH2 0x38D PUSH2 0x94E JUMP JUMPDEST PUSH1 0x40 MLOAD PUSH2 0x39A SWAP2 SWAP1 PUSH2 0x2049 JUMP JUMPDEST PUSH1 0x40 MLOAD DUP1 SWAP2 SUB SWAP1 RETURN JUMPDEST CALLVALUE DUP1 ISZERO PUSH2 0x3AF JUMPI PUSH1 0x0 DUP1 REVERT JUMPDEST POP PUSH2 0x3CA PUSH1 0x4 DUP1 CALLDATASIZE SUB DUP2 ADD SWAP1 PUSH2 0x3C5 SWAP2 SWAP1 PUSH2 0x1942 JUMP JUMPDEST PUSH2 0x954 JUMP JUMPDEST STOP JUMPDEST PUSH2 0x3E6 PUSH1 0x4 DUP1 CALLDATASIZE SUB DUP2 ADD SWAP1 PUSH2 0x3E1 SWAP2 SWAP1 PUSH2 0x19E9 JUMP JUMPDEST PUSH2 0xD14 JUMP JUMPDEST PUSH1 0x40 MLOAD PUSH2 0x3F3 SWAP2 SWAP1 PUSH2 0x2049 JUMP JUMPDEST PUSH1 0x40 MLOAD DUP1 SWAP2 SUB SWAP1 RETURN JUMPDEST CALLVALUE DUP1 ISZERO PUSH2 0x408 JUMPI PUSH1 0x0 DUP1 REVERT JUMPDEST POP PUSH2 0x411 PUSH2 0x1017 JUMP JUMPDEST PUSH1 0x40 MLOAD PUSH2 0x41E SWAP2 SWAP1 PUSH2 0x1E1E JUMP JUMPDEST PUSH1 0x40 MLOAD DUP1 SWAP2 SUB SWAP1 RETURN JUMPDEST CALLVALUE DUP1 ISZERO PUSH2 0x433 JUMPI PUSH1 0x0 DUP1 REVERT JUMPDEST POP PUSH2 0x43C PUSH2 0x102F JUMP JUMPDEST PUSH1 0x40 MLOAD PUSH2 0x449 SWAP2 SWAP1 PUSH2 0x1F5F JUMP JUMPDEST PUSH1 0x40 MLOAD DUP1 SWAP2 SUB SWAP1 RETURN JUMPDEST CALLVALUE DUP1 ISZERO PUSH2 0x45E JUMPI PUSH1 0x0 DUP1 REVERT JUMPDEST POP PUSH2 0x479 PUSH1 0x4 DUP1 CALLDATASIZE SUB DUP2 ADD SWAP1 PUSH2 0x474 SWAP2 SWAP1 PUSH2 0x1942 JUMP JUMPDEST PUSH2 0x1055 JUMP JUMPDEST PUSH1 0x40 MLOAD PUSH2 0x487 SWAP3 SWAP2 SWAP1 PUSH2 0x1F0D JUMP JUMPDEST PUSH1 0x40 MLOAD DUP1 SWAP2 SUB SWAP1 RETURN JUMPDEST CALLVALUE DUP1 ISZERO PUSH2 0x49C JUMPI PUSH1 0x0 DUP1 REVERT JUMPDEST POP PUSH2 0x4A5 PUSH2 0x1215 JUMP JUMPDEST PUSH1 0x40 MLOAD PUSH2 0x4B2 SWAP2 SWAP1 PUSH2 0x1EEB JUMP JUMPDEST PUSH1 0x40 MLOAD DUP1 SWAP2 SUB SWAP1 RETURN JUMPDEST CALLVALUE DUP1 ISZERO PUSH2 0x4C7 JUMPI PUSH1 0x0 DUP1 REVERT JUMPDEST POP PUSH2 0x4D0 PUSH2 0x126D JUMP JUMPDEST PUSH1 0x40 MLOAD PUSH2 0x4DD SWAP2 SWAP1 PUSH2 0x1F95 JUMP JUMPDEST PUSH1 0x40 MLOAD DUP1 SWAP2 SUB SWAP1 RETURN JUMPDEST CALLVALUE DUP1 ISZERO PUSH2 0x4F2 JUMPI PUSH1 0x0 DUP1 REVERT JUMPDEST POP PUSH2 0x4FB PUSH2 0x131B JUMP JUMPDEST PUSH1 0x40 MLOAD PUSH2 0x508 SWAP2 SWAP1 PUSH2 0x2049 JUMP JUMPDEST PUSH1 0x40 MLOAD DUP1 SWAP2 SUB SWAP1 RETURN JUMPDEST CALLVALUE DUP1 ISZERO PUSH2 0x51D JUMPI PUSH1 0x0 DUP1 REVERT JUMPDEST POP PUSH2 0x526 PUSH2 0x1321 JUMP JUMPDEST PUSH1 0x40 MLOAD PUSH2 0x533 SWAP2 SWAP1 PUSH2 0x2049 JUMP JUMPDEST PUSH1 0x40 MLOAD DUP1 SWAP2 SUB SWAP1 RETURN JUMPDEST CALLVALUE DUP1 ISZERO PUSH2 0x548 JUMPI PUSH1 0x0 DUP1 REVERT JUMPDEST POP PUSH2 0x551 PUSH2 0x13F5 JUMP JUMPDEST STOP JUMPDEST CALLVALUE DUP1 ISZERO PUSH2 0x55F JUMPI PUSH1 0x0 DUP1 REVERT JUMPDEST POP PUSH2 0x568 PUSH2 0x14CF JUMP JUMPDEST PUSH1 0x40 MLOAD PUSH2 0x575 SWAP2 SWAP1 PUSH2 0x2049 JUMP JUMPDEST PUSH1 0x40 MLOAD DUP1 SWAP2 SUB SWAP1 RETURN JUMPDEST CALLVALUE DUP1 ISZERO PUSH2 0x58A JUMPI PUSH1 0x0 DUP1 REVERT JUMPDEST POP PUSH2 0x593 PUSH2 0x14D5 JUMP JUMPDEST PUSH1 0x40 MLOAD PUSH2 0x5A0 SWAP2 SWAP1 PUSH2 0x2049 JUMP JUMPDEST PUSH1 0x40 MLOAD DUP1 SWAP2 SUB SWAP1 RETURN JUMPDEST CALLVALUE DUP1 ISZERO PUSH2 0x5B5 JUMPI PUSH1 0x0 DUP1 REVERT JUMPDEST POP PUSH2 0x5BE PUSH2 0x14DB JUMP JUMPDEST PUSH1 0x40 MLOAD PUSH2 0x5CB SWAP2 SWAP1 PUSH2 0x1E1E JUMP JUMPDEST PUSH1 0x40 MLOAD DUP1 SWAP2 SUB SWAP1 RETURN JUMPDEST CALLVALUE DUP1 ISZERO PUSH2 0x5E0 JUMPI PUSH1 0x0 DUP1 REVERT JUMPDEST POP PUSH2 0x5FB PUSH1 0x4 DUP1 CALLDATASIZE SUB DUP2 ADD SWAP1 PUSH2 0x5F6 SWAP2 SWAP1 PUSH2 0x198F JUMP JUMPDEST PUSH2 0x14F3 JUMP JUMPDEST PUSH1 0x40 MLOAD PUSH2 0x608 SWAP2 SWAP1 PUSH2 0x2049 JUMP JUMPDEST PUSH1 0x40 MLOAD DUP1 SWAP2 SUB SWAP1 RETURN JUMPDEST CALLVALUE DUP1 ISZERO PUSH2 0x61D JUMPI PUSH1 0x0 DUP1 REVERT JUMPDEST POP PUSH2 0x626 PUSH2 0x1517 JUMP JUMPDEST PUSH1 0x40 MLOAD PUSH2 0x633 SWAP2 SWAP1 PUSH2 0x1F7A JUMP JUMPDEST PUSH1 0x40 MLOAD DUP1 SWAP2 SUB SWAP1 RETURN JUMPDEST PUSH2 0x644 PUSH2 0x153B JUMP JUMPDEST STOP JUMPDEST CALLVALUE DUP1 ISZERO PUSH2 0x652 JUMPI PUSH1 0x0 DUP1 REVERT JUMPDEST POP PUSH2 0x65B PUSH2 0x153D JUMP JUMPDEST PUSH1 0x40 MLOAD PUSH2 0x668 SWAP2 SWAP1 PUSH2 0x2133 JUMP JUMPDEST PUSH1 0x40 MLOAD DUP1 SWAP2 SUB SWAP1 RETURN JUMPDEST PUSH2 0x68B PUSH1 0x4 DUP1 CALLDATASIZE SUB DUP2 ADD SWAP1 PUSH2 0x686 SWAP2 SWAP1 PUSH2 0x1A7C JUMP JUMPDEST PUSH2 0x15E3 JUMP JUMPDEST STOP JUMPDEST PUSH2 0x6A7 PUSH1 0x4 DUP1 CALLDATASIZE SUB DUP2 ADD SWAP1 PUSH2 0x6A2 SWAP2 SWAP1 PUSH2 0x198F JUMP JUMPDEST PUSH2 0x172D JUMP JUMPDEST STOP JUMPDEST PUSH1 0x9 SLOAD DUP2 JUMP JUMPDEST PUSH1 0x0 DUP1 PUSH1 0x0 DUP1 PUSH1 0x0 DUP1 PUSH1 0x9 SLOAD PUSH1 0xA SLOAD PUSH1 0xB SLOAD PUSH1 0xC SLOAD PUSH20 0x9C3C9283D3E44854697CD22D3FAA240CFB032889 PUSH20 0xA6FA4FB5F76172D178D61B04B0ECD319C5D1C0AA SWAP6 POP SWAP6 POP SWAP6 POP SWAP6 POP SWAP6 POP SWAP6 POP SWAP1 SWAP2 SWAP3 SWAP4 SWAP5 SWAP6 JUMP JUMPDEST PUSH1 0x3 SLOAD DUP2 JUMP JUMPDEST PUSH2 0xBB8 DUP2 JUMP JUMPDEST PUSH1 0x0 SELFBALANCE SWAP1 POP SWAP1 JUMP JUMPDEST PUSH1 0x0 DUP1 PUSH2 0x721 PUSH2 0x126D JUMP JUMPDEST SWAP1 POP PUSH1 0x0 PUSH2 0x72D PUSH2 0x153D JUMP JUMPDEST SWAP1 POP PUSH1 0x0 DUP2 PUSH1 0xFF AND PUSH1 0xA PUSH2 0x741 SWAP2 SWAP1 PUSH2 0x22A3 JUMP JUMPDEST DUP4 PUSH2 0x74C SWAP2 SWAP1 PUSH2 0x221F JUMP JUMPDEST SWAP1 POP DUP1 SWAP4 POP POP POP POP SWAP1 JUMP JUMPDEST PUSH1 0xA SLOAD DUP2 JUMP JUMPDEST PUSH20 0xE592427A0AECE92DE3EDEE1F18E0157C05861564 DUP2 JUMP JUMPDEST DUP1 PUSH20 0x9C3C9283D3E44854697CD22D3FAA240CFB032889 PUSH20 0xFFFFFFFFFFFFFFFFFFFFFFFFFFFFFFFFFFFFFFFF AND PUSH4 0x70A08231 ADDRESS PUSH1 0x40 MLOAD DUP3 PUSH4 0xFFFFFFFF AND PUSH1 0xE0 SHL DUP2 MSTORE PUSH1 0x4 ADD PUSH2 0x7C3 SWAP2 SWAP1 PUSH2 0x1E1E JUMP JUMPDEST PUSH1 0x20 PUSH1 0x40 MLOAD DUP1 DUP4 SUB DUP2 DUP7 DUP1 EXTCODESIZE ISZERO DUP1 ISZERO PUSH2 0x7DB JUMPI PUSH1 0x0 DUP1 REVERT JUMPDEST POP GAS STATICCALL ISZERO DUP1 ISZERO PUSH2 0x7EF JUMPI RETURNDATASIZE PUSH1 0x0 DUP1 RETURNDATACOPY RETURNDATASIZE PUSH1 0x0 REVERT JUMPDEST POP POP POP POP PUSH1 0x40 MLOAD RETURNDATASIZE PUSH1 0x1F NOT PUSH1 0x1F DUP3 ADD AND DUP3 ADD DUP1 PUSH1 0x40 MSTORE POP DUP2 ADD SWAP1 PUSH2 0x813 SWAP2 SWAP1 PUSH2 0x19BC JUMP JUMPDEST LT ISZERO PUSH2 0x854 JUMPI PUSH1 0x40 MLOAD PUSH32 0x8C379A000000000000000000000000000000000000000000000000000000000 DUP2 MSTORE PUSH1 0x4 ADD PUSH2 0x84B SWAP1 PUSH2 0x1FD2 JUMP JUMPDEST PUSH1 0x40 MLOAD DUP1 SWAP2 SUB SWAP1 REVERT JUMPDEST PUSH20 0x9C3C9283D3E44854697CD22D3FAA240CFB032889 PUSH20 0xFFFFFFFFFFFFFFFFFFFFFFFFFFFFFFFFFFFFFFFF AND PUSH4 0xA9059CBB CALLER DUP4 PUSH1 0x40 MLOAD DUP4 PUSH4 0xFFFFFFFF AND PUSH1 0xE0 SHL DUP2 MSTORE PUSH1 0x4 ADD PUSH2 0x8A3 SWAP3 SWAP2 SWAP1 PUSH2 0x1EC2 JUMP JUMPDEST PUSH1 0x20 PUSH1 0x40 MLOAD DUP1 DUP4 SUB DUP2 PUSH1 0x0 DUP8 DUP1 EXTCODESIZE ISZERO DUP1 ISZERO PUSH2 0x8BD JUMPI PUSH1 0x0 DUP1 REVERT JUMPDEST POP GAS CALL ISZERO DUP1 ISZERO PUSH2 0x8D1 JUMPI RETURNDATASIZE PUSH1 0x0 DUP1 RETURNDATACOPY RETURNDATASIZE PUSH1 0x0 REVERT JUMPDEST POP POP POP POP PUSH1 0x40 MLOAD RETURNDATASIZE PUSH1 0x1F NOT PUSH1 0x1F DUP3 ADD AND DUP3 ADD DUP1 PUSH1 0x40 MSTORE POP DUP2 ADD SWAP1 PUSH2 0x8F5 SWAP2 SWAP1 PUSH2 0x1915 JUMP JUMPDEST POP POP JUMP JUMPDEST PUSH1 0x0 CALLER SWAP1 POP PUSH1 0x0 SELFBALANCE SWAP1 POP DUP2 PUSH20 0xFFFFFFFFFFFFFFFFFFFFFFFFFFFFFFFFFFFFFFFF AND PUSH2 0x8FC DUP3 SWAP1 DUP2 ISZERO MUL SWAP1 PUSH1 0x40 MLOAD PUSH1 0x0 PUSH1 0x40 MLOAD DUP1 DUP4 SUB DUP2 DUP6 DUP9 DUP9 CALL SWAP4 POP POP POP POP ISZERO DUP1 ISZERO PUSH2 0x949 JUMPI RETURNDATASIZE PUSH1 0x0 DUP1 RETURNDATACOPY RETURNDATASIZE PUSH1 0x0 REVERT JUMPDEST POP POP POP JUMP JUMPDEST PUSH1 0xB SLOAD DUP2 JUMP JUMPDEST PUSH1 0x0 DUP1 DUP1 DUP5 DUP5 DUP2 ADD SWAP1 PUSH2 0x967 SWAP2 SWAP1 PUSH2 0x1A3C JUMP JUMPDEST SWAP2 POP SWAP2 POP DUP1 ISZERO PUSH2 0xBC3 JUMPI PUSH1 0x1 PUSH1 0x2 PUSH1 0x0 DUP5 DUP2 MSTORE PUSH1 0x20 ADD SWAP1 DUP2 MSTORE PUSH1 0x20 ADD PUSH1 0x0 KECCAK256 PUSH1 0x0 PUSH2 0x100 EXP DUP2 SLOAD DUP2 PUSH1 0xFF MUL NOT AND SWAP1 DUP4 ISZERO ISZERO MUL OR SWAP1 SSTORE POP PUSH1 0x3 PUSH1 0x0 DUP2 SLOAD DUP1 SWAP3 SWAP2 SWAP1 PUSH2 0x9B0 SWAP1 PUSH2 0x2537 JUMP JUMPDEST SWAP2 SWAP1 POP SSTORE POP PUSH1 0x0 DUP3 GT DUP1 ISZERO PUSH2 0x9EF JUMPI POP PUSH1 0x2 PUSH1 0x0 PUSH1 0x1 DUP5 PUSH2 0x9D1 SWAP2 SWAP1 PUSH2 0x23C1 JUMP JUMPDEST DUP2 MSTORE PUSH1 0x20 ADD SWAP1 DUP2 MSTORE PUSH1 0x20 ADD PUSH1 0x0 KECCAK256 PUSH1 0x0 SWAP1 SLOAD SWAP1 PUSH2 0x100 EXP SWAP1 DIV PUSH1 0xFF AND ISZERO JUMPDEST ISZERO PUSH2 0xAAE JUMPI PUSH1 0x4 PUSH1 0x0 DUP2 SLOAD DUP1 SWAP3 SWAP2 SWAP1 PUSH2 0xA07 SWAP1 PUSH2 0x2537 JUMP JUMPDEST SWAP2 SWAP1 POP SSTORE POP PUSH1 0x0 PUSH2 0xA49 PUSH8 0x214E8348C4F0000 PUSH20 0x9C3C9283D3E44854697CD22D3FAA240CFB032889 PUSH20 0xA6FA4FB5F76172D178D61B04B0ECD319C5D1C0AA PUSH2 0xD14 JUMP JUMPDEST SWAP1 POP DUP1 PUSH1 0x6 PUSH1 0x0 DUP6 DUP2 MSTORE PUSH1 0x20 ADD SWAP1 DUP2 MSTORE PUSH1 0x20 ADD PUSH1 0x0 KECCAK256 DUP2 SWAP1 SSTORE POP PUSH32 0x4DD189D126BC54EDEFED41708FDDF7028D7043657C8888914503A07DF469E82C DUP4 PUSH1 0x1 DUP4 PUSH2 0xA90 PUSH2 0x716 JUMP JUMPDEST PUSH1 0x40 MLOAD PUSH2 0xAA0 SWAP5 SWAP4 SWAP3 SWAP2 SWAP1 PUSH2 0x208D JUMP JUMPDEST PUSH1 0x40 MLOAD DUP1 SWAP2 SUB SWAP1 LOG1 POP PUSH2 0xBBE JUMP JUMPDEST PUSH1 0x6 PUSH1 0x0 PUSH1 0x1 DUP5 PUSH2 0xABF SWAP2 SWAP1 PUSH2 0x23C1 JUMP JUMPDEST DUP2 MSTORE PUSH1 0x20 ADD SWAP1 DUP2 MSTORE PUSH1 0x20 ADD PUSH1 0x0 KECCAK256 SLOAD SWAP3 POP PUSH1 0x0 DUP4 GT ISZERO PUSH2 0xBBD JUMPI PUSH1 0x6 PUSH1 0x0 PUSH1 0x1 DUP5 PUSH2 0xAEA SWAP2 SWAP1 PUSH2 0x23C1 JUMP JUMPDEST DUP2 MSTORE PUSH1 0x20 ADD SWAP1 DUP2 MSTORE PUSH1 0x20 ADD PUSH1 0x0 KECCAK256 PUSH1 0x0 SWAP1 SSTORE PUSH1 0x2 PUSH1 0x0 PUSH1 0x1 DUP5 PUSH2 0xB0D SWAP2 SWAP1 PUSH2 0x23C1 JUMP JUMPDEST DUP2 MSTORE PUSH1 0x20 ADD SWAP1 DUP2 MSTORE PUSH1 0x20 ADD PUSH1 0x0 KECCAK256 PUSH1 0x0 PUSH2 0x100 EXP DUP2 SLOAD SWAP1 PUSH1 0xFF MUL NOT AND SWAP1 SSTORE PUSH1 0x5 PUSH1 0x0 DUP2 SLOAD DUP1 SWAP3 SWAP2 SWAP1 PUSH2 0xB3E SWAP1 PUSH2 0x2537 JUMP JUMPDEST SWAP2 SWAP1 POP SSTORE POP PUSH2 0xB76 DUP4 PUSH20 0xA6FA4FB5F76172D178D61B04B0ECD319C5D1C0AA PUSH20 0x9C3C9283D3E44854697CD22D3FAA240CFB032889 PUSH2 0xD14 JUMP JUMPDEST POP PUSH32 0x4DD189D126BC54EDEFED41708FDDF7028D7043657C8888914503A07DF469E82C DUP3 PUSH1 0x0 DUP6 PUSH2 0xBA4 PUSH2 0x716 JUMP JUMPDEST PUSH1 0x40 MLOAD PUSH2 0xBB4 SWAP5 SWAP4 SWAP3 SWAP2 SWAP1 PUSH2 0x208D JUMP JUMPDEST PUSH1 0x40 MLOAD DUP1 SWAP2 SUB SWAP1 LOG1 JUMPDEST JUMPDEST PUSH2 0xD06 JUMP JUMPDEST PUSH1 0x2 PUSH1 0x0 PUSH1 0x1 DUP5 PUSH2 0xBD4 SWAP2 SWAP1 PUSH2 0x23C1 JUMP JUMPDEST DUP2 MSTORE PUSH1 0x20 ADD SWAP1 DUP2 MSTORE PUSH1 0x20 ADD PUSH1 0x0 KECCAK256 PUSH1 0x0 SWAP1 SLOAD SWAP1 PUSH2 0x100 EXP SWAP1 DIV PUSH1 0xFF AND ISZERO PUSH2 0xD05 JUMPI PUSH1 0x6 PUSH1 0x0 PUSH1 0x1 DUP5 PUSH2 0xC06 SWAP2 SWAP1 PUSH2 0x23C1 JUMP JUMPDEST DUP2 MSTORE PUSH1 0x20 ADD SWAP1 DUP2 MSTORE PUSH1 0x20 ADD PUSH1 0x0 KECCAK256 SLOAD SWAP3 POP PUSH1 0x0 DUP4 GT ISZERO PUSH2 0xD04 JUMPI PUSH1 0x6 PUSH1 0x0 PUSH1 0x1 DUP5 PUSH2 0xC31 SWAP2 SWAP1 PUSH2 0x23C1 JUMP JUMPDEST DUP2 MSTORE PUSH1 0x20 ADD SWAP1 DUP2 MSTORE PUSH1 0x20 ADD PUSH1 0x0 KECCAK256 PUSH1 0x0 SWAP1 SSTORE PUSH1 0x2 PUSH1 0x0 PUSH1 0x1 DUP5 PUSH2 0xC54 SWAP2 SWAP1 PUSH2 0x23C1 JUMP JUMPDEST DUP2 MSTORE PUSH1 0x20 ADD SWAP1 DUP2 MSTORE PUSH1 0x20 ADD PUSH1 0x0 KECCAK256 PUSH1 0x0 PUSH2 0x100 EXP DUP2 SLOAD SWAP1 PUSH1 0xFF MUL NOT AND SWAP1 SSTORE PUSH1 0x5 PUSH1 0x0 DUP2 SLOAD DUP1 SWAP3 SWAP2 SWAP1 PUSH2 0xC85 SWAP1 PUSH2 0x2537 JUMP JUMPDEST SWAP2 SWAP1 POP SSTORE POP PUSH2 0xCBD DUP4 PUSH20 0xA6FA4FB5F76172D178D61B04B0ECD319C5D1C0AA PUSH20 0x9C3C9283D3E44854697CD22D3FAA240CFB032889 PUSH2 0xD14 JUMP JUMPDEST POP PUSH32 0x4DD189D126BC54EDEFED41708FDDF7028D7043657C8888914503A07DF469E82C DUP3 PUSH1 0x0 DUP6 PUSH2 0xCEB PUSH2 0x716 JUMP JUMPDEST PUSH1 0x40 MLOAD PUSH2 0xCFB SWAP5 SWAP4 SWAP3 SWAP2 SWAP1 PUSH2 0x208D JUMP JUMPDEST PUSH1 0x40 MLOAD DUP1 SWAP2 SUB SWAP1 LOG1 JUMPDEST JUMPDEST JUMPDEST TIMESTAMP PUSH1 0x7 DUP2 SWAP1 SSTORE POP POP POP POP POP POP JUMP JUMPDEST PUSH1 0x0 PUSH1 0xD PUSH1 0x0 SWAP1 SLOAD SWAP1 PUSH2 0x100 EXP SWAP1 DIV PUSH20 0xFFFFFFFFFFFFFFFFFFFFFFFFFFFFFFFFFFFFFFFF AND PUSH20 0xFFFFFFFFFFFFFFFFFFFFFFFFFFFFFFFFFFFFFFFF AND PUSH4 0x95EA7B3 PUSH32 0x0 DUP7 PUSH1 0x40 MLOAD DUP4 PUSH4 0xFFFFFFFF AND PUSH1 0xE0 SHL DUP2 MSTORE PUSH1 0x4 ADD PUSH2 0xD93 SWAP3 SWAP2 SWAP1 PUSH2 0x1EC2 JUMP JUMPDEST PUSH1 0x20 PUSH1 0x40 MLOAD DUP1 DUP4 SUB DUP2 PUSH1 0x0 DUP8 DUP1 EXTCODESIZE ISZERO DUP1 ISZERO PUSH2 0xDAD JUMPI PUSH1 0x0 DUP1 REVERT JUMPDEST POP GAS CALL ISZERO DUP1 ISZERO PUSH2 0xDC1 JUMPI RETURNDATASIZE PUSH1 0x0 DUP1 RETURNDATACOPY RETURNDATASIZE PUSH1 0x0 REVERT JUMPDEST POP POP POP POP PUSH1 0x40 MLOAD RETURNDATASIZE PUSH1 0x1F NOT PUSH1 0x1F DUP3 ADD AND DUP3 ADD DUP1 PUSH1 0x40 MSTORE POP DUP2 ADD SWAP1 PUSH2 0xDE5 SWAP2 SWAP1 PUSH2 0x1915 JUMP JUMPDEST POP PUSH1 0x0 PUSH1 0x40 MLOAD DUP1 PUSH2 0x100 ADD PUSH1 0x40 MSTORE DUP1 DUP6 PUSH20 0xFFFFFFFFFFFFFFFFFFFFFFFFFFFFFFFFFFFFFFFF AND DUP2 MSTORE PUSH1 0x20 ADD DUP5 PUSH20 0xFFFFFFFFFFFFFFFFFFFFFFFFFFFFFFFFFFFFFFFF AND DUP2 MSTORE PUSH1 0x20 ADD PUSH2 0xBB8 PUSH3 0xFFFFFF AND DUP2 MSTORE PUSH1 0x20 ADD ADDRESS PUSH20 0xFFFFFFFFFFFFFFFFFFFFFFFFFFFFFFFFFFFFFFFF AND DUP2 MSTORE PUSH1 0x20 ADD TIMESTAMP DUP2 MSTORE PUSH1 0x20 ADD DUP7 DUP2 MSTORE PUSH1 0x20 ADD PUSH1 0x0 DUP2 MSTORE PUSH1 0x20 ADD PUSH1 0x0 PUSH20 0xFFFFFFFFFFFFFFFFFFFFFFFFFFFFFFFFFFFFFFFF AND DUP2 MSTORE POP SWAP1 POP PUSH32 0x0 PUSH20 0xFFFFFFFFFFFFFFFFFFFFFFFFFFFFFFFFFFFFFFFF AND PUSH4 0x414BF389 DUP3 PUSH1 0x40 MLOAD DUP3 PUSH4 0xFFFFFFFF AND PUSH1 0xE0 SHL DUP2 MSTORE PUSH1 0x4 ADD PUSH2 0xEDE SWAP2 SWAP1 PUSH2 0x2012 JUMP JUMPDEST PUSH1 0x20 PUSH1 0x40 MLOAD DUP1 DUP4 SUB DUP2 PUSH1 0x0 DUP8 DUP1 EXTCODESIZE ISZERO DUP1 ISZERO PUSH2 0xEF8 JUMPI PUSH1 0x0 DUP1 REVERT JUMPDEST POP GAS CALL SWAP3 POP POP POP DUP1 ISZERO PUSH2 0xF29 JUMPI POP PUSH1 0x40 MLOAD RETURNDATASIZE PUSH1 0x1F NOT PUSH1 0x1F DUP3 ADD AND DUP3 ADD DUP1 PUSH1 0x40 MSTORE POP DUP2 ADD SWAP1 PUSH2 0xF26 SWAP2 SWAP1 PUSH2 0x19BC JUMP JUMPDEST PUSH1 0x1 JUMPDEST PUSH2 0x1004 JUMPI PUSH2 0xF35 PUSH2 0x263C JUMP JUMPDEST DUP1 PUSH4 0x8C379A0 EQ ISZERO PUSH2 0xF92 JUMPI POP PUSH2 0xF4A PUSH2 0x26F4 JUMP JUMPDEST DUP1 PUSH2 0xF55 JUMPI POP PUSH2 0xF94 JUMP JUMPDEST PUSH32 0x81D03B083A6C8B385B5DD0A26081C4E095A4A552B17DC35036054153033AB0DB DUP2 PUSH1 0x40 MLOAD PUSH2 0xF84 SWAP2 SWAP1 PUSH2 0x1FB0 JUMP JUMPDEST PUSH1 0x40 MLOAD DUP1 SWAP2 SUB SWAP1 LOG1 POP PUSH2 0xFFF JUMP JUMPDEST POP JUMPDEST RETURNDATASIZE DUP1 PUSH1 0x0 DUP2 EQ PUSH2 0xFC0 JUMPI PUSH1 0x40 MLOAD SWAP2 POP PUSH1 0x1F NOT PUSH1 0x3F RETURNDATASIZE ADD AND DUP3 ADD PUSH1 0x40 MSTORE RETURNDATASIZE DUP3 MSTORE RETURNDATASIZE PUSH1 0x0 PUSH1 0x20 DUP5 ADD RETURNDATACOPY PUSH2 0xFC5 JUMP JUMPDEST PUSH1 0x60 SWAP2 POP JUMPDEST POP PUSH32 0x4B87BBD93BA65EDE1E2EFECA735D9F7A6720BF7D6DB0A8355B17DBA5B64E5783 DUP2 PUSH1 0x40 MLOAD PUSH2 0xFF5 SWAP2 SWAP1 PUSH2 0x1F3D JUMP JUMPDEST PUSH1 0x40 MLOAD DUP1 SWAP2 SUB SWAP1 LOG1 POP JUMPDEST PUSH2 0x100E JUMP JUMPDEST DUP1 SWAP3 POP POP POP PUSH2 0x1010 JUMP JUMPDEST POP JUMPDEST SWAP4 SWAP3 POP POP POP JUMP JUMPDEST PUSH20 0x9C3C9283D3E44854697CD22D3FAA240CFB032889 DUP2 JUMP JUMPDEST PUSH1 0xD PUSH1 0x0 SWAP1 SLOAD SWAP1 PUSH2 0x100 EXP SWAP1 DIV PUSH20 0xFFFFFFFFFFFFFFFFFFFFFFFFFFFFFFFFFFFFFFFF AND DUP2 JUMP JUMPDEST PUSH1 0x0 PUSH1 0x60 PUSH1 0x0 PUSH1 0x1 DUP1 SLOAD SWAP1 POP EQ ISZERO PUSH2 0x1070 JUMPI PUSH1 0x0 SWAP2 POP PUSH2 0x120E JUMP JUMPDEST PUSH1 0x0 PUSH2 0x107A PUSH2 0x716 JUMP JUMPDEST SWAP1 POP PUSH1 0x0 PUSH32 0xFFFFFFFFFFFFFFFFFFFFFFFFFFFFFFFFFFFFFFFFFFFFFFFFFFFFFFFFFFFFFFFF SWAP1 POP PUSH1 0x0 PUSH1 0x1 DUP1 SLOAD SWAP1 POP SWAP1 POP PUSH1 0x0 JUMPDEST PUSH1 0x1 DUP1 SLOAD SWAP1 POP DUP2 LT ISZERO PUSH2 0x1161 JUMPI PUSH1 0x0 PUSH1 0x1 DUP3 DUP2 SLOAD DUP2 LT PUSH2 0x10D1 JUMPI PUSH2 0x10D0 PUSH2 0x25DE JUMP JUMPDEST JUMPDEST SWAP1 PUSH1 0x0 MSTORE PUSH1 0x20 PUSH1 0x0 KECCAK256 ADD SLOAD DUP6 GT PUSH2 0x1111 JUMPI DUP5 PUSH1 0x1 DUP4 DUP2 SLOAD DUP2 LT PUSH2 0x10F7 JUMPI PUSH2 0x10F6 PUSH2 0x25DE JUMP JUMPDEST JUMPDEST SWAP1 PUSH1 0x0 MSTORE PUSH1 0x20 PUSH1 0x0 KECCAK256 ADD SLOAD PUSH2 0x110C SWAP2 SWAP1 PUSH2 0x23C1 JUMP JUMPDEST PUSH2 0x113C JUMP JUMPDEST PUSH1 0x1 DUP3 DUP2 SLOAD DUP2 LT PUSH2 0x1125 JUMPI PUSH2 0x1124 PUSH2 0x25DE JUMP JUMPDEST JUMPDEST SWAP1 PUSH1 0x0 MSTORE PUSH1 0x20 PUSH1 0x0 KECCAK256 ADD SLOAD DUP6 PUSH2 0x113B SWAP2 SWAP1 PUSH2 0x23C1 JUMP JUMPDEST JUMPDEST SWAP1 POP DUP4 DUP2 LT ISZERO PUSH2 0x114D JUMPI DUP1 SWAP4 POP DUP2 SWAP3 POP JUMPDEST POP DUP1 DUP1 PUSH2 0x1159 SWAP1 PUSH2 0x2537 JUMP JUMPDEST SWAP2 POP POP PUSH2 0x10AE JUMP JUMPDEST POP PUSH1 0x0 PUSH1 0x8 SLOAD PUSH1 0x7 SLOAD TIMESTAMP PUSH2 0x1175 SWAP2 SWAP1 PUSH2 0x23C1 JUMP JUMPDEST GT SWAP1 POP PUSH1 0x2 DUP4 GT ISZERO DUP1 ISZERO PUSH2 0x1186 JUMPI POP DUP1 JUMPDEST ISZERO PUSH2 0x1209 JUMPI PUSH1 0x2 PUSH1 0x0 DUP4 DUP2 MSTORE PUSH1 0x20 ADD SWAP1 DUP2 MSTORE PUSH1 0x20 ADD PUSH1 0x0 KECCAK256 PUSH1 0x0 SWAP1 SLOAD SWAP1 PUSH2 0x100 EXP SWAP1 DIV PUSH1 0xFF AND PUSH2 0x11DE JUMPI PUSH1 0x1 SWAP6 POP DUP2 PUSH1 0x1 PUSH1 0x40 MLOAD PUSH1 0x20 ADD PUSH2 0x11C8 SWAP3 SWAP2 SWAP1 PUSH2 0x2064 JUMP JUMPDEST PUSH1 0x40 MLOAD PUSH1 0x20 DUP2 DUP4 SUB SUB DUP2 MSTORE SWAP1 PUSH1 0x40 MSTORE SWAP5 POP PUSH2 0x1208 JUMP JUMPDEST PUSH1 0x1 SWAP6 POP DUP2 PUSH1 0x0 PUSH1 0x40 MLOAD PUSH1 0x20 ADD PUSH2 0x11F6 SWAP3 SWAP2 SWAP1 PUSH2 0x2064 JUMP JUMPDEST PUSH1 0x40 MLOAD PUSH1 0x20 DUP2 DUP4 SUB SUB DUP2 MSTORE SWAP1 PUSH1 0x40 MSTORE SWAP5 POP JUMPDEST JUMPDEST POP POP POP POP JUMPDEST SWAP3 POP SWAP3 SWAP1 POP JUMP JUMPDEST PUSH1 0x60 PUSH1 0x1 DUP1 SLOAD DUP1 PUSH1 0x20 MUL PUSH1 0x20 ADD PUSH1 0x40 MLOAD SWAP1 DUP2 ADD PUSH1 0x40 MSTORE DUP1 SWAP3 SWAP2 SWAP1 DUP2 DUP2 MSTORE PUSH1 0x20 ADD DUP3 DUP1 SLOAD DUP1 ISZERO PUSH2 0x1263 JUMPI PUSH1 0x20 MUL DUP3 ADD SWAP2 SWAP1 PUSH1 0x0 MSTORE PUSH1 0x20 PUSH1 0x0 KECCAK256 SWAP1 JUMPDEST DUP2 SLOAD DUP2 MSTORE PUSH1 0x20 ADD SWAP1 PUSH1 0x1 ADD SWAP1 DUP1 DUP4 GT PUSH2 0x124F JUMPI JUMPDEST POP POP POP POP POP SWAP1 POP SWAP1 JUMP JUMPDEST PUSH1 0x0 DUP1 PUSH1 0x0 DUP1 SLOAD SWAP1 PUSH2 0x100 EXP SWAP1 DIV PUSH20 0xFFFFFFFFFFFFFFFFFFFFFFFFFFFFFFFFFFFFFFFF AND PUSH20 0xFFFFFFFFFFFFFFFFFFFFFFFFFFFFFFFFFFFFFFFF AND PUSH4 0xFEAF968C PUSH1 0x40 MLOAD DUP2 PUSH4 0xFFFFFFFF AND PUSH1 0xE0 SHL DUP2 MSTORE PUSH1 0x4 ADD PUSH1 0xA0 PUSH1 0x40 MLOAD DUP1 DUP4 SUB DUP2 DUP7 DUP1 EXTCODESIZE ISZERO DUP1 ISZERO PUSH2 0x12D6 JUMPI PUSH1 0x0 DUP1 REVERT JUMPDEST POP GAS STATICCALL ISZERO DUP1 ISZERO PUSH2 0x12EA JUMPI RETURNDATASIZE PUSH1 0x0 DUP1 RETURNDATACOPY RETURNDATASIZE PUSH1 0x0 REVERT JUMPDEST POP POP POP POP PUSH1 0x40 MLOAD RETURNDATASIZE PUSH1 0x1F NOT PUSH1 0x1F DUP3 ADD AND DUP3 ADD DUP1 PUSH1 0x40 MSTORE POP DUP2 ADD SWAP1 PUSH2 0x130E SWAP2 SWAP1 PUSH2 0x1AE3 JUMP JUMPDEST POP POP POP SWAP2 POP POP DUP1 SWAP2 POP POP SWAP1 JUMP JUMPDEST PUSH1 0x4 SLOAD DUP2 JUMP JUMPDEST PUSH1 0x0 PUSH1 0xD PUSH1 0x0 SWAP1 SLOAD SWAP1 PUSH2 0x100 EXP SWAP1 DIV PUSH20 0xFFFFFFFFFFFFFFFFFFFFFFFFFFFFFFFFFFFFFFFF AND PUSH20 0xFFFFFFFFFFFFFFFFFFFFFFFFFFFFFFFFFFFFFFFF AND PUSH4 0xDD62ED3E ADDRESS PUSH32 0x0 PUSH1 0x40 MLOAD DUP4 PUSH4 0xFFFFFFFF AND PUSH1 0xE0 SHL DUP2 MSTORE PUSH1 0x4 ADD PUSH2 0x13A0 SWAP3 SWAP2 SWAP1 PUSH2 0x1E39 JUMP JUMPDEST PUSH1 0x20 PUSH1 0x40 MLOAD DUP1 DUP4 SUB DUP2 DUP7 DUP1 EXTCODESIZE ISZERO DUP1 ISZERO PUSH2 0x13B8 JUMPI PUSH1 0x0 DUP1 REVERT JUMPDEST POP GAS STATICCALL ISZERO DUP1 ISZERO PUSH2 0x13CC JUMPI RETURNDATASIZE PUSH1 0x0 DUP1 RETURNDATACOPY RETURNDATASIZE PUSH1 0x0 REVERT JUMPDEST POP POP POP POP PUSH1 0x40 MLOAD RETURNDATASIZE PUSH1 0x1F NOT PUSH1 0x1F DUP3 ADD AND DUP3 ADD DUP1 PUSH1 0x40 MSTORE POP DUP2 ADD SWAP1 PUSH2 0x13F0 SWAP2 SWAP1 PUSH2 0x19BC JUMP JUMPDEST SWAP1 POP SWAP1 JUMP JUMPDEST PUSH1 0xD PUSH1 0x0 SWAP1 SLOAD SWAP1 PUSH2 0x100 EXP SWAP1 DIV PUSH20 0xFFFFFFFFFFFFFFFFFFFFFFFFFFFFFFFFFFFFFFFF AND PUSH20 0xFFFFFFFFFFFFFFFFFFFFFFFFFFFFFFFFFFFFFFFF AND PUSH4 0x95EA7B3 PUSH32 0x0 PUSH8 0x4563918244F40000 PUSH1 0x40 MLOAD DUP4 PUSH4 0xFFFFFFFF AND PUSH1 0xE0 SHL DUP2 MSTORE PUSH1 0x4 ADD PUSH2 0x147A SWAP3 SWAP2 SWAP1 PUSH2 0x1E99 JUMP JUMPDEST PUSH1 0x20 PUSH1 0x40 MLOAD DUP1 DUP4 SUB DUP2 PUSH1 0x0 DUP8 DUP1 EXTCODESIZE ISZERO DUP1 ISZERO PUSH2 0x1494 JUMPI PUSH1 0x0 DUP1 REVERT JUMPDEST POP GAS CALL ISZERO DUP1 ISZERO PUSH2 0x14A8 JUMPI RETURNDATASIZE PUSH1 0x0 DUP1 RETURNDATACOPY RETURNDATASIZE PUSH1 0x0 REVERT JUMPDEST POP POP POP POP PUSH1 0x40 MLOAD RETURNDATASIZE PUSH1 0x1F NOT PUSH1 0x1F DUP3 ADD AND DUP3 ADD DUP1 PUSH1 0x40 MSTORE POP DUP2 ADD SWAP1 PUSH2 0x14CC SWAP2 SWAP1 PUSH2 0x1915 JUMP JUMPDEST POP JUMP JUMPDEST PUSH1 0x5 SLOAD DUP2 JUMP JUMPDEST PUSH1 0xC SLOAD DUP2 JUMP JUMPDEST PUSH20 0xA6FA4FB5F76172D178D61B04B0ECD319C5D1C0AA DUP2 JUMP JUMPDEST PUSH1 0x1 DUP2 DUP2 SLOAD DUP2 LT PUSH2 0x1503 JUMPI PUSH1 0x0 DUP1 REVERT JUMPDEST SWAP1 PUSH1 0x0 MSTORE PUSH1 0x20 PUSH1 0x0 KECCAK256 ADD PUSH1 0x0 SWAP2 POP SWAP1 POP SLOAD DUP2 JUMP JUMPDEST PUSH32 0x0 DUP2 JUMP JUMPDEST JUMP JUMPDEST PUSH1 0x0 DUP1 PUSH1 0x0 SWAP1 SLOAD SWAP1 PUSH2 0x100 EXP SWAP1 DIV PUSH20 0xFFFFFFFFFFFFFFFFFFFFFFFFFFFFFFFFFFFFFFFF AND PUSH20 0xFFFFFFFFFFFFFFFFFFFFFFFFFFFFFFFFFFFFFFFF AND PUSH4 0x313CE567 PUSH1 0x40 MLOAD DUP2 PUSH4 0xFFFFFFFF AND PUSH1 0xE0 SHL DUP2 MSTORE PUSH1 0x4 ADD PUSH1 0x20 PUSH1 0x40 MLOAD DUP1 DUP4 SUB DUP2 DUP7 DUP1 EXTCODESIZE ISZERO DUP1 ISZERO PUSH2 0x15A6 JUMPI PUSH1 0x0 DUP1 REVERT JUMPDEST POP GAS STATICCALL ISZERO DUP1 ISZERO PUSH2 0x15BA JUMPI RETURNDATASIZE PUSH1 0x0 DUP1 RETURNDATACOPY RETURNDATASIZE PUSH1 0x0 REVERT JUMPDEST POP POP POP POP PUSH1 0x40 MLOAD RETURNDATASIZE PUSH1 0x1F NOT PUSH1 0x1F DUP3 ADD AND DUP3 ADD DUP1 PUSH1 0x40 MSTORE POP DUP2 ADD SWAP1 PUSH2 0x15DE SWAP2 SWAP1 PUSH2 0x1B5E JUMP JUMPDEST SWAP1 POP SWAP1 JUMP JUMPDEST DUP4 PUSH1 0x9 DUP2 SWAP1 SSTORE POP DUP3 PUSH1 0xA DUP2 SWAP1 SSTORE POP DUP2 PUSH1 0xB DUP2 SWAP1 SSTORE POP DUP1 PUSH1 0xC DUP2 SWAP1 SSTORE POP PUSH20 0x9C3C9283D3E44854697CD22D3FAA240CFB032889 PUSH20 0xFFFFFFFFFFFFFFFFFFFFFFFFFFFFFFFFFFFFFFFF AND PUSH4 0x23B872DD CALLER ADDRESS PUSH1 0xC SLOAD PUSH1 0x40 MLOAD DUP5 PUSH4 0xFFFFFFFF AND PUSH1 0xE0 SHL DUP2 MSTORE PUSH1 0x4 ADD PUSH2 0x1652 SWAP4 SWAP3 SWAP2 SWAP1 PUSH2 0x1E62 JUMP JUMPDEST PUSH1 0x20 PUSH1 0x40 MLOAD DUP1 DUP4 SUB DUP2 PUSH1 0x0 DUP8 DUP1 EXTCODESIZE ISZERO DUP1 ISZERO PUSH2 0x166C JUMPI PUSH1 0x0 DUP1 REVERT JUMPDEST POP GAS CALL ISZERO DUP1 ISZERO PUSH2 0x1680 JUMPI RETURNDATASIZE PUSH1 0x0 DUP1 RETURNDATACOPY RETURNDATASIZE PUSH1 0x0 REVERT JUMPDEST POP POP POP POP PUSH1 0x40 MLOAD RETURNDATASIZE PUSH1 0x1F NOT PUSH1 0x1F DUP3 ADD AND DUP3 ADD DUP1 PUSH1 0x40 MSTORE POP DUP2 ADD SWAP1 PUSH2 0x16A4 SWAP2 SWAP1 PUSH2 0x1915 JUMP JUMPDEST POP PUSH1 0x0 PUSH1 0xB SLOAD PUSH1 0xA SLOAD PUSH1 0x9 SLOAD PUSH2 0x16BA SWAP2 SWAP1 PUSH2 0x23C1 JUMP JUMPDEST PUSH2 0x16C4 SWAP2 SWAP1 PUSH2 0x221F JUMP JUMPDEST SWAP1 POP PUSH1 0x0 DUP1 JUMPDEST PUSH1 0xB SLOAD DUP2 GT PUSH2 0x1724 JUMPI DUP2 PUSH1 0xA SLOAD PUSH2 0x16E1 SWAP2 SWAP1 PUSH2 0x21C9 JUMP JUMPDEST PUSH1 0x1 DUP3 DUP2 SLOAD DUP2 LT PUSH2 0x16F5 JUMPI PUSH2 0x16F4 PUSH2 0x25DE JUMP JUMPDEST JUMPDEST SWAP1 PUSH1 0x0 MSTORE PUSH1 0x20 PUSH1 0x0 KECCAK256 ADD DUP2 SWAP1 SSTORE POP DUP3 DUP3 PUSH2 0x170F SWAP2 SWAP1 PUSH2 0x21C9 JUMP JUMPDEST SWAP2 POP DUP1 DUP1 PUSH2 0x171C SWAP1 PUSH2 0x2537 JUMP JUMPDEST SWAP2 POP POP PUSH2 0x16CA JUMP JUMPDEST POP POP POP POP POP POP POP JUMP JUMPDEST PUSH1 0x0 CALLVALUE EQ PUSH2 0x1770 JUMPI PUSH1 0x40 MLOAD PUSH32 0x8C379A000000000000000000000000000000000000000000000000000000000 DUP2 MSTORE PUSH1 0x4 ADD PUSH2 0x1767 SWAP1 PUSH2 0x1FF2 JUMP JUMPDEST PUSH1 0x40 MLOAD DUP1 SWAP2 SUB SWAP1 REVERT JUMPDEST PUSH20 0x9C3C9283D3E44854697CD22D3FAA240CFB032889 PUSH20 0xFFFFFFFFFFFFFFFFFFFFFFFFFFFFFFFFFFFFFFFF AND PUSH4 0x23B872DD CALLER ADDRESS DUP5 PUSH1 0x40 MLOAD DUP5 PUSH4 0xFFFFFFFF AND PUSH1 0xE0 SHL DUP2 MSTORE PUSH1 0x4 ADD PUSH2 0x17C1 SWAP4 SWAP3 SWAP2 SWAP1 PUSH2 0x1E62 JUMP JUMPDEST PUSH1 0x20 PUSH1 0x40 MLOAD DUP1 DUP4 SUB DUP2 PUSH1 0x0 DUP8 DUP1 EXTCODESIZE ISZERO DUP1 ISZERO PUSH2 0x17DB JUMPI PUSH1 0x0 DUP1 REVERT JUMPDEST POP GAS CALL ISZERO DUP1 ISZERO PUSH2 0x17EF JUMPI RETURNDATASIZE PUSH1 0x0 DUP1 RETURNDATACOPY RETURNDATASIZE PUSH1 0x0 REVERT JUMPDEST POP POP POP POP PUSH1 0x40 MLOAD RETURNDATASIZE PUSH1 0x1F NOT PUSH1 0x1F DUP3 ADD AND DUP3 ADD DUP1 PUSH1 0x40 MSTORE POP DUP2 ADD SWAP1 PUSH2 0x1813 SWAP2 SWAP1 PUSH2 0x1915 JUMP JUMPDEST POP POP JUMP JUMPDEST PUSH1 0x0 DUP2 CALLDATALOAD SWAP1 POP PUSH2 0x1826 DUP2 PUSH2 0x278A JUMP JUMPDEST SWAP3 SWAP2 POP POP JUMP JUMPDEST PUSH1 0x0 DUP2 CALLDATALOAD SWAP1 POP PUSH2 0x183B DUP2 PUSH2 0x27A1 JUMP JUMPDEST SWAP3 SWAP2 POP POP JUMP JUMPDEST PUSH1 0x0 DUP2 MLOAD SWAP1 POP PUSH2 0x1850 DUP2 PUSH2 0x27A1 JUMP JUMPDEST SWAP3 SWAP2 POP POP JUMP JUMPDEST PUSH1 0x0 DUP1 DUP4 PUSH1 0x1F DUP5 ADD SLT PUSH2 0x186C JUMPI PUSH2 0x186B PUSH2 0x2663 JUMP JUMPDEST JUMPDEST DUP3 CALLDATALOAD SWAP1 POP PUSH8 0xFFFFFFFFFFFFFFFF DUP2 GT ISZERO PUSH2 0x1889 JUMPI PUSH2 0x1888 PUSH2 0x265E JUMP JUMPDEST JUMPDEST PUSH1 0x20 DUP4 ADD SWAP2 POP DUP4 PUSH1 0x1 DUP3 MUL DUP4 ADD GT ISZERO PUSH2 0x18A5 JUMPI PUSH2 0x18A4 PUSH2 0x2668 JUMP JUMPDEST JUMPDEST SWAP3 POP SWAP3 SWAP1 POP JUMP JUMPDEST PUSH1 0x0 DUP2 MLOAD SWAP1 POP PUSH2 0x18BB DUP2 PUSH2 0x27B8 JUMP JUMPDEST SWAP3 SWAP2 POP POP JUMP JUMPDEST PUSH1 0x0 DUP2 CALLDATALOAD SWAP1 POP PUSH2 0x18D0 DUP2 PUSH2 0x27CF JUMP JUMPDEST SWAP3 SWAP2 POP POP JUMP JUMPDEST PUSH1 0x0 DUP2 MLOAD SWAP1 POP PUSH2 0x18E5 DUP2 PUSH2 0x27CF JUMP JUMPDEST SWAP3 SWAP2 POP POP JUMP JUMPDEST PUSH1 0x0 DUP2 MLOAD SWAP1 POP PUSH2 0x18FA DUP2 PUSH2 0x27FD JUMP JUMPDEST SWAP3 SWAP2 POP POP JUMP JUMPDEST PUSH1 0x0 DUP2 MLOAD SWAP1 POP PUSH2 0x190F DUP2 PUSH2 0x27E6 JUMP JUMPDEST SWAP3 SWAP2 POP POP JUMP JUMPDEST PUSH1 0x0 PUSH1 0x20 DUP3 DUP5 SUB SLT ISZERO PUSH2 0x192B JUMPI PUSH2 0x192A PUSH2 0x2672 JUMP JUMPDEST JUMPDEST PUSH1 0x0 PUSH2 0x1939 DUP5 DUP3 DUP6 ADD PUSH2 0x1841 JUMP JUMPDEST SWAP2 POP POP SWAP3 SWAP2 POP POP JUMP JUMPDEST PUSH1 0x0 DUP1 PUSH1 0x20 DUP4 DUP6 SUB SLT ISZERO PUSH2 0x1959 JUMPI PUSH2 0x1958 PUSH2 0x2672 JUMP JUMPDEST JUMPDEST PUSH1 0x0 DUP4 ADD CALLDATALOAD PUSH8 0xFFFFFFFFFFFFFFFF DUP2 GT ISZERO PUSH2 0x1977 JUMPI PUSH2 0x1976 PUSH2 0x266D JUMP JUMPDEST JUMPDEST PUSH2 0x1983 DUP6 DUP3 DUP7 ADD PUSH2 0x1856 JUMP JUMPDEST SWAP3 POP SWAP3 POP POP SWAP3 POP SWAP3 SWAP1 POP JUMP JUMPDEST PUSH1 0x0 PUSH1 0x20 DUP3 DUP5 SUB SLT ISZERO PUSH2 0x19A5 JUMPI PUSH2 0x19A4 PUSH2 0x2672 JUMP JUMPDEST JUMPDEST PUSH1 0x0 PUSH2 0x19B3 DUP5 DUP3 DUP6 ADD PUSH2 0x18C1 JUMP JUMPDEST SWAP2 POP POP SWAP3 SWAP2 POP POP JUMP JUMPDEST PUSH1 0x0 PUSH1 0x20 DUP3 DUP5 SUB SLT ISZERO PUSH2 0x19D2 JUMPI PUSH2 0x19D1 PUSH2 0x2672 JUMP JUMPDEST JUMPDEST PUSH1 0x0 PUSH2 0x19E0 DUP5 DUP3 DUP6 ADD PUSH2 0x18D6 JUMP JUMPDEST SWAP2 POP POP SWAP3 SWAP2 POP POP JUMP JUMPDEST PUSH1 0x0 DUP1 PUSH1 0x0 PUSH1 0x60 DUP5 DUP7 SUB SLT ISZERO PUSH2 0x1A02 JUMPI PUSH2 0x1A01 PUSH2 0x2672 JUMP JUMPDEST JUMPDEST PUSH1 0x0 PUSH2 0x1A10 DUP7 DUP3 DUP8 ADD PUSH2 0x18C1 JUMP JUMPDEST SWAP4 POP POP PUSH1 0x20 PUSH2 0x1A21 DUP7 DUP3 DUP8 ADD PUSH2 0x1817 JUMP JUMPDEST SWAP3 POP POP PUSH1 0x40 PUSH2 0x1A32 DUP7 DUP3 DUP8 ADD PUSH2 0x1817 JUMP JUMPDEST SWAP2 POP POP SWAP3 POP SWAP3 POP SWAP3 JUMP JUMPDEST PUSH1 0x0 DUP1 PUSH1 0x40 DUP4 DUP6 SUB SLT ISZERO PUSH2 0x1A53 JUMPI PUSH2 0x1A52 PUSH2 0x2672 JUMP JUMPDEST JUMPDEST PUSH1 0x0 PUSH2 0x1A61 DUP6 DUP3 DUP7 ADD PUSH2 0x18C1 JUMP JUMPDEST SWAP3 POP POP PUSH1 0x20 PUSH2 0x1A72 DUP6 DUP3 DUP7 ADD PUSH2 0x182C JUMP JUMPDEST SWAP2 POP POP SWAP3 POP SWAP3 SWAP1 POP JUMP JUMPDEST PUSH1 0x0 DUP1 PUSH1 0x0 DUP1 PUSH1 0x80 DUP6 DUP8 SUB SLT ISZERO PUSH2 0x1A96 JUMPI PUSH2 0x1A95 PUSH2 0x2672 JUMP JUMPDEST JUMPDEST PUSH1 0x0 PUSH2 0x1AA4 DUP8 DUP3 DUP9 ADD PUSH2 0x18C1 JUMP JUMPDEST SWAP5 POP POP PUSH1 0x20 PUSH2 0x1AB5 DUP8 DUP3 DUP9 ADD PUSH2 0x18C1 JUMP JUMPDEST SWAP4 POP POP PUSH1 0x40 PUSH2 0x1AC6 DUP8 DUP3 DUP9 ADD PUSH2 0x18C1 JUMP JUMPDEST SWAP3 POP POP PUSH1 0x60 PUSH2 0x1AD7 DUP8 DUP3 DUP9 ADD PUSH2 0x18C1 JUMP JUMPDEST SWAP2 POP POP SWAP3 SWAP6 SWAP2 SWAP5 POP SWAP3 POP JUMP JUMPDEST PUSH1 0x0 DUP1 PUSH1 0x0 DUP1 PUSH1 0x0 PUSH1 0xA0 DUP7 DUP9 SUB SLT ISZERO PUSH2 0x1AFF JUMPI PUSH2 0x1AFE PUSH2 0x2672 JUMP JUMPDEST JUMPDEST PUSH1 0x0 PUSH2 0x1B0D DUP9 DUP3 DUP10 ADD PUSH2 0x18EB JUMP JUMPDEST SWAP6 POP POP PUSH1 0x20 PUSH2 0x1B1E DUP9 DUP3 DUP10 ADD PUSH2 0x18AC JUMP JUMPDEST SWAP5 POP POP PUSH1 0x40 PUSH2 0x1B2F DUP9 DUP3 DUP10 ADD PUSH2 0x18D6 JUMP JUMPDEST SWAP4 POP POP PUSH1 0x60 PUSH2 0x1B40 DUP9 DUP3 DUP10 ADD PUSH2 0x18D6 JUMP JUMPDEST SWAP3 POP POP PUSH1 0x80 PUSH2 0x1B51 DUP9 DUP3 DUP10 ADD PUSH2 0x18EB JUMP JUMPDEST SWAP2 POP POP SWAP3 SWAP6 POP SWAP3 SWAP6 SWAP1 SWAP4 POP JUMP JUMPDEST PUSH1 0x0 PUSH1 0x20 DUP3 DUP5 SUB SLT ISZERO PUSH2 0x1B74 JUMPI PUSH2 0x1B73 PUSH2 0x2672 JUMP JUMPDEST JUMPDEST PUSH1 0x0 PUSH2 0x1B82 DUP5 DUP3 DUP6 ADD PUSH2 0x1900 JUMP JUMPDEST SWAP2 POP POP SWAP3 SWAP2 POP POP JUMP JUMPDEST PUSH1 0x0 PUSH2 0x1B97 DUP4 DUP4 PUSH2 0x1DF1 JUMP JUMPDEST PUSH1 0x20 DUP4 ADD SWAP1 POP SWAP3 SWAP2 POP POP JUMP JUMPDEST PUSH2 0x1BAC DUP2 PUSH2 0x23F5 JUMP JUMPDEST DUP3 MSTORE POP POP JUMP JUMPDEST PUSH2 0x1BBB DUP2 PUSH2 0x23F5 JUMP JUMPDEST DUP3 MSTORE POP POP JUMP JUMPDEST PUSH1 0x0 PUSH2 0x1BCC DUP3 PUSH2 0x2168 JUMP JUMPDEST PUSH2 0x1BD6 DUP2 DUP6 PUSH2 0x2196 JUMP JUMPDEST SWAP4 POP PUSH2 0x1BE1 DUP4 PUSH2 0x2158 JUMP JUMPDEST DUP1 PUSH1 0x0 JUMPDEST DUP4 DUP2 LT ISZERO PUSH2 0x1C12 JUMPI DUP2 MLOAD PUSH2 0x1BF9 DUP9 DUP3 PUSH2 0x1B8B JUMP JUMPDEST SWAP8 POP PUSH2 0x1C04 DUP4 PUSH2 0x2189 JUMP JUMPDEST SWAP3 POP POP PUSH1 0x1 DUP2 ADD SWAP1 POP PUSH2 0x1BE5 JUMP JUMPDEST POP DUP6 SWAP4 POP POP POP POP SWAP3 SWAP2 POP POP JUMP JUMPDEST PUSH2 0x1C28 DUP2 PUSH2 0x2407 JUMP JUMPDEST DUP3 MSTORE POP POP JUMP JUMPDEST PUSH1 0x0 PUSH2 0x1C39 DUP3 PUSH2 0x2173 JUMP JUMPDEST PUSH2 0x1C43 DUP2 DUP6 PUSH2 0x21A7 JUMP JUMPDEST SWAP4 POP PUSH2 0x1C53 DUP2 DUP6 PUSH1 0x20 DUP7 ADD PUSH2 0x24D3 JUMP JUMPDEST PUSH2 0x1C5C DUP2 PUSH2 0x2677 JUMP JUMPDEST DUP5 ADD SWAP2 POP POP SWAP3 SWAP2 POP POP JUMP JUMPDEST PUSH2 0x1C70 DUP2 PUSH2 0x2479 JUMP JUMPDEST DUP3 MSTORE POP POP JUMP JUMPDEST PUSH2 0x1C7F DUP2 PUSH2 0x248B JUMP JUMPDEST DUP3 MSTORE POP POP JUMP JUMPDEST PUSH2 0x1C8E DUP2 PUSH2 0x2413 JUMP JUMPDEST DUP3 MSTORE POP POP JUMP JUMPDEST PUSH2 0x1C9D DUP2 PUSH2 0x249D JUMP JUMPDEST DUP3 MSTORE POP POP JUMP JUMPDEST PUSH1 0x0 PUSH2 0x1CAE DUP3 PUSH2 0x217E JUMP JUMPDEST PUSH2 0x1CB8 DUP2 DUP6 PUSH2 0x21B8 JUMP JUMPDEST SWAP4 POP PUSH2 0x1CC8 DUP2 DUP6 PUSH1 0x20 DUP7 ADD PUSH2 0x24D3 JUMP JUMPDEST PUSH2 0x1CD1 DUP2 PUSH2 0x2677 JUMP JUMPDEST DUP5 ADD SWAP2 POP POP SWAP3 SWAP2 POP POP JUMP JUMPDEST PUSH1 0x0 PUSH2 0x1CE9 PUSH1 0x14 DUP4 PUSH2 0x21B8 JUMP JUMPDEST SWAP2 POP PUSH2 0x1CF4 DUP3 PUSH2 0x26A2 JUMP JUMPDEST PUSH1 0x20 DUP3 ADD SWAP1 POP SWAP2 SWAP1 POP JUMP JUMPDEST PUSH1 0x0 PUSH2 0x1D0C PUSH1 0x10 DUP4 PUSH2 0x21B8 JUMP JUMPDEST SWAP2 POP PUSH2 0x1D17 DUP3 PUSH2 0x26CB JUMP JUMPDEST PUSH1 0x20 DUP3 ADD SWAP1 POP SWAP2 SWAP1 POP JUMP JUMPDEST PUSH2 0x100 DUP3 ADD PUSH1 0x0 DUP3 ADD MLOAD PUSH2 0x1D39 PUSH1 0x0 DUP6 ADD DUP3 PUSH2 0x1BA3 JUMP JUMPDEST POP PUSH1 0x20 DUP3 ADD MLOAD PUSH2 0x1D4C PUSH1 0x20 DUP6 ADD DUP3 PUSH2 0x1BA3 JUMP JUMPDEST POP PUSH1 0x40 DUP3 ADD MLOAD PUSH2 0x1D5F PUSH1 0x40 DUP6 ADD DUP3 PUSH2 0x1DD3 JUMP JUMPDEST POP PUSH1 0x60 DUP3 ADD MLOAD PUSH2 0x1D72 PUSH1 0x60 DUP6 ADD DUP3 PUSH2 0x1BA3 JUMP JUMPDEST POP PUSH1 0x80 DUP3 ADD MLOAD PUSH2 0x1D85 PUSH1 0x80 DUP6 ADD DUP3 PUSH2 0x1DF1 JUMP JUMPDEST POP PUSH1 0xA0 DUP3 ADD MLOAD PUSH2 0x1D98 PUSH1 0xA0 DUP6 ADD DUP3 PUSH2 0x1DF1 JUMP JUMPDEST POP PUSH1 0xC0 DUP3 ADD MLOAD PUSH2 0x1DAB PUSH1 0xC0 DUP6 ADD DUP3 PUSH2 0x1DF1 JUMP JUMPDEST POP PUSH1 0xE0 DUP3 ADD MLOAD PUSH2 0x1DBE PUSH1 0xE0 DUP6 ADD DUP3 PUSH2 0x1DC4 JUMP JUMPDEST POP POP POP POP JUMP JUMPDEST PUSH2 0x1DCD DUP2 PUSH2 0x241D JUMP JUMPDEST DUP3 MSTORE POP POP JUMP JUMPDEST PUSH2 0x1DDC DUP2 PUSH2 0x243D JUMP JUMPDEST DUP3 MSTORE POP POP JUMP JUMPDEST PUSH2 0x1DEB DUP2 PUSH2 0x243D JUMP JUMPDEST DUP3 MSTORE POP POP JUMP JUMPDEST PUSH2 0x1DFA DUP2 PUSH2 0x244C JUMP JUMPDEST DUP3 MSTORE POP POP JUMP JUMPDEST PUSH2 0x1E09 DUP2 PUSH2 0x244C JUMP JUMPDEST DUP3 MSTORE POP POP JUMP JUMPDEST PUSH2 0x1E18 DUP2 PUSH2 0x2456 JUMP JUMPDEST DUP3 MSTORE POP POP JUMP JUMPDEST PUSH1 0x0 PUSH1 0x20 DUP3 ADD SWAP1 POP PUSH2 0x1E33 PUSH1 0x0 DUP4 ADD DUP5 PUSH2 0x1BB2 JUMP JUMPDEST SWAP3 SWAP2 POP POP JUMP JUMPDEST PUSH1 0x0 PUSH1 0x40 DUP3 ADD SWAP1 POP PUSH2 0x1E4E PUSH1 0x0 DUP4 ADD DUP6 PUSH2 0x1BB2 JUMP JUMPDEST PUSH2 0x1E5B PUSH1 0x20 DUP4 ADD DUP5 PUSH2 0x1BB2 JUMP JUMPDEST SWAP4 SWAP3 POP POP POP JUMP JUMPDEST PUSH1 0x0 PUSH1 0x60 DUP3 ADD SWAP1 POP PUSH2 0x1E77 PUSH1 0x0 DUP4 ADD DUP7 PUSH2 0x1BB2 JUMP JUMPDEST PUSH2 0x1E84 PUSH1 0x20 DUP4 ADD DUP6 PUSH2 0x1BB2 JUMP JUMPDEST PUSH2 0x1E91 PUSH1 0x40 DUP4 ADD DUP5 PUSH2 0x1E00 JUMP JUMPDEST SWAP5 SWAP4 POP POP POP POP JUMP JUMPDEST PUSH1 0x0 PUSH1 0x40 DUP3 ADD SWAP1 POP PUSH2 0x1EAE PUSH1 0x0 DUP4 ADD DUP6 PUSH2 0x1BB2 JUMP JUMPDEST PUSH2 0x1EBB PUSH1 0x20 DUP4 ADD DUP5 PUSH2 0x1C94 JUMP JUMPDEST SWAP4 SWAP3 POP POP POP JUMP JUMPDEST PUSH1 0x0 PUSH1 0x40 DUP3 ADD SWAP1 POP PUSH2 0x1ED7 PUSH1 0x0 DUP4 ADD DUP6 PUSH2 0x1BB2 JUMP JUMPDEST PUSH2 0x1EE4 PUSH1 0x20 DUP4 ADD DUP5 PUSH2 0x1E00 JUMP JUMPDEST SWAP4 SWAP3 POP POP POP JUMP JUMPDEST PUSH1 0x0 PUSH1 0x20 DUP3 ADD SWAP1 POP DUP2 DUP2 SUB PUSH1 0x0 DUP4 ADD MSTORE PUSH2 0x1F05 DUP2 DUP5 PUSH2 0x1BC1 JUMP JUMPDEST SWAP1 POP SWAP3 SWAP2 POP POP JUMP JUMPDEST PUSH1 0x0 PUSH1 0x40 DUP3 ADD SWAP1 POP PUSH2 0x1F22 PUSH1 0x0 DUP4 ADD DUP6 PUSH2 0x1C1F JUMP JUMPDEST DUP2 DUP2 SUB PUSH1 0x20 DUP4 ADD MSTORE PUSH2 0x1F34 DUP2 DUP5 PUSH2 0x1C2E JUMP JUMPDEST SWAP1 POP SWAP4 SWAP3 POP POP POP JUMP JUMPDEST PUSH1 0x0 PUSH1 0x20 DUP3 ADD SWAP1 POP DUP2 DUP2 SUB PUSH1 0x0 DUP4 ADD MSTORE PUSH2 0x1F57 DUP2 DUP5 PUSH2 0x1C2E JUMP JUMPDEST SWAP1 POP SWAP3 SWAP2 POP POP JUMP JUMPDEST PUSH1 0x0 PUSH1 0x20 DUP3 ADD SWAP1 POP PUSH2 0x1F74 PUSH1 0x0 DUP4 ADD DUP5 PUSH2 0x1C67 JUMP JUMPDEST SWAP3 SWAP2 POP POP JUMP JUMPDEST PUSH1 0x0 PUSH1 0x20 DUP3 ADD SWAP1 POP PUSH2 0x1F8F PUSH1 0x0 DUP4 ADD DUP5 PUSH2 0x1C76 JUMP JUMPDEST SWAP3 SWAP2 POP POP JUMP JUMPDEST PUSH1 0x0 PUSH1 0x20 DUP3 ADD SWAP1 POP PUSH2 0x1FAA PUSH1 0x0 DUP4 ADD DUP5 PUSH2 0x1C85 JUMP JUMPDEST SWAP3 SWAP2 POP POP JUMP JUMPDEST PUSH1 0x0 PUSH1 0x20 DUP3 ADD SWAP1 POP DUP2 DUP2 SUB PUSH1 0x0 DUP4 ADD MSTORE PUSH2 0x1FCA DUP2 DUP5 PUSH2 0x1CA3 JUMP JUMPDEST SWAP1 POP SWAP3 SWAP2 POP POP JUMP JUMPDEST PUSH1 0x0 PUSH1 0x20 DUP3 ADD SWAP1 POP DUP2 DUP2 SUB PUSH1 0x0 DUP4 ADD MSTORE PUSH2 0x1FEB DUP2 PUSH2 0x1CDC JUMP JUMPDEST SWAP1 POP SWAP2 SWAP1 POP JUMP JUMPDEST PUSH1 0x0 PUSH1 0x20 DUP3 ADD SWAP1 POP DUP2 DUP2 SUB PUSH1 0x0 DUP4 ADD MSTORE PUSH2 0x200B DUP2 PUSH2 0x1CFF JUMP JUMPDEST SWAP1 POP SWAP2 SWAP1 POP JUMP JUMPDEST PUSH1 0x0 PUSH2 0x100 DUP3 ADD SWAP1 POP PUSH2 0x2028 PUSH1 0x0 DUP4 ADD DUP5 PUSH2 0x1D22 JUMP JUMPDEST SWAP3 SWAP2 POP POP JUMP JUMPDEST PUSH1 0x0 PUSH1 0x20 DUP3 ADD SWAP1 POP PUSH2 0x2043 PUSH1 0x0 DUP4 ADD DUP5 PUSH2 0x1DE2 JUMP JUMPDEST SWAP3 SWAP2 POP POP JUMP JUMPDEST PUSH1 0x0 PUSH1 0x20 DUP3 ADD SWAP1 POP PUSH2 0x205E PUSH1 0x0 DUP4 ADD DUP5 PUSH2 0x1E00 JUMP JUMPDEST SWAP3 SWAP2 POP POP JUMP JUMPDEST PUSH1 0x0 PUSH1 0x40 DUP3 ADD SWAP1 POP PUSH2 0x2079 PUSH1 0x0 DUP4 ADD DUP6 PUSH2 0x1E00 JUMP JUMPDEST PUSH2 0x2086 PUSH1 0x20 DUP4 ADD DUP5 PUSH2 0x1C1F JUMP JUMPDEST SWAP4 SWAP3 POP POP POP JUMP JUMPDEST PUSH1 0x0 PUSH1 0x80 DUP3 ADD SWAP1 POP PUSH2 0x20A2 PUSH1 0x0 DUP4 ADD DUP8 PUSH2 0x1E00 JUMP JUMPDEST PUSH2 0x20AF PUSH1 0x20 DUP4 ADD DUP7 PUSH2 0x1C1F JUMP JUMPDEST PUSH2 0x20BC PUSH1 0x40 DUP4 ADD DUP6 PUSH2 0x1E00 JUMP JUMPDEST PUSH2 0x20C9 PUSH1 0x60 DUP4 ADD DUP5 PUSH2 0x1E00 JUMP JUMPDEST SWAP6 SWAP5 POP POP POP POP POP JUMP JUMPDEST PUSH1 0x0 PUSH1 0xC0 DUP3 ADD SWAP1 POP PUSH2 0x20E7 PUSH1 0x0 DUP4 ADD DUP10 PUSH2 0x1E00 JUMP JUMPDEST PUSH2 0x20F4 PUSH1 0x20 DUP4 ADD DUP9 PUSH2 0x1E00 JUMP JUMPDEST PUSH2 0x2101 PUSH1 0x40 DUP4 ADD DUP8 PUSH2 0x1E00 JUMP JUMPDEST PUSH2 0x210E PUSH1 0x60 DUP4 ADD DUP7 PUSH2 0x1E00 JUMP JUMPDEST PUSH2 0x211B PUSH1 0x80 DUP4 ADD DUP6 PUSH2 0x1BB2 JUMP JUMPDEST PUSH2 0x2128 PUSH1 0xA0 DUP4 ADD DUP5 PUSH2 0x1BB2 JUMP JUMPDEST SWAP8 SWAP7 POP POP POP POP POP POP POP JUMP JUMPDEST PUSH1 0x0 PUSH1 0x20 DUP3 ADD SWAP1 POP PUSH2 0x2148 PUSH1 0x0 DUP4 ADD DUP5 PUSH2 0x1E0F JUMP JUMPDEST SWAP3 SWAP2 POP POP JUMP JUMPDEST PUSH1 0x0 PUSH1 0x40 MLOAD SWAP1 POP SWAP1 JUMP JUMPDEST PUSH1 0x0 DUP2 SWAP1 POP PUSH1 0x20 DUP3 ADD SWAP1 POP SWAP2 SWAP1 POP JUMP JUMPDEST PUSH1 0x0 DUP2 MLOAD SWAP1 POP SWAP2 SWAP1 POP JUMP JUMPDEST PUSH1 0x0 DUP2 MLOAD SWAP1 POP SWAP2 SWAP1 POP JUMP JUMPDEST PUSH1 0x0 DUP2 MLOAD SWAP1 POP SWAP2 SWAP1 POP JUMP JUMPDEST PUSH1 0x0 PUSH1 0x20 DUP3 ADD SWAP1 POP SWAP2 SWAP1 POP JUMP JUMPDEST PUSH1 0x0 DUP3 DUP3 MSTORE PUSH1 0x20 DUP3 ADD SWAP1 POP SWAP3 SWAP2 POP POP JUMP JUMPDEST PUSH1 0x0 DUP3 DUP3 MSTORE PUSH1 0x20 DUP3 ADD SWAP1 POP SWAP3 SWAP2 POP POP JUMP JUMPDEST PUSH1 0x0 DUP3 DUP3 MSTORE PUSH1 0x20 DUP3 ADD SWAP1 POP SWAP3 SWAP2 POP POP JUMP JUMPDEST PUSH1 0x0 PUSH2 0x21D4 DUP3 PUSH2 0x244C JUMP JUMPDEST SWAP2 POP PUSH2 0x21DF DUP4 PUSH2 0x244C JUMP JUMPDEST SWAP3 POP DUP3 PUSH32 0xFFFFFFFFFFFFFFFFFFFFFFFFFFFFFFFFFFFFFFFFFFFFFFFFFFFFFFFFFFFFFFFF SUB DUP3 GT ISZERO PUSH2 0x2214 JUMPI PUSH2 0x2213 PUSH2 0x2580 JUMP JUMPDEST JUMPDEST DUP3 DUP3 ADD SWAP1 POP SWAP3 SWAP2 POP POP JUMP JUMPDEST PUSH1 0x0 PUSH2 0x222A DUP3 PUSH2 0x244C JUMP JUMPDEST SWAP2 POP PUSH2 0x2235 DUP4 PUSH2 0x244C JUMP JUMPDEST SWAP3 POP DUP3 PUSH2 0x2245 JUMPI PUSH2 0x2244 PUSH2 0x25AF JUMP JUMPDEST JUMPDEST DUP3 DUP3 DIV SWAP1 POP SWAP3 SWAP2 POP POP JUMP JUMPDEST PUSH1 0x0 DUP1 DUP3 SWAP2 POP DUP4 SWAP1 POP JUMPDEST PUSH1 0x1 DUP6 GT ISZERO PUSH2 0x229A JUMPI DUP1 DUP7 DIV DUP2 GT ISZERO PUSH2 0x2276 JUMPI PUSH2 0x2275 PUSH2 0x2580 JUMP JUMPDEST JUMPDEST PUSH1 0x1 DUP6 AND ISZERO PUSH2 0x2285 JUMPI DUP1 DUP3 MUL SWAP2 POP JUMPDEST DUP1 DUP2 MUL SWAP1 POP PUSH2 0x2293 DUP6 PUSH2 0x2688 JUMP JUMPDEST SWAP5 POP PUSH2 0x225A JUMP JUMPDEST SWAP5 POP SWAP5 SWAP3 POP POP POP JUMP JUMPDEST PUSH1 0x0 PUSH2 0x22AE DUP3 PUSH2 0x244C JUMP JUMPDEST SWAP2 POP PUSH2 0x22B9 DUP4 PUSH2 0x244C JUMP JUMPDEST SWAP3 POP PUSH2 0x22E6 PUSH32 0xFFFFFFFFFFFFFFFFFFFFFFFFFFFFFFFFFFFFFFFFFFFFFFFFFFFFFFFFFFFFFFFF DUP5 DUP5 PUSH2 0x22EE JUMP JUMPDEST SWAP1 POP SWAP3 SWAP2 POP POP JUMP JUMPDEST PUSH1 0x0 DUP3 PUSH2 0x22FE JUMPI PUSH1 0x1 SWAP1 POP PUSH2 0x23BA JUMP JUMPDEST DUP2 PUSH2 0x230C JUMPI PUSH1 0x0 SWAP1 POP PUSH2 0x23BA JUMP JUMPDEST DUP2 PUSH1 0x1 DUP2 EQ PUSH2 0x2322 JUMPI PUSH1 0x2 DUP2 EQ PUSH2 0x232C JUMPI PUSH2 0x235B JUMP JUMPDEST PUSH1 0x1 SWAP2 POP POP PUSH2 0x23BA JUMP JUMPDEST PUSH1 0xFF DUP5 GT ISZERO PUSH2 0x233E JUMPI PUSH2 0x233D PUSH2 0x2580 JUMP JUMPDEST JUMPDEST DUP4 PUSH1 0x2 EXP SWAP2 POP DUP5 DUP3 GT ISZERO PUSH2 0x2355 JUMPI PUSH2 0x2354 PUSH2 0x2580 JUMP JUMPDEST JUMPDEST POP PUSH2 0x23BA JUMP JUMPDEST POP PUSH1 0x20 DUP4 LT PUSH2 0x133 DUP4 LT AND PUSH1 0x4E DUP5 LT PUSH1 0xB DUP5 LT AND OR ISZERO PUSH2 0x2390 JUMPI DUP3 DUP3 EXP SWAP1 POP DUP4 DUP2 GT ISZERO PUSH2 0x238B JUMPI PUSH2 0x238A PUSH2 0x2580 JUMP JUMPDEST JUMPDEST PUSH2 0x23BA JUMP JUMPDEST PUSH2 0x239D DUP5 DUP5 DUP5 PUSH1 0x1 PUSH2 0x2250 JUMP JUMPDEST SWAP3 POP SWAP1 POP DUP2 DUP5 DIV DUP2 GT ISZERO PUSH2 0x23B4 JUMPI PUSH2 0x23B3 PUSH2 0x2580 JUMP JUMPDEST JUMPDEST DUP2 DUP2 MUL SWAP1 POP JUMPDEST SWAP4 SWAP3 POP POP POP JUMP JUMPDEST PUSH1 0x0 PUSH2 0x23CC DUP3 PUSH2 0x244C JUMP JUMPDEST SWAP2 POP PUSH2 0x23D7 DUP4 PUSH2 0x244C JUMP JUMPDEST SWAP3 POP DUP3 DUP3 LT ISZERO PUSH2 0x23EA JUMPI PUSH2 0x23E9 PUSH2 0x2580 JUMP JUMPDEST JUMPDEST DUP3 DUP3 SUB SWAP1 POP SWAP3 SWAP2 POP POP JUMP JUMPDEST PUSH1 0x0 PUSH2 0x2400 DUP3 PUSH2 0x241D JUMP JUMPDEST SWAP1 POP SWAP2 SWAP1 POP JUMP JUMPDEST PUSH1 0x0 DUP2 ISZERO ISZERO SWAP1 POP SWAP2 SWAP1 POP JUMP JUMPDEST PUSH1 0x0 DUP2 SWAP1 POP SWAP2 SWAP1 POP JUMP JUMPDEST PUSH1 0x0 PUSH20 0xFFFFFFFFFFFFFFFFFFFFFFFFFFFFFFFFFFFFFFFF DUP3 AND SWAP1 POP SWAP2 SWAP1 POP JUMP JUMPDEST PUSH1 0x0 PUSH3 0xFFFFFF DUP3 AND SWAP1 POP SWAP2 SWAP1 POP JUMP JUMPDEST PUSH1 0x0 DUP2 SWAP1 POP SWAP2 SWAP1 POP JUMP JUMPDEST PUSH1 0x0 PUSH1 0xFF DUP3 AND SWAP1 POP SWAP2 SWAP1 POP JUMP JUMPDEST PUSH1 0x0 PUSH10 0xFFFFFFFFFFFFFFFFFFFF DUP3 AND SWAP1 POP SWAP2 SWAP1 POP JUMP JUMPDEST PUSH1 0x0 PUSH2 0x2484 DUP3 PUSH2 0x24AF JUMP JUMPDEST SWAP1 POP SWAP2 SWAP1 POP JUMP JUMPDEST PUSH1 0x0 PUSH2 0x2496 DUP3 PUSH2 0x24AF JUMP JUMPDEST SWAP1 POP SWAP2 SWAP1 POP JUMP JUMPDEST PUSH1 0x0 PUSH2 0x24A8 DUP3 PUSH2 0x244C JUMP JUMPDEST SWAP1 POP SWAP2 SWAP1 POP JUMP JUMPDEST PUSH1 0x0 PUSH2 0x24BA DUP3 PUSH2 0x24C1 JUMP JUMPDEST SWAP1 POP SWAP2 SWAP1 POP JUMP JUMPDEST PUSH1 0x0 PUSH2 0x24CC DUP3 PUSH2 0x241D JUMP JUMPDEST SWAP1 POP SWAP2 SWAP1 POP JUMP JUMPDEST PUSH1 0x0 JUMPDEST DUP4 DUP2 LT ISZERO PUSH2 0x24F1 JUMPI DUP1 DUP3 ADD MLOAD DUP2 DUP5 ADD MSTORE PUSH1 0x20 DUP2 ADD SWAP1 POP PUSH2 0x24D6 JUMP JUMPDEST DUP4 DUP2 GT ISZERO PUSH2 0x2500 JUMPI PUSH1 0x0 DUP5 DUP5 ADD MSTORE JUMPDEST POP POP POP POP JUMP JUMPDEST PUSH2 0x250F DUP3 PUSH2 0x2677 JUMP JUMPDEST DUP2 ADD DUP2 DUP2 LT PUSH8 0xFFFFFFFFFFFFFFFF DUP3 GT OR ISZERO PUSH2 0x252E JUMPI PUSH2 0x252D PUSH2 0x260D JUMP JUMPDEST JUMPDEST DUP1 PUSH1 0x40 MSTORE POP POP POP JUMP JUMPDEST PUSH1 0x0 PUSH2 0x2542 DUP3 PUSH2 0x244C JUMP JUMPDEST SWAP2 POP PUSH32 0xFFFFFFFFFFFFFFFFFFFFFFFFFFFFFFFFFFFFFFFFFFFFFFFFFFFFFFFFFFFFFFFF DUP3 EQ ISZERO PUSH2 0x2575 JUMPI PUSH2 0x2574 PUSH2 0x2580 JUMP JUMPDEST JUMPDEST PUSH1 0x1 DUP3 ADD SWAP1 POP SWAP2 SWAP1 POP JUMP JUMPDEST PUSH32 0x4E487B7100000000000000000000000000000000000000000000000000000000 PUSH1 0x0 MSTORE PUSH1 0x11 PUSH1 0x4 MSTORE PUSH1 0x24 PUSH1 0x0 REVERT JUMPDEST PUSH32 0x4E487B7100000000000000000000000000000000000000000000000000000000 PUSH1 0x0 MSTORE PUSH1 0x12 PUSH1 0x4 MSTORE PUSH1 0x24 PUSH1 0x0 REVERT JUMPDEST PUSH32 0x4E487B7100000000000000000000000000000000000000000000000000000000 PUSH1 0x0 MSTORE PUSH1 0x32 PUSH1 0x4 MSTORE PUSH1 0x24 PUSH1 0x0 REVERT JUMPDEST PUSH32 0x4E487B7100000000000000000000000000000000000000000000000000000000 PUSH1 0x0 MSTORE PUSH1 0x41 PUSH1 0x4 MSTORE PUSH1 0x24 PUSH1 0x0 REVERT JUMPDEST PUSH1 0x0 PUSH1 0x3 RETURNDATASIZE GT ISZERO PUSH2 0x265B JUMPI PUSH1 0x4 PUSH1 0x0 DUP1 RETURNDATACOPY PUSH2 0x2658 PUSH1 0x0 MLOAD PUSH2 0x2695 JUMP JUMPDEST SWAP1 POP JUMPDEST SWAP1 JUMP JUMPDEST PUSH1 0x0 DUP1 REVERT JUMPDEST PUSH1 0x0 DUP1 REVERT JUMPDEST PUSH1 0x0 DUP1 REVERT JUMPDEST PUSH1 0x0 DUP1 REVERT JUMPDEST PUSH1 0x0 DUP1 REVERT JUMPDEST PUSH1 0x0 PUSH1 0x1F NOT PUSH1 0x1F DUP4 ADD AND SWAP1 POP SWAP2 SWAP1 POP JUMP JUMPDEST PUSH1 0x0 DUP2 PUSH1 0x1 SHR SWAP1 POP SWAP2 SWAP1 POP JUMP JUMPDEST PUSH1 0x0 DUP2 PUSH1 0xE0 SHR SWAP1 POP SWAP2 SWAP1 POP JUMP JUMPDEST PUSH32 0x496E73756666696369656E742062616C616E6365000000000000000000000000 PUSH1 0x0 DUP3 ADD MSTORE POP JUMP JUMPDEST PUSH32 0x455448206E6F7420616363657074656400000000000000000000000000000000 PUSH1 0x0 DUP3 ADD MSTORE POP JUMP JUMPDEST PUSH1 0x0 PUSH1 0x44 RETURNDATASIZE LT ISZERO PUSH2 0x2704 JUMPI PUSH2 0x2787 JUMP JUMPDEST PUSH2 0x270C PUSH2 0x214E JUMP JUMPDEST PUSH1 0x4 RETURNDATASIZE SUB PUSH1 0x4 DUP3 RETURNDATACOPY DUP1 MLOAD RETURNDATASIZE PUSH1 0x24 DUP3 ADD GT PUSH8 0xFFFFFFFFFFFFFFFF DUP3 GT OR ISZERO PUSH2 0x2734 JUMPI POP POP PUSH2 0x2787 JUMP JUMPDEST DUP1 DUP3 ADD DUP1 MLOAD PUSH8 0xFFFFFFFFFFFFFFFF DUP2 GT ISZERO PUSH2 0x2752 JUMPI POP POP POP POP PUSH2 0x2787 JUMP JUMPDEST DUP1 PUSH1 0x20 DUP4 ADD ADD PUSH1 0x4 RETURNDATASIZE SUB DUP6 ADD DUP2 GT ISZERO PUSH2 0x276F JUMPI POP POP POP POP POP PUSH2 0x2787 JUMP JUMPDEST PUSH2 0x277E DUP3 PUSH1 0x20 ADD DUP6 ADD DUP7 PUSH2 0x2506 JUMP JUMPDEST DUP3 SWAP6 POP POP POP POP POP POP JUMPDEST SWAP1 JUMP JUMPDEST PUSH2 0x2793 DUP2 PUSH2 0x23F5 JUMP JUMPDEST DUP2 EQ PUSH2 0x279E JUMPI PUSH1 0x0 DUP1 REVERT JUMPDEST POP JUMP JUMPDEST PUSH2 0x27AA DUP2 PUSH2 0x2407 JUMP JUMPDEST DUP2 EQ PUSH2 0x27B5 JUMPI PUSH1 0x0 DUP1 REVERT JUMPDEST POP JUMP JUMPDEST PUSH2 0x27C1 DUP2 PUSH2 0x2413 JUMP JUMPDEST DUP2 EQ PUSH2 0x27CC JUMPI PUSH1 0x0 DUP1 REVERT JUMPDEST POP JUMP JUMPDEST PUSH2 0x27D8 DUP2 PUSH2 0x244C JUMP JUMPDEST DUP2 EQ PUSH2 0x27E3 JUMPI PUSH1 0x0 DUP1 REVERT JUMPDEST POP JUMP JUMPDEST PUSH2 0x27EF DUP2 PUSH2 0x2456 JUMP JUMPDEST DUP2 EQ PUSH2 0x27FA JUMPI PUSH1 0x0 DUP1 REVERT JUMPDEST POP JUMP JUMPDEST PUSH2 0x2806 DUP2 PUSH2 0x2463 JUMP JUMPDEST DUP2 EQ PUSH2 0x2811 JUMPI PUSH1 0x0 DUP1 REVERT JUMPDEST POP JUMP INVALID LOG2 PUSH5 0x6970667358 0x22 SLT KECCAK256 0xE8 PC PUSH5 0x6768540AF5 0x2F DUP9 MSTORE 0xC0 0xC8 0x4F RETURN CODESIZE SWAP12 0xA9 SELFBALANCE LOG0 DUP5 0xDB 0xB2 PUSH23 0x68E139420C9342C864736F6C6343000807003300000000 "},"methodIdentifiers":{"CreateBot(uint256,uint256,uint256,uint256)":"f34ca3ee","WETH()":"ad5c4648","WMATIC()":"4d95cad9","amount()":"aa8c217c","breachCounter()":"05bce226","buyCounter()":"91ceedbf","checkUpkeep(bytes)":"6e04ff0d","depositWmatic(uint256)":"f77ab1e0","getAllowance()":"973e9b8b","getBalance()":"12065fe0","getBotsDetails()":"00c993dd","getDecimals()":"f0141d84","getGrids()":"78126dfa","getOraclePrice()":"796da7af","getScaledPrice()":"17b37bd9","grids(uint256)":"af3b9678","linkToken()":"57970e93","lower_range()":"182305b1","no_of_grids()":"3e70c93d","payContract()":"ecb0b862","performUpkeep(bytes)":"4585e33b","poolFee()":"089fe6aa","routerAddress()":"3268cc56","sellCounter()":"a4d0047d","setAllowance()":"9c315aa8","swapExactInputSingle(uint256,address,address)":"4ce4dca5","swapRouter()":"c31c9c07","upper_range()":"0056cf2f","withdraw()":"3ccfd60b","withdrawWmatic(uint256)":"3a86b66a"}}}}}