{"contracts/TradeBot.sol":{"SingleSwap":{"abi":[{"inputs":[],"stateMutability":"nonpayable","type":"constructor"},{"anonymous":false,"inputs":[{"indexed":false,"internalType":"bytes","name":"bytesFailure","type":"bytes"}],"name":"BytesFailure","type":"event"},{"anonymous":false,"inputs":[{"indexed":false,"internalType":"uint256","name":"gridIndex","type":"uint256"},{"indexed":false,"internalType":"bool","name":"isFirstBreach","type":"bool"},{"indexed":false,"internalType":"uint256","name":"qty","type":"uint256"},{"indexed":false,"internalType":"uint256","name":"price","type":"uint256"}],"name":"GridBreached","type":"event"},{"anonymous":false,"inputs":[{"indexed":false,"internalType":"string","name":"stringFailure","type":"string"}],"name":"StringFailure","type":"event"},{"inputs":[],"name":"WETH","outputs":[{"internalType":"address","name":"","type":"address"}],"stateMutability":"view","type":"function"},{"inputs":[],"name":"WMATIC","outputs":[{"internalType":"address","name":"","type":"address"}],"stateMutability":"view","type":"function"},{"inputs":[],"name":"breachCounter","outputs":[{"internalType":"uint256","name":"","type":"uint256"}],"stateMutability":"view","type":"function"},{"inputs":[],"name":"buyCounter","outputs":[{"internalType":"uint256","name":"","type":"uint256"}],"stateMutability":"view","type":"function"},{"inputs":[{"internalType":"bytes","name":"","type":"bytes"}],"name":"checkUpkeep","outputs":[{"internalType":"bool","name":"upkeepNeeded","type":"bool"},{"internalType":"bytes","name":"performData","type":"bytes"}],"stateMutability":"view","type":"function"},{"inputs":[{"internalType":"uint256","name":"amount","type":"uint256"}],"name":"depositWmatic","outputs":[],"stateMutability":"payable","type":"function"},{"inputs":[],"name":"getAllowance","outputs":[{"internalType":"uint256","name":"","type":"uint256"}],"stateMutability":"view","type":"function"},{"inputs":[],"name":"getBalance","outputs":[{"internalType":"uint256","name":"","type":"uint256"}],"stateMutability":"view","type":"function"},{"inputs":[],"name":"getDecimals","outputs":[{"internalType":"uint8","name":"","type":"uint8"}],"stateMutability":"view","type":"function"},{"inputs":[],"name":"getOraclePrice","outputs":[{"internalType":"int256","name":"","type":"int256"}],"stateMutability":"view","type":"function"},{"inputs":[],"name":"getScaledPrice","outputs":[{"internalType":"uint256","name":"","type":"uint256"}],"stateMutability":"view","type":"function"},{"inputs":[{"internalType":"uint256","name":"","type":"uint256"}],"name":"grids","outputs":[{"internalType":"uint256","name":"","type":"uint256"}],"stateMutability":"view","type":"function"},{"inputs":[],"name":"linkToken","outputs":[{"internalType":"contract IERC20","name":"","type":"address"}],"stateMutability":"view","type":"function"},{"inputs":[],"name":"payContract","outputs":[],"stateMutability":"payable","type":"function"},{"inputs":[{"internalType":"bytes","name":"performData","type":"bytes"}],"name":"performUpkeep","outputs":[],"stateMutability":"nonpayable","type":"function"},{"inputs":[],"name":"poolFee","outputs":[{"internalType":"uint24","name":"","type":"uint24"}],"stateMutability":"view","type":"function"},{"inputs":[],"name":"routerAddress","outputs":[{"internalType":"address","name":"","type":"address"}],"stateMutability":"view","type":"function"},{"inputs":[],"name":"sellCounter","outputs":[{"internalType":"uint256","name":"","type":"uint256"}],"stateMutability":"view","type":"function"},{"inputs":[],"name":"setAllowance","outputs":[],"stateMutability":"nonpayable","type":"function"},{"inputs":[{"internalType":"uint256","name":"amountIn","type":"uint256"},{"internalType":"address","name":"tin","type":"address"},{"internalType":"address","name":"tout","type":"address"}],"name":"swapExactInputSingle","outputs":[{"internalType":"uint256","name":"amountOut","type":"uint256"}],"stateMutability":"payable","type":"function"},{"inputs":[],"name":"swapRouter","outputs":[{"internalType":"contract ISwapRouter","name":"","type":"address"}],"stateMutability":"view","type":"function"},{"inputs":[],"name":"withdraw","outputs":[],"stateMutability":"nonpayable","type":"function"},{"inputs":[{"internalType":"uint256","name":"amount","type":"uint256"}],"name":"withdrawWmatic","outputs":[],"stateMutability":"nonpayable","type":"function"},{"stateMutability":"payable","type":"receive"}],"evm":{"bytecode":{"linkReferences":{},"object":"60a060405273e592427a0aece92de3edee1f18e0157c0586156473ffffffffffffffffffffffffffffffffffffffff1660809073ffffffffffffffffffffffffffffffffffffffff1660601b815250603c600855739c3c9283d3e44854697cd22d3faa240cfb032889600960006101000a81548173ffffffffffffffffffffffffffffffffffffffff021916908373ffffffffffffffffffffffffffffffffffffffff160217905550348015620000b557600080fd5b50730715a7794a1dc8e42615f059dd6e406a6594651a6000806101000a81548173ffffffffffffffffffffffffffffffffffffffff021916908373ffffffffffffffffffffffffffffffffffffffff1602179055506040518061010001604052806106fb61ffff16815260200161070461ffff16815260200161070d61ffff16815260200161071661ffff16815260200161071f61ffff16815260200161072861ffff16815260200161073261ffff16815260200161074661ffff1681525060019060086200018692919062000195565b5060006003819055506200020c565b828054828255906000526020600020908101928215620001da579160200282015b82811115620001d9578251829061ffff16905591602001919060010190620001b6565b5b509050620001e99190620001ed565b5090565b5b8082111562000208576000816000905550600101620001ee565b5090565b60805160601c6122886200024760003960008181610b4301528181610c74015281816110e1015281816111b2015261129001526122886000f3fe6080604052600436106101445760003560e01c80636e04ff0d116100b6578063ad5c46481161006f578063ad5c464814610417578063af3b967814610442578063c31c9c071461047f578063ecb0b862146104aa578063f0141d84146104b4578063f77ab1e0146104df5761014b565b80636e04ff0d14610316578063796da7af1461035457806391ceedbf1461037f578063973e9b8b146103aa5780639c315aa8146103d5578063a4d0047d146103ec5761014b565b80633a86b66a116101085780633a86b66a146102275780633ccfd60b146102505780634585e33b146102675780634ce4dca5146102905780634d95cad9146102c057806357970e93146102eb5761014b565b806305bce22614610150578063089fe6aa1461017b57806312065fe0146101a657806317b37bd9146101d15780633268cc56146101fc5761014b565b3661014b57005b600080fd5b34801561015c57600080fd5b506101656104fb565b6040516101729190611b77565b60405180910390f35b34801561018757600080fd5b50610190610501565b60405161019d9190611b5c565b60405180910390f35b3480156101b257600080fd5b506101bb610507565b6040516101c89190611b77565b60405180910390f35b3480156101dd57600080fd5b506101e661050f565b6040516101f39190611b77565b60405180910390f35b34801561020857600080fd5b50610211610550565b60405161021e919061196e565b60405180910390f35b34801561023357600080fd5b5061024e600480360381019061024991906115bc565b610568565b005b34801561025c57600080fd5b506102656106ec565b005b34801561027357600080fd5b5061028e6004803603810190610289919061156f565b610741565b005b6102aa60048036038101906102a59190611616565b610b01565b6040516102b79190611b77565b60405180910390f35b3480156102cc57600080fd5b506102d5610e04565b6040516102e2919061196e565b60405180910390f35b3480156102f757600080fd5b50610300610e1c565b60405161030d9190611a8d565b60405180910390f35b34801561032257600080fd5b5061033d6004803603810190610338919061156f565b610e42565b60405161034b929190611a3b565b60405180910390f35b34801561036057600080fd5b50610369610fea565b6040516103769190611ac3565b60405180910390f35b34801561038b57600080fd5b50610394611098565b6040516103a19190611b77565b60405180910390f35b3480156103b657600080fd5b506103bf61109e565b6040516103cc9190611b77565b60405180910390f35b3480156103e157600080fd5b506103ea611172565b005b3480156103f857600080fd5b5061040161124c565b60405161040e9190611b77565b60405180910390f35b34801561042357600080fd5b5061042c611252565b604051610439919061196e565b60405180910390f35b34801561044e57600080fd5b50610469600480360381019061046491906115bc565b61126a565b6040516104769190611b77565b60405180910390f35b34801561048b57600080fd5b5061049461128e565b6040516104a19190611aa8565b60405180910390f35b6104b26112b2565b005b3480156104c057600080fd5b506104c96112b4565b6040516104d69190611c00565b60405180910390f35b6104f960048036038101906104f491906115bc565b61135a565b005b60035481565b610bb881565b600047905090565b60008061051a610fea565b905060006105266112b4565b905060008160ff16600a61053a9190611ce1565b836105459190611c5d565b905080935050505090565b73e592427a0aece92de3edee1f18e0157c0586156481565b80739c3c9283d3e44854697cd22d3faa240cfb03288973ffffffffffffffffffffffffffffffffffffffff166370a08231306040518263ffffffff1660e01b81526004016105b6919061196e565b60206040518083038186803b1580156105ce57600080fd5b505afa1580156105e2573d6000803e3d6000fd5b505050506040513d601f19601f8201168201806040525081019061060691906115e9565b1015610647576040517f08c379a000000000000000000000000000000000000000000000000000000000815260040161063e90611b00565b60405180910390fd5b739c3c9283d3e44854697cd22d3faa240cfb03288973ffffffffffffffffffffffffffffffffffffffff1663a9059cbb33836040518363ffffffff1660e01b8152600401610696929190611a12565b602060405180830381600087803b1580156106b057600080fd5b505af11580156106c4573d6000803e3d6000fd5b505050506040513d601f19601f820116820180604052508101906106e89190611542565b5050565b600033905060004790508173ffffffffffffffffffffffffffffffffffffffff166108fc829081150290604051600060405180830381858888f1935050505015801561073c573d6000803e3d6000fd5b505050565b6000808084848101906107549190611669565b9150915080156109b05760016002600084815260200190815260200160002060006101000a81548160ff0219169083151502179055506003600081548092919061079d90611f75565b91905055506000821180156107dc5750600260006001846107be9190611dff565b815260200190815260200160002060009054906101000a900460ff16155b1561089b57600460008154809291906107f490611f75565b91905055506000610836670214e8348c4f0000739c3c9283d3e44854697cd22d3faa240cfb03288973a6fa4fb5f76172d178d61b04b0ecd319c5d1c0aa610b01565b90508060066000858152602001908152602001600020819055507f4dd189d126bc54edefed41708fddf7028d7043657c8888914503a07df469e82c8360018361087d61050f565b60405161088d9493929190611bbb565b60405180910390a1506109ab565b600660006001846108ac9190611dff565b815260200190815260200160002054925060008311156109aa57600660006001846108d79190611dff565b815260200190815260200160002060009055600260006001846108fa9190611dff565b815260200190815260200160002060006101000a81549060ff02191690556005600081548092919061092b90611f75565b91905055506109638373a6fa4fb5f76172d178d61b04b0ecd319c5d1c0aa739c3c9283d3e44854697cd22d3faa240cfb032889610b01565b507f4dd189d126bc54edefed41708fddf7028d7043657c8888914503a07df469e82c8260008561099161050f565b6040516109a19493929190611bbb565b60405180910390a15b5b610af3565b600260006001846109c19190611dff565b815260200190815260200160002060009054906101000a900460ff1615610af257600660006001846109f39190611dff565b81526020019081526020016000205492506000831115610af15760066000600184610a1e9190611dff565b81526020019081526020016000206000905560026000600184610a419190611dff565b815260200190815260200160002060006101000a81549060ff021916905560056000815480929190610a7290611f75565b9190505550610aaa8373a6fa4fb5f76172d178d61b04b0ecd319c5d1c0aa739c3c9283d3e44854697cd22d3faa240cfb032889610b01565b507f4dd189d126bc54edefed41708fddf7028d7043657c8888914503a07df469e82c82600085610ad861050f565b604051610ae89493929190611bbb565b60405180910390a15b5b5b426007819055505050505050565b6000600960009054906101000a900473ffffffffffffffffffffffffffffffffffffffff1673ffffffffffffffffffffffffffffffffffffffff1663095ea7b37f0000000000000000000000000000000000000000000000000000000000000000866040518363ffffffff1660e01b8152600401610b80929190611a12565b602060405180830381600087803b158015610b9a57600080fd5b505af1158015610bae573d6000803e3d6000fd5b505050506040513d601f19601f82011682018060405250810190610bd29190611542565b5060006040518061010001604052808573ffffffffffffffffffffffffffffffffffffffff1681526020018473ffffffffffffffffffffffffffffffffffffffff168152602001610bb862ffffff1681526020013073ffffffffffffffffffffffffffffffffffffffff16815260200142815260200186815260200160008152602001600073ffffffffffffffffffffffffffffffffffffffff1681525090507f000000000000000000000000000000000000000000000000000000000000000073ffffffffffffffffffffffffffffffffffffffff1663414bf389826040518263ffffffff1660e01b8152600401610ccb9190611b40565b602060405180830381600087803b158015610ce557600080fd5b505af1925050508015610d1657506040513d601f19601f82011682018060405250810190610d1391906115e9565b60015b610df157610d2261207a565b806308c379a01415610d7f5750610d37612132565b80610d425750610d81565b7f81d03b083a6c8b385b5dd0a26081c4e095a4a552b17dc35036054153033ab0db81604051610d719190611ade565b60405180910390a150610dec565b505b3d8060008114610dad576040519150601f19603f3d011682016040523d82523d6000602084013e610db2565b606091505b507f4b87bbd93ba65ede1e2efeca735d9f7a6720bf7d6db0a8355b17dba5b64e578381604051610de29190611a6b565b60405180910390a1505b610dfb565b8092505050610dfd565b505b9392505050565b739c3c9283d3e44854697cd22d3faa240cfb03288981565b600960009054906101000a900473ffffffffffffffffffffffffffffffffffffffff1681565b600060606000610e5061050f565b905060007fffffffffffffffffffffffffffffffffffffffffffffffffffffffffffffffff90506000600180549050905060005b600180549050811015610f3757600060018281548110610ea757610ea661201c565b5b90600052602060002001548511610ee7578460018381548110610ecd57610ecc61201c565b5b9060005260206000200154610ee29190611dff565b610f12565b60018281548110610efb57610efa61201c565b5b906000526020600020015485610f119190611dff565b5b905083811015610f23578093508192505b508080610f2f90611f75565b915050610e84565b50600060085460075442610f4b9190611dff565b11905060028311158015610f5c5750805b15610fdf576002600083815260200190815260200160002060009054906101000a900460ff16610fb45760019550816001604051602001610f9e929190611b92565b6040516020818303038152906040529450610fde565b60019550816000604051602001610fcc929190611b92565b60405160208183030381529060405294505b5b505050509250929050565b60008060008054906101000a900473ffffffffffffffffffffffffffffffffffffffff1673ffffffffffffffffffffffffffffffffffffffff1663feaf968c6040518163ffffffff1660e01b815260040160a06040518083038186803b15801561105357600080fd5b505afa158015611067573d6000803e3d6000fd5b505050506040513d601f19601f8201168201806040525081019061108b91906116a9565b5050509150508091505090565b60045481565b6000600960009054906101000a900473ffffffffffffffffffffffffffffffffffffffff1673ffffffffffffffffffffffffffffffffffffffff1663dd62ed3e307f00000000000000000000000000000000000000000000000000000000000000006040518363ffffffff1660e01b815260040161111d929190611989565b60206040518083038186803b15801561113557600080fd5b505afa158015611149573d6000803e3d6000fd5b505050506040513d601f19601f8201168201806040525081019061116d91906115e9565b905090565b600960009054906101000a900473ffffffffffffffffffffffffffffffffffffffff1673ffffffffffffffffffffffffffffffffffffffff1663095ea7b37f0000000000000000000000000000000000000000000000000000000000000000674563918244f400006040518363ffffffff1660e01b81526004016111f79291906119e9565b602060405180830381600087803b15801561121157600080fd5b505af1158015611225573d6000803e3d6000fd5b505050506040513d601f19601f820116820180604052508101906112499190611542565b50565b60055481565b73a6fa4fb5f76172d178d61b04b0ecd319c5d1c0aa81565b6001818154811061127a57600080fd5b906000526020600020016000915090505481565b7f000000000000000000000000000000000000000000000000000000000000000081565b565b60008060009054906101000a900473ffffffffffffffffffffffffffffffffffffffff1673ffffffffffffffffffffffffffffffffffffffff1663313ce5676040518163ffffffff1660e01b815260040160206040518083038186803b15801561131d57600080fd5b505afa158015611331573d6000803e3d6000fd5b505050506040513d601f19601f820116820180604052508101906113559190611724565b905090565b6000341461139d576040517f08c379a000000000000000000000000000000000000000000000000000000000815260040161139490611b20565b60405180910390fd5b739c3c9283d3e44854697cd22d3faa240cfb03288973ffffffffffffffffffffffffffffffffffffffff166323b872dd3330846040518463ffffffff1660e01b81526004016113ee939291906119b2565b602060405180830381600087803b15801561140857600080fd5b505af115801561141c573d6000803e3d6000fd5b505050506040513d601f19601f820116820180604052508101906114409190611542565b5050565b600081359050611453816121c8565b92915050565b600081359050611468816121df565b92915050565b60008151905061147d816121df565b92915050565b60008083601f840112611499576114986120a1565b5b8235905067ffffffffffffffff8111156114b6576114b561209c565b5b6020830191508360018202830111156114d2576114d16120a6565b5b9250929050565b6000815190506114e8816121f6565b92915050565b6000813590506114fd8161220d565b92915050565b6000815190506115128161220d565b92915050565b6000815190506115278161223b565b92915050565b60008151905061153c81612224565b92915050565b600060208284031215611558576115576120b0565b5b60006115668482850161146e565b91505092915050565b60008060208385031215611586576115856120b0565b5b600083013567ffffffffffffffff8111156115a4576115a36120ab565b5b6115b085828601611483565b92509250509250929050565b6000602082840312156115d2576115d16120b0565b5b60006115e0848285016114ee565b91505092915050565b6000602082840312156115ff576115fe6120b0565b5b600061160d84828501611503565b91505092915050565b60008060006060848603121561162f5761162e6120b0565b5b600061163d868287016114ee565b935050602061164e86828701611444565b925050604061165f86828701611444565b9150509250925092565b600080604083850312156116805761167f6120b0565b5b600061168e858286016114ee565b925050602061169f85828601611459565b9150509250929050565b600080600080600060a086880312156116c5576116c46120b0565b5b60006116d388828901611518565b95505060206116e4888289016114d9565b94505060406116f588828901611503565b935050606061170688828901611503565b925050608061171788828901611518565b9150509295509295909350565b60006020828403121561173a576117396120b0565b5b60006117488482850161152d565b91505092915050565b61175a81611e33565b82525050565b61176981611e33565b82525050565b61177881611e45565b82525050565b600061178982611c25565b6117938185611c3b565b93506117a3818560208601611f11565b6117ac816120b5565b840191505092915050565b6117c081611eb7565b82525050565b6117cf81611ec9565b82525050565b6117de81611e51565b82525050565b6117ed81611edb565b82525050565b60006117fe82611c30565b6118088185611c4c565b9350611818818560208601611f11565b611821816120b5565b840191505092915050565b6000611839601483611c4c565b9150611844826120e0565b602082019050919050565b600061185c601083611c4c565b915061186782612109565b602082019050919050565b610100820160008201516118896000850182611751565b50602082015161189c6020850182611751565b5060408201516118af6040850182611923565b5060608201516118c26060850182611751565b5060808201516118d56080850182611941565b5060a08201516118e860a0850182611941565b5060c08201516118fb60c0850182611941565b5060e082015161190e60e0850182611914565b50505050565b61191d81611e5b565b82525050565b61192c81611e7b565b82525050565b61193b81611e7b565b82525050565b61194a81611e8a565b82525050565b61195981611e8a565b82525050565b61196881611e94565b82525050565b60006020820190506119836000830184611760565b92915050565b600060408201905061199e6000830185611760565b6119ab6020830184611760565b9392505050565b60006060820190506119c76000830186611760565b6119d46020830185611760565b6119e16040830184611950565b949350505050565b60006040820190506119fe6000830185611760565b611a0b60208301846117e4565b9392505050565b6000604082019050611a276000830185611760565b611a346020830184611950565b9392505050565b6000604082019050611a50600083018561176f565b8181036020830152611a62818461177e565b90509392505050565b60006020820190508181036000830152611a85818461177e565b905092915050565b6000602082019050611aa260008301846117b7565b92915050565b6000602082019050611abd60008301846117c6565b92915050565b6000602082019050611ad860008301846117d5565b92915050565b60006020820190508181036000830152611af881846117f3565b905092915050565b60006020820190508181036000830152611b198161182c565b9050919050565b60006020820190508181036000830152611b398161184f565b9050919050565b600061010082019050611b566000830184611872565b92915050565b6000602082019050611b716000830184611932565b92915050565b6000602082019050611b8c6000830184611950565b92915050565b6000604082019050611ba76000830185611950565b611bb4602083018461176f565b9392505050565b6000608082019050611bd06000830187611950565b611bdd602083018661176f565b611bea6040830185611950565b611bf76060830184611950565b95945050505050565b6000602082019050611c15600083018461195f565b92915050565b6000604051905090565b600081519050919050565b600081519050919050565b600082825260208201905092915050565b600082825260208201905092915050565b6000611c6882611e8a565b9150611c7383611e8a565b925082611c8357611c82611fed565b5b828204905092915050565b6000808291508390505b6001851115611cd857808604811115611cb457611cb3611fbe565b5b6001851615611cc35780820291505b8081029050611cd1856120c6565b9450611c98565b94509492505050565b6000611cec82611e8a565b9150611cf783611e8a565b9250611d247fffffffffffffffffffffffffffffffffffffffffffffffffffffffffffffffff8484611d2c565b905092915050565b600082611d3c5760019050611df8565b81611d4a5760009050611df8565b8160018114611d605760028114611d6a57611d99565b6001915050611df8565b60ff841115611d7c57611d7b611fbe565b5b8360020a915084821115611d9357611d92611fbe565b5b50611df8565b5060208310610133831016604e8410600b8410161715611dce5782820a905083811115611dc957611dc8611fbe565b5b611df8565b611ddb8484846001611c8e565b92509050818404811115611df257611df1611fbe565b5b81810290505b9392505050565b6000611e0a82611e8a565b9150611e1583611e8a565b925082821015611e2857611e27611fbe565b5b828203905092915050565b6000611e3e82611e5b565b9050919050565b60008115159050919050565b6000819050919050565b600073ffffffffffffffffffffffffffffffffffffffff82169050919050565b600062ffffff82169050919050565b6000819050919050565b600060ff82169050919050565b600069ffffffffffffffffffff82169050919050565b6000611ec282611eed565b9050919050565b6000611ed482611eed565b9050919050565b6000611ee682611e8a565b9050919050565b6000611ef882611eff565b9050919050565b6000611f0a82611e5b565b9050919050565b60005b83811015611f2f578082015181840152602081019050611f14565b83811115611f3e576000848401525b50505050565b611f4d826120b5565b810181811067ffffffffffffffff82111715611f6c57611f6b61204b565b5b80604052505050565b6000611f8082611e8a565b91507fffffffffffffffffffffffffffffffffffffffffffffffffffffffffffffffff821415611fb357611fb2611fbe565b5b600182019050919050565b7f4e487b7100000000000000000000000000000000000000000000000000000000600052601160045260246000fd5b7f4e487b7100000000000000000000000000000000000000000000000000000000600052601260045260246000fd5b7f4e487b7100000000000000000000000000000000000000000000000000000000600052603260045260246000fd5b7f4e487b7100000000000000000000000000000000000000000000000000000000600052604160045260246000fd5b600060033d11156120995760046000803e6120966000516120d3565b90505b90565b600080fd5b600080fd5b600080fd5b600080fd5b600080fd5b6000601f19601f8301169050919050565b60008160011c9050919050565b60008160e01c9050919050565b7f496e73756666696369656e742062616c616e6365000000000000000000000000600082015250565b7f455448206e6f7420616363657074656400000000000000000000000000000000600082015250565b600060443d1015612142576121c5565b61214a611c1b565b60043d036004823e80513d602482011167ffffffffffffffff821117156121725750506121c5565b808201805167ffffffffffffffff81111561219057505050506121c5565b80602083010160043d0385018111156121ad5750505050506121c5565b6121bc82602001850186611f44565b82955050505050505b90565b6121d181611e33565b81146121dc57600080fd5b50565b6121e881611e45565b81146121f357600080fd5b50565b6121ff81611e51565b811461220a57600080fd5b50565b61221681611e8a565b811461222157600080fd5b50565b61222d81611e94565b811461223857600080fd5b50565b61224481611ea1565b811461224f57600080fd5b5056fea2646970667358221220f2296ab4bacfddf93cc20e24fab66d540e5f4185241d4b36a168c09e7b7bc31064736f6c63430008070033","opcodes":"PUSH1 0xA0 PUSH1 0x40 MSTORE PUSH20 0xE592427A0AECE92DE3EDEE1F18E0157C05861564 PUSH20 0xFFFFFFFFFFFFFFFFFFFFFFFFFFFFFFFFFFFFFFFF AND PUSH1 0x80 SWAP1 PUSH20 0xFFFFFFFFFFFFFFFFFFFFFFFFFFFFFFFFFFFFFFFF AND PUSH1 0x60 SHL DUP2 MSTORE POP PUSH1 0x3C PUSH1 0x8 SSTORE PUSH20 0x9C3C9283D3E44854697CD22D3FAA240CFB032889 PUSH1 0x9 PUSH1 0x0 PUSH2 0x100 EXP DUP2 SLOAD DUP2 PUSH20 0xFFFFFFFFFFFFFFFFFFFFFFFFFFFFFFFFFFFFFFFF MUL NOT AND SWAP1 DUP4 PUSH20 0xFFFFFFFFFFFFFFFFFFFFFFFFFFFFFFFFFFFFFFFF AND MUL OR SWAP1 SSTORE POP CALLVALUE DUP1 ISZERO PUSH3 0xB5 JUMPI PUSH1 0x0 DUP1 REVERT JUMPDEST POP PUSH20 0x715A7794A1DC8E42615F059DD6E406A6594651A PUSH1 0x0 DUP1 PUSH2 0x100 EXP DUP2 SLOAD DUP2 PUSH20 0xFFFFFFFFFFFFFFFFFFFFFFFFFFFFFFFFFFFFFFFF MUL NOT AND SWAP1 DUP4 PUSH20 0xFFFFFFFFFFFFFFFFFFFFFFFFFFFFFFFFFFFFFFFF AND MUL OR SWAP1 SSTORE POP PUSH1 0x40 MLOAD DUP1 PUSH2 0x100 ADD PUSH1 0x40 MSTORE DUP1 PUSH2 0x6FB PUSH2 0xFFFF AND DUP2 MSTORE PUSH1 0x20 ADD PUSH2 0x704 PUSH2 0xFFFF AND DUP2 MSTORE PUSH1 0x20 ADD PUSH2 0x70D PUSH2 0xFFFF AND DUP2 MSTORE PUSH1 0x20 ADD PUSH2 0x716 PUSH2 0xFFFF AND DUP2 MSTORE PUSH1 0x20 ADD PUSH2 0x71F PUSH2 0xFFFF AND DUP2 MSTORE PUSH1 0x20 ADD PUSH2 0x728 PUSH2 0xFFFF AND DUP2 MSTORE PUSH1 0x20 ADD PUSH2 0x732 PUSH2 0xFFFF AND DUP2 MSTORE PUSH1 0x20 ADD PUSH2 0x746 PUSH2 0xFFFF AND DUP2 MSTORE POP PUSH1 0x1 SWAP1 PUSH1 0x8 PUSH3 0x186 SWAP3 SWAP2 SWAP1 PUSH3 0x195 JUMP JUMPDEST POP PUSH1 0x0 PUSH1 0x3 DUP2 SWAP1 SSTORE POP PUSH3 0x20C JUMP JUMPDEST DUP3 DUP1 SLOAD DUP3 DUP3 SSTORE SWAP1 PUSH1 0x0 MSTORE PUSH1 0x20 PUSH1 0x0 KECCAK256 SWAP1 DUP2 ADD SWAP3 DUP3 ISZERO PUSH3 0x1DA JUMPI SWAP2 PUSH1 0x20 MUL DUP3 ADD JUMPDEST DUP3 DUP2 GT ISZERO PUSH3 0x1D9 JUMPI DUP3 MLOAD DUP3 SWAP1 PUSH2 0xFFFF AND SWAP1 SSTORE SWAP2 PUSH1 0x20 ADD SWAP2 SWAP1 PUSH1 0x1 ADD SWAP1 PUSH3 0x1B6 JUMP JUMPDEST JUMPDEST POP SWAP1 POP PUSH3 0x1E9 SWAP2 SWAP1 PUSH3 0x1ED JUMP JUMPDEST POP SWAP1 JUMP JUMPDEST JUMPDEST DUP1 DUP3 GT ISZERO PUSH3 0x208 JUMPI PUSH1 0x0 DUP2 PUSH1 0x0 SWAP1 SSTORE POP PUSH1 0x1 ADD PUSH3 0x1EE JUMP JUMPDEST POP SWAP1 JUMP JUMPDEST PUSH1 0x80 MLOAD PUSH1 0x60 SHR PUSH2 0x2288 PUSH3 0x247 PUSH1 0x0 CODECOPY PUSH1 0x0 DUP2 DUP2 PUSH2 0xB43 ADD MSTORE DUP2 DUP2 PUSH2 0xC74 ADD MSTORE DUP2 DUP2 PUSH2 0x10E1 ADD MSTORE DUP2 DUP2 PUSH2 0x11B2 ADD MSTORE PUSH2 0x1290 ADD MSTORE PUSH2 0x2288 PUSH1 0x0 RETURN INVALID PUSH1 0x80 PUSH1 0x40 MSTORE PUSH1 0x4 CALLDATASIZE LT PUSH2 0x144 JUMPI PUSH1 0x0 CALLDATALOAD PUSH1 0xE0 SHR DUP1 PUSH4 0x6E04FF0D GT PUSH2 0xB6 JUMPI DUP1 PUSH4 0xAD5C4648 GT PUSH2 0x6F JUMPI DUP1 PUSH4 0xAD5C4648 EQ PUSH2 0x417 JUMPI DUP1 PUSH4 0xAF3B9678 EQ PUSH2 0x442 JUMPI DUP1 PUSH4 0xC31C9C07 EQ PUSH2 0x47F JUMPI DUP1 PUSH4 0xECB0B862 EQ PUSH2 0x4AA JUMPI DUP1 PUSH4 0xF0141D84 EQ PUSH2 0x4B4 JUMPI DUP1 PUSH4 0xF77AB1E0 EQ PUSH2 0x4DF JUMPI PUSH2 0x14B JUMP JUMPDEST DUP1 PUSH4 0x6E04FF0D EQ PUSH2 0x316 JUMPI DUP1 PUSH4 0x796DA7AF EQ PUSH2 0x354 JUMPI DUP1 PUSH4 0x91CEEDBF EQ PUSH2 0x37F JUMPI DUP1 PUSH4 0x973E9B8B EQ PUSH2 0x3AA JUMPI DUP1 PUSH4 0x9C315AA8 EQ PUSH2 0x3D5 JUMPI DUP1 PUSH4 0xA4D0047D EQ PUSH2 0x3EC JUMPI PUSH2 0x14B JUMP JUMPDEST DUP1 PUSH4 0x3A86B66A GT PUSH2 0x108 JUMPI DUP1 PUSH4 0x3A86B66A EQ PUSH2 0x227 JUMPI DUP1 PUSH4 0x3CCFD60B EQ PUSH2 0x250 JUMPI DUP1 PUSH4 0x4585E33B EQ PUSH2 0x267 JUMPI DUP1 PUSH4 0x4CE4DCA5 EQ PUSH2 0x290 JUMPI DUP1 PUSH4 0x4D95CAD9 EQ PUSH2 0x2C0 JUMPI DUP1 PUSH4 0x57970E93 EQ PUSH2 0x2EB JUMPI PUSH2 0x14B JUMP JUMPDEST DUP1 PUSH4 0x5BCE226 EQ PUSH2 0x150 JUMPI DUP1 PUSH4 0x89FE6AA EQ PUSH2 0x17B JUMPI DUP1 PUSH4 0x12065FE0 EQ PUSH2 0x1A6 JUMPI DUP1 PUSH4 0x17B37BD9 EQ PUSH2 0x1D1 JUMPI DUP1 PUSH4 0x3268CC56 EQ PUSH2 0x1FC JUMPI PUSH2 0x14B JUMP JUMPDEST CALLDATASIZE PUSH2 0x14B JUMPI STOP JUMPDEST PUSH1 0x0 DUP1 REVERT JUMPDEST CALLVALUE DUP1 ISZERO PUSH2 0x15C JUMPI PUSH1 0x0 DUP1 REVERT JUMPDEST POP PUSH2 0x165 PUSH2 0x4FB JUMP JUMPDEST PUSH1 0x40 MLOAD PUSH2 0x172 SWAP2 SWAP1 PUSH2 0x1B77 JUMP JUMPDEST PUSH1 0x40 MLOAD DUP1 SWAP2 SUB SWAP1 RETURN JUMPDEST CALLVALUE DUP1 ISZERO PUSH2 0x187 JUMPI PUSH1 0x0 DUP1 REVERT JUMPDEST POP PUSH2 0x190 PUSH2 0x501 JUMP JUMPDEST PUSH1 0x40 MLOAD PUSH2 0x19D SWAP2 SWAP1 PUSH2 0x1B5C JUMP JUMPDEST PUSH1 0x40 MLOAD DUP1 SWAP2 SUB SWAP1 RETURN JUMPDEST CALLVALUE DUP1 ISZERO PUSH2 0x1B2 JUMPI PUSH1 0x0 DUP1 REVERT JUMPDEST POP PUSH2 0x1BB PUSH2 0x507 JUMP JUMPDEST PUSH1 0x40 MLOAD PUSH2 0x1C8 SWAP2 SWAP1 PUSH2 0x1B77 JUMP JUMPDEST PUSH1 0x40 MLOAD DUP1 SWAP2 SUB SWAP1 RETURN JUMPDEST CALLVALUE DUP1 ISZERO PUSH2 0x1DD JUMPI PUSH1 0x0 DUP1 REVERT JUMPDEST POP PUSH2 0x1E6 PUSH2 0x50F JUMP JUMPDEST PUSH1 0x40 MLOAD PUSH2 0x1F3 SWAP2 SWAP1 PUSH2 0x1B77 JUMP JUMPDEST PUSH1 0x40 MLOAD DUP1 SWAP2 SUB SWAP1 RETURN JUMPDEST CALLVALUE DUP1 ISZERO PUSH2 0x208 JUMPI PUSH1 0x0 DUP1 REVERT JUMPDEST POP PUSH2 0x211 PUSH2 0x550 JUMP JUMPDEST PUSH1 0x40 MLOAD PUSH2 0x21E SWAP2 SWAP1 PUSH2 0x196E JUMP JUMPDEST PUSH1 0x40 MLOAD DUP1 SWAP2 SUB SWAP1 RETURN JUMPDEST CALLVALUE DUP1 ISZERO PUSH2 0x233 JUMPI PUSH1 0x0 DUP1 REVERT JUMPDEST POP PUSH2 0x24E PUSH1 0x4 DUP1 CALLDATASIZE SUB DUP2 ADD SWAP1 PUSH2 0x249 SWAP2 SWAP1 PUSH2 0x15BC JUMP JUMPDEST PUSH2 0x568 JUMP JUMPDEST STOP JUMPDEST CALLVALUE DUP1 ISZERO PUSH2 0x25C JUMPI PUSH1 0x0 DUP1 REVERT JUMPDEST POP PUSH2 0x265 PUSH2 0x6EC JUMP JUMPDEST STOP JUMPDEST CALLVALUE DUP1 ISZERO PUSH2 0x273 JUMPI PUSH1 0x0 DUP1 REVERT JUMPDEST POP PUSH2 0x28E PUSH1 0x4 DUP1 CALLDATASIZE SUB DUP2 ADD SWAP1 PUSH2 0x289 SWAP2 SWAP1 PUSH2 0x156F JUMP JUMPDEST PUSH2 0x741 JUMP JUMPDEST STOP JUMPDEST PUSH2 0x2AA PUSH1 0x4 DUP1 CALLDATASIZE SUB DUP2 ADD SWAP1 PUSH2 0x2A5 SWAP2 SWAP1 PUSH2 0x1616 JUMP JUMPDEST PUSH2 0xB01 JUMP JUMPDEST PUSH1 0x40 MLOAD PUSH2 0x2B7 SWAP2 SWAP1 PUSH2 0x1B77 JUMP JUMPDEST PUSH1 0x40 MLOAD DUP1 SWAP2 SUB SWAP1 RETURN JUMPDEST CALLVALUE DUP1 ISZERO PUSH2 0x2CC JUMPI PUSH1 0x0 DUP1 REVERT JUMPDEST POP PUSH2 0x2D5 PUSH2 0xE04 JUMP JUMPDEST PUSH1 0x40 MLOAD PUSH2 0x2E2 SWAP2 SWAP1 PUSH2 0x196E JUMP JUMPDEST PUSH1 0x40 MLOAD DUP1 SWAP2 SUB SWAP1 RETURN JUMPDEST CALLVALUE DUP1 ISZERO PUSH2 0x2F7 JUMPI PUSH1 0x0 DUP1 REVERT JUMPDEST POP PUSH2 0x300 PUSH2 0xE1C JUMP JUMPDEST PUSH1 0x40 MLOAD PUSH2 0x30D SWAP2 SWAP1 PUSH2 0x1A8D JUMP JUMPDEST PUSH1 0x40 MLOAD DUP1 SWAP2 SUB SWAP1 RETURN JUMPDEST CALLVALUE DUP1 ISZERO PUSH2 0x322 JUMPI PUSH1 0x0 DUP1 REVERT JUMPDEST POP PUSH2 0x33D PUSH1 0x4 DUP1 CALLDATASIZE SUB DUP2 ADD SWAP1 PUSH2 0x338 SWAP2 SWAP1 PUSH2 0x156F JUMP JUMPDEST PUSH2 0xE42 JUMP JUMPDEST PUSH1 0x40 MLOAD PUSH2 0x34B SWAP3 SWAP2 SWAP1 PUSH2 0x1A3B JUMP JUMPDEST PUSH1 0x40 MLOAD DUP1 SWAP2 SUB SWAP1 RETURN JUMPDEST CALLVALUE DUP1 ISZERO PUSH2 0x360 JUMPI PUSH1 0x0 DUP1 REVERT JUMPDEST POP PUSH2 0x369 PUSH2 0xFEA JUMP JUMPDEST PUSH1 0x40 MLOAD PUSH2 0x376 SWAP2 SWAP1 PUSH2 0x1AC3 JUMP JUMPDEST PUSH1 0x40 MLOAD DUP1 SWAP2 SUB SWAP1 RETURN JUMPDEST CALLVALUE DUP1 ISZERO PUSH2 0x38B JUMPI PUSH1 0x0 DUP1 REVERT JUMPDEST POP PUSH2 0x394 PUSH2 0x1098 JUMP JUMPDEST PUSH1 0x40 MLOAD PUSH2 0x3A1 SWAP2 SWAP1 PUSH2 0x1B77 JUMP JUMPDEST PUSH1 0x40 MLOAD DUP1 SWAP2 SUB SWAP1 RETURN JUMPDEST CALLVALUE DUP1 ISZERO PUSH2 0x3B6 JUMPI PUSH1 0x0 DUP1 REVERT JUMPDEST POP PUSH2 0x3BF PUSH2 0x109E JUMP JUMPDEST PUSH1 0x40 MLOAD PUSH2 0x3CC SWAP2 SWAP1 PUSH2 0x1B77 JUMP JUMPDEST PUSH1 0x40 MLOAD DUP1 SWAP2 SUB SWAP1 RETURN JUMPDEST CALLVALUE DUP1 ISZERO PUSH2 0x3E1 JUMPI PUSH1 0x0 DUP1 REVERT JUMPDEST POP PUSH2 0x3EA PUSH2 0x1172 JUMP JUMPDEST STOP JUMPDEST CALLVALUE DUP1 ISZERO PUSH2 0x3F8 JUMPI PUSH1 0x0 DUP1 REVERT JUMPDEST POP PUSH2 0x401 PUSH2 0x124C JUMP JUMPDEST PUSH1 0x40 MLOAD PUSH2 0x40E SWAP2 SWAP1 PUSH2 0x1B77 JUMP JUMPDEST PUSH1 0x40 MLOAD DUP1 SWAP2 SUB SWAP1 RETURN JUMPDEST CALLVALUE DUP1 ISZERO PUSH2 0x423 JUMPI PUSH1 0x0 DUP1 REVERT JUMPDEST POP PUSH2 0x42C PUSH2 0x1252 JUMP JUMPDEST PUSH1 0x40 MLOAD PUSH2 0x439 SWAP2 SWAP1 PUSH2 0x196E JUMP JUMPDEST PUSH1 0x40 MLOAD DUP1 SWAP2 SUB SWAP1 RETURN JUMPDEST CALLVALUE DUP1 ISZERO PUSH2 0x44E JUMPI PUSH1 0x0 DUP1 REVERT JUMPDEST POP PUSH2 0x469 PUSH1 0x4 DUP1 CALLDATASIZE SUB DUP2 ADD SWAP1 PUSH2 0x464 SWAP2 SWAP1 PUSH2 0x15BC JUMP JUMPDEST PUSH2 0x126A JUMP JUMPDEST PUSH1 0x40 MLOAD PUSH2 0x476 SWAP2 SWAP1 PUSH2 0x1B77 JUMP JUMPDEST PUSH1 0x40 MLOAD DUP1 SWAP2 SUB SWAP1 RETURN JUMPDEST CALLVALUE DUP1 ISZERO PUSH2 0x48B JUMPI PUSH1 0x0 DUP1 REVERT JUMPDEST POP PUSH2 0x494 PUSH2 0x128E JUMP JUMPDEST PUSH1 0x40 MLOAD PUSH2 0x4A1 SWAP2 SWAP1 PUSH2 0x1AA8 JUMP JUMPDEST PUSH1 0x40 MLOAD DUP1 SWAP2 SUB SWAP1 RETURN JUMPDEST PUSH2 0x4B2 PUSH2 0x12B2 JUMP JUMPDEST STOP JUMPDEST CALLVALUE DUP1 ISZERO PUSH2 0x4C0 JUMPI PUSH1 0x0 DUP1 REVERT JUMPDEST POP PUSH2 0x4C9 PUSH2 0x12B4 JUMP JUMPDEST PUSH1 0x40 MLOAD PUSH2 0x4D6 SWAP2 SWAP1 PUSH2 0x1C00 JUMP JUMPDEST PUSH1 0x40 MLOAD DUP1 SWAP2 SUB SWAP1 RETURN JUMPDEST PUSH2 0x4F9 PUSH1 0x4 DUP1 CALLDATASIZE SUB DUP2 ADD SWAP1 PUSH2 0x4F4 SWAP2 SWAP1 PUSH2 0x15BC JUMP JUMPDEST PUSH2 0x135A JUMP JUMPDEST STOP JUMPDEST PUSH1 0x3 SLOAD DUP2 JUMP JUMPDEST PUSH2 0xBB8 DUP2 JUMP JUMPDEST PUSH1 0x0 SELFBALANCE SWAP1 POP SWAP1 JUMP JUMPDEST PUSH1 0x0 DUP1 PUSH2 0x51A PUSH2 0xFEA JUMP JUMPDEST SWAP1 POP PUSH1 0x0 PUSH2 0x526 PUSH2 0x12B4 JUMP JUMPDEST SWAP1 POP PUSH1 0x0 DUP2 PUSH1 0xFF AND PUSH1 0xA PUSH2 0x53A SWAP2 SWAP1 PUSH2 0x1CE1 JUMP JUMPDEST DUP4 PUSH2 0x545 SWAP2 SWAP1 PUSH2 0x1C5D JUMP JUMPDEST SWAP1 POP DUP1 SWAP4 POP POP POP POP SWAP1 JUMP JUMPDEST PUSH20 0xE592427A0AECE92DE3EDEE1F18E0157C05861564 DUP2 JUMP JUMPDEST DUP1 PUSH20 0x9C3C9283D3E44854697CD22D3FAA240CFB032889 PUSH20 0xFFFFFFFFFFFFFFFFFFFFFFFFFFFFFFFFFFFFFFFF AND PUSH4 0x70A08231 ADDRESS PUSH1 0x40 MLOAD DUP3 PUSH4 0xFFFFFFFF AND PUSH1 0xE0 SHL DUP2 MSTORE PUSH1 0x4 ADD PUSH2 0x5B6 SWAP2 SWAP1 PUSH2 0x196E JUMP JUMPDEST PUSH1 0x20 PUSH1 0x40 MLOAD DUP1 DUP4 SUB DUP2 DUP7 DUP1 EXTCODESIZE ISZERO DUP1 ISZERO PUSH2 0x5CE JUMPI PUSH1 0x0 DUP1 REVERT JUMPDEST POP GAS STATICCALL ISZERO DUP1 ISZERO PUSH2 0x5E2 JUMPI RETURNDATASIZE PUSH1 0x0 DUP1 RETURNDATACOPY RETURNDATASIZE PUSH1 0x0 REVERT JUMPDEST POP POP POP POP PUSH1 0x40 MLOAD RETURNDATASIZE PUSH1 0x1F NOT PUSH1 0x1F DUP3 ADD AND DUP3 ADD DUP1 PUSH1 0x40 MSTORE POP DUP2 ADD SWAP1 PUSH2 0x606 SWAP2 SWAP1 PUSH2 0x15E9 JUMP JUMPDEST LT ISZERO PUSH2 0x647 JUMPI PUSH1 0x40 MLOAD PUSH32 0x8C379A000000000000000000000000000000000000000000000000000000000 DUP2 MSTORE PUSH1 0x4 ADD PUSH2 0x63E SWAP1 PUSH2 0x1B00 JUMP JUMPDEST PUSH1 0x40 MLOAD DUP1 SWAP2 SUB SWAP1 REVERT JUMPDEST PUSH20 0x9C3C9283D3E44854697CD22D3FAA240CFB032889 PUSH20 0xFFFFFFFFFFFFFFFFFFFFFFFFFFFFFFFFFFFFFFFF AND PUSH4 0xA9059CBB CALLER DUP4 PUSH1 0x40 MLOAD DUP4 PUSH4 0xFFFFFFFF AND PUSH1 0xE0 SHL DUP2 MSTORE PUSH1 0x4 ADD PUSH2 0x696 SWAP3 SWAP2 SWAP1 PUSH2 0x1A12 JUMP JUMPDEST PUSH1 0x20 PUSH1 0x40 MLOAD DUP1 DUP4 SUB DUP2 PUSH1 0x0 DUP8 DUP1 EXTCODESIZE ISZERO DUP1 ISZERO PUSH2 0x6B0 JUMPI PUSH1 0x0 DUP1 REVERT JUMPDEST POP GAS CALL ISZERO DUP1 ISZERO PUSH2 0x6C4 JUMPI RETURNDATASIZE PUSH1 0x0 DUP1 RETURNDATACOPY RETURNDATASIZE PUSH1 0x0 REVERT JUMPDEST POP POP POP POP PUSH1 0x40 MLOAD RETURNDATASIZE PUSH1 0x1F NOT PUSH1 0x1F DUP3 ADD AND DUP3 ADD DUP1 PUSH1 0x40 MSTORE POP DUP2 ADD SWAP1 PUSH2 0x6E8 SWAP2 SWAP1 PUSH2 0x1542 JUMP JUMPDEST POP POP JUMP JUMPDEST PUSH1 0x0 CALLER SWAP1 POP PUSH1 0x0 SELFBALANCE SWAP1 POP DUP2 PUSH20 0xFFFFFFFFFFFFFFFFFFFFFFFFFFFFFFFFFFFFFFFF AND PUSH2 0x8FC DUP3 SWAP1 DUP2 ISZERO MUL SWAP1 PUSH1 0x40 MLOAD PUSH1 0x0 PUSH1 0x40 MLOAD DUP1 DUP4 SUB DUP2 DUP6 DUP9 DUP9 CALL SWAP4 POP POP POP POP ISZERO DUP1 ISZERO PUSH2 0x73C JUMPI RETURNDATASIZE PUSH1 0x0 DUP1 RETURNDATACOPY RETURNDATASIZE PUSH1 0x0 REVERT JUMPDEST POP POP POP JUMP JUMPDEST PUSH1 0x0 DUP1 DUP1 DUP5 DUP5 DUP2 ADD SWAP1 PUSH2 0x754 SWAP2 SWAP1 PUSH2 0x1669 JUMP JUMPDEST SWAP2 POP SWAP2 POP DUP1 ISZERO PUSH2 0x9B0 JUMPI PUSH1 0x1 PUSH1 0x2 PUSH1 0x0 DUP5 DUP2 MSTORE PUSH1 0x20 ADD SWAP1 DUP2 MSTORE PUSH1 0x20 ADD PUSH1 0x0 KECCAK256 PUSH1 0x0 PUSH2 0x100 EXP DUP2 SLOAD DUP2 PUSH1 0xFF MUL NOT AND SWAP1 DUP4 ISZERO ISZERO MUL OR SWAP1 SSTORE POP PUSH1 0x3 PUSH1 0x0 DUP2 SLOAD DUP1 SWAP3 SWAP2 SWAP1 PUSH2 0x79D SWAP1 PUSH2 0x1F75 JUMP JUMPDEST SWAP2 SWAP1 POP SSTORE POP PUSH1 0x0 DUP3 GT DUP1 ISZERO PUSH2 0x7DC JUMPI POP PUSH1 0x2 PUSH1 0x0 PUSH1 0x1 DUP5 PUSH2 0x7BE SWAP2 SWAP1 PUSH2 0x1DFF JUMP JUMPDEST DUP2 MSTORE PUSH1 0x20 ADD SWAP1 DUP2 MSTORE PUSH1 0x20 ADD PUSH1 0x0 KECCAK256 PUSH1 0x0 SWAP1 SLOAD SWAP1 PUSH2 0x100 EXP SWAP1 DIV PUSH1 0xFF AND ISZERO JUMPDEST ISZERO PUSH2 0x89B JUMPI PUSH1 0x4 PUSH1 0x0 DUP2 SLOAD DUP1 SWAP3 SWAP2 SWAP1 PUSH2 0x7F4 SWAP1 PUSH2 0x1F75 JUMP JUMPDEST SWAP2 SWAP1 POP SSTORE POP PUSH1 0x0 PUSH2 0x836 PUSH8 0x214E8348C4F0000 PUSH20 0x9C3C9283D3E44854697CD22D3FAA240CFB032889 PUSH20 0xA6FA4FB5F76172D178D61B04B0ECD319C5D1C0AA PUSH2 0xB01 JUMP JUMPDEST SWAP1 POP DUP1 PUSH1 0x6 PUSH1 0x0 DUP6 DUP2 MSTORE PUSH1 0x20 ADD SWAP1 DUP2 MSTORE PUSH1 0x20 ADD PUSH1 0x0 KECCAK256 DUP2 SWAP1 SSTORE POP PUSH32 0x4DD189D126BC54EDEFED41708FDDF7028D7043657C8888914503A07DF469E82C DUP4 PUSH1 0x1 DUP4 PUSH2 0x87D PUSH2 0x50F JUMP JUMPDEST PUSH1 0x40 MLOAD PUSH2 0x88D SWAP5 SWAP4 SWAP3 SWAP2 SWAP1 PUSH2 0x1BBB JUMP JUMPDEST PUSH1 0x40 MLOAD DUP1 SWAP2 SUB SWAP1 LOG1 POP PUSH2 0x9AB JUMP JUMPDEST PUSH1 0x6 PUSH1 0x0 PUSH1 0x1 DUP5 PUSH2 0x8AC SWAP2 SWAP1 PUSH2 0x1DFF JUMP JUMPDEST DUP2 MSTORE PUSH1 0x20 ADD SWAP1 DUP2 MSTORE PUSH1 0x20 ADD PUSH1 0x0 KECCAK256 SLOAD SWAP3 POP PUSH1 0x0 DUP4 GT ISZERO PUSH2 0x9AA JUMPI PUSH1 0x6 PUSH1 0x0 PUSH1 0x1 DUP5 PUSH2 0x8D7 SWAP2 SWAP1 PUSH2 0x1DFF JUMP JUMPDEST DUP2 MSTORE PUSH1 0x20 ADD SWAP1 DUP2 MSTORE PUSH1 0x20 ADD PUSH1 0x0 KECCAK256 PUSH1 0x0 SWAP1 SSTORE PUSH1 0x2 PUSH1 0x0 PUSH1 0x1 DUP5 PUSH2 0x8FA SWAP2 SWAP1 PUSH2 0x1DFF JUMP JUMPDEST DUP2 MSTORE PUSH1 0x20 ADD SWAP1 DUP2 MSTORE PUSH1 0x20 ADD PUSH1 0x0 KECCAK256 PUSH1 0x0 PUSH2 0x100 EXP DUP2 SLOAD SWAP1 PUSH1 0xFF MUL NOT AND SWAP1 SSTORE PUSH1 0x5 PUSH1 0x0 DUP2 SLOAD DUP1 SWAP3 SWAP2 SWAP1 PUSH2 0x92B SWAP1 PUSH2 0x1F75 JUMP JUMPDEST SWAP2 SWAP1 POP SSTORE POP PUSH2 0x963 DUP4 PUSH20 0xA6FA4FB5F76172D178D61B04B0ECD319C5D1C0AA PUSH20 0x9C3C9283D3E44854697CD22D3FAA240CFB032889 PUSH2 0xB01 JUMP JUMPDEST POP PUSH32 0x4DD189D126BC54EDEFED41708FDDF7028D7043657C8888914503A07DF469E82C DUP3 PUSH1 0x0 DUP6 PUSH2 0x991 PUSH2 0x50F JUMP JUMPDEST PUSH1 0x40 MLOAD PUSH2 0x9A1 SWAP5 SWAP4 SWAP3 SWAP2 SWAP1 PUSH2 0x1BBB JUMP JUMPDEST PUSH1 0x40 MLOAD DUP1 SWAP2 SUB SWAP1 LOG1 JUMPDEST JUMPDEST PUSH2 0xAF3 JUMP JUMPDEST PUSH1 0x2 PUSH1 0x0 PUSH1 0x1 DUP5 PUSH2 0x9C1 SWAP2 SWAP1 PUSH2 0x1DFF JUMP JUMPDEST DUP2 MSTORE PUSH1 0x20 ADD SWAP1 DUP2 MSTORE PUSH1 0x20 ADD PUSH1 0x0 KECCAK256 PUSH1 0x0 SWAP1 SLOAD SWAP1 PUSH2 0x100 EXP SWAP1 DIV PUSH1 0xFF AND ISZERO PUSH2 0xAF2 JUMPI PUSH1 0x6 PUSH1 0x0 PUSH1 0x1 DUP5 PUSH2 0x9F3 SWAP2 SWAP1 PUSH2 0x1DFF JUMP JUMPDEST DUP2 MSTORE PUSH1 0x20 ADD SWAP1 DUP2 MSTORE PUSH1 0x20 ADD PUSH1 0x0 KECCAK256 SLOAD SWAP3 POP PUSH1 0x0 DUP4 GT ISZERO PUSH2 0xAF1 JUMPI PUSH1 0x6 PUSH1 0x0 PUSH1 0x1 DUP5 PUSH2 0xA1E SWAP2 SWAP1 PUSH2 0x1DFF JUMP JUMPDEST DUP2 MSTORE PUSH1 0x20 ADD SWAP1 DUP2 MSTORE PUSH1 0x20 ADD PUSH1 0x0 KECCAK256 PUSH1 0x0 SWAP1 SSTORE PUSH1 0x2 PUSH1 0x0 PUSH1 0x1 DUP5 PUSH2 0xA41 SWAP2 SWAP1 PUSH2 0x1DFF JUMP JUMPDEST DUP2 MSTORE PUSH1 0x20 ADD SWAP1 DUP2 MSTORE PUSH1 0x20 ADD PUSH1 0x0 KECCAK256 PUSH1 0x0 PUSH2 0x100 EXP DUP2 SLOAD SWAP1 PUSH1 0xFF MUL NOT AND SWAP1 SSTORE PUSH1 0x5 PUSH1 0x0 DUP2 SLOAD DUP1 SWAP3 SWAP2 SWAP1 PUSH2 0xA72 SWAP1 PUSH2 0x1F75 JUMP JUMPDEST SWAP2 SWAP1 POP SSTORE POP PUSH2 0xAAA DUP4 PUSH20 0xA6FA4FB5F76172D178D61B04B0ECD319C5D1C0AA PUSH20 0x9C3C9283D3E44854697CD22D3FAA240CFB032889 PUSH2 0xB01 JUMP JUMPDEST POP PUSH32 0x4DD189D126BC54EDEFED41708FDDF7028D7043657C8888914503A07DF469E82C DUP3 PUSH1 0x0 DUP6 PUSH2 0xAD8 PUSH2 0x50F JUMP JUMPDEST PUSH1 0x40 MLOAD PUSH2 0xAE8 SWAP5 SWAP4 SWAP3 SWAP2 SWAP1 PUSH2 0x1BBB JUMP JUMPDEST PUSH1 0x40 MLOAD DUP1 SWAP2 SUB SWAP1 LOG1 JUMPDEST JUMPDEST JUMPDEST TIMESTAMP PUSH1 0x7 DUP2 SWAP1 SSTORE POP POP POP POP POP POP JUMP JUMPDEST PUSH1 0x0 PUSH1 0x9 PUSH1 0x0 SWAP1 SLOAD SWAP1 PUSH2 0x100 EXP SWAP1 DIV PUSH20 0xFFFFFFFFFFFFFFFFFFFFFFFFFFFFFFFFFFFFFFFF AND PUSH20 0xFFFFFFFFFFFFFFFFFFFFFFFFFFFFFFFFFFFFFFFF AND PUSH4 0x95EA7B3 PUSH32 0x0 DUP7 PUSH1 0x40 MLOAD DUP4 PUSH4 0xFFFFFFFF AND PUSH1 0xE0 SHL DUP2 MSTORE PUSH1 0x4 ADD PUSH2 0xB80 SWAP3 SWAP2 SWAP1 PUSH2 0x1A12 JUMP JUMPDEST PUSH1 0x20 PUSH1 0x40 MLOAD DUP1 DUP4 SUB DUP2 PUSH1 0x0 DUP8 DUP1 EXTCODESIZE ISZERO DUP1 ISZERO PUSH2 0xB9A JUMPI PUSH1 0x0 DUP1 REVERT JUMPDEST POP GAS CALL ISZERO DUP1 ISZERO PUSH2 0xBAE JUMPI RETURNDATASIZE PUSH1 0x0 DUP1 RETURNDATACOPY RETURNDATASIZE PUSH1 0x0 REVERT JUMPDEST POP POP POP POP PUSH1 0x40 MLOAD RETURNDATASIZE PUSH1 0x1F NOT PUSH1 0x1F DUP3 ADD AND DUP3 ADD DUP1 PUSH1 0x40 MSTORE POP DUP2 ADD SWAP1 PUSH2 0xBD2 SWAP2 SWAP1 PUSH2 0x1542 JUMP JUMPDEST POP PUSH1 0x0 PUSH1 0x40 MLOAD DUP1 PUSH2 0x100 ADD PUSH1 0x40 MSTORE DUP1 DUP6 PUSH20 0xFFFFFFFFFFFFFFFFFFFFFFFFFFFFFFFFFFFFFFFF AND DUP2 MSTORE PUSH1 0x20 ADD DUP5 PUSH20 0xFFFFFFFFFFFFFFFFFFFFFFFFFFFFFFFFFFFFFFFF AND DUP2 MSTORE PUSH1 0x20 ADD PUSH2 0xBB8 PUSH3 0xFFFFFF AND DUP2 MSTORE PUSH1 0x20 ADD ADDRESS PUSH20 0xFFFFFFFFFFFFFFFFFFFFFFFFFFFFFFFFFFFFFFFF AND DUP2 MSTORE PUSH1 0x20 ADD TIMESTAMP DUP2 MSTORE PUSH1 0x20 ADD DUP7 DUP2 MSTORE PUSH1 0x20 ADD PUSH1 0x0 DUP2 MSTORE PUSH1 0x20 ADD PUSH1 0x0 PUSH20 0xFFFFFFFFFFFFFFFFFFFFFFFFFFFFFFFFFFFFFFFF AND DUP2 MSTORE POP SWAP1 POP PUSH32 0x0 PUSH20 0xFFFFFFFFFFFFFFFFFFFFFFFFFFFFFFFFFFFFFFFF AND PUSH4 0x414BF389 DUP3 PUSH1 0x40 MLOAD DUP3 PUSH4 0xFFFFFFFF AND PUSH1 0xE0 SHL DUP2 MSTORE PUSH1 0x4 ADD PUSH2 0xCCB SWAP2 SWAP1 PUSH2 0x1B40 JUMP JUMPDEST PUSH1 0x20 PUSH1 0x40 MLOAD DUP1 DUP4 SUB DUP2 PUSH1 0x0 DUP8 DUP1 EXTCODESIZE ISZERO DUP1 ISZERO PUSH2 0xCE5 JUMPI PUSH1 0x0 DUP1 REVERT JUMPDEST POP GAS CALL SWAP3 POP POP POP DUP1 ISZERO PUSH2 0xD16 JUMPI POP PUSH1 0x40 MLOAD RETURNDATASIZE PUSH1 0x1F NOT PUSH1 0x1F DUP3 ADD AND DUP3 ADD DUP1 PUSH1 0x40 MSTORE POP DUP2 ADD SWAP1 PUSH2 0xD13 SWAP2 SWAP1 PUSH2 0x15E9 JUMP JUMPDEST PUSH1 0x1 JUMPDEST PUSH2 0xDF1 JUMPI PUSH2 0xD22 PUSH2 0x207A JUMP JUMPDEST DUP1 PUSH4 0x8C379A0 EQ ISZERO PUSH2 0xD7F JUMPI POP PUSH2 0xD37 PUSH2 0x2132 JUMP JUMPDEST DUP1 PUSH2 0xD42 JUMPI POP PUSH2 0xD81 JUMP JUMPDEST PUSH32 0x81D03B083A6C8B385B5DD0A26081C4E095A4A552B17DC35036054153033AB0DB DUP2 PUSH1 0x40 MLOAD PUSH2 0xD71 SWAP2 SWAP1 PUSH2 0x1ADE JUMP JUMPDEST PUSH1 0x40 MLOAD DUP1 SWAP2 SUB SWAP1 LOG1 POP PUSH2 0xDEC JUMP JUMPDEST POP JUMPDEST RETURNDATASIZE DUP1 PUSH1 0x0 DUP2 EQ PUSH2 0xDAD JUMPI PUSH1 0x40 MLOAD SWAP2 POP PUSH1 0x1F NOT PUSH1 0x3F RETURNDATASIZE ADD AND DUP3 ADD PUSH1 0x40 MSTORE RETURNDATASIZE DUP3 MSTORE RETURNDATASIZE PUSH1 0x0 PUSH1 0x20 DUP5 ADD RETURNDATACOPY PUSH2 0xDB2 JUMP JUMPDEST PUSH1 0x60 SWAP2 POP JUMPDEST POP PUSH32 0x4B87BBD93BA65EDE1E2EFECA735D9F7A6720BF7D6DB0A8355B17DBA5B64E5783 DUP2 PUSH1 0x40 MLOAD PUSH2 0xDE2 SWAP2 SWAP1 PUSH2 0x1A6B JUMP JUMPDEST PUSH1 0x40 MLOAD DUP1 SWAP2 SUB SWAP1 LOG1 POP JUMPDEST PUSH2 0xDFB JUMP JUMPDEST DUP1 SWAP3 POP POP POP PUSH2 0xDFD JUMP JUMPDEST POP JUMPDEST SWAP4 SWAP3 POP POP POP JUMP JUMPDEST PUSH20 0x9C3C9283D3E44854697CD22D3FAA240CFB032889 DUP2 JUMP JUMPDEST PUSH1 0x9 PUSH1 0x0 SWAP1 SLOAD SWAP1 PUSH2 0x100 EXP SWAP1 DIV PUSH20 0xFFFFFFFFFFFFFFFFFFFFFFFFFFFFFFFFFFFFFFFF AND DUP2 JUMP JUMPDEST PUSH1 0x0 PUSH1 0x60 PUSH1 0x0 PUSH2 0xE50 PUSH2 0x50F JUMP JUMPDEST SWAP1 POP PUSH1 0x0 PUSH32 0xFFFFFFFFFFFFFFFFFFFFFFFFFFFFFFFFFFFFFFFFFFFFFFFFFFFFFFFFFFFFFFFF SWAP1 POP PUSH1 0x0 PUSH1 0x1 DUP1 SLOAD SWAP1 POP SWAP1 POP PUSH1 0x0 JUMPDEST PUSH1 0x1 DUP1 SLOAD SWAP1 POP DUP2 LT ISZERO PUSH2 0xF37 JUMPI PUSH1 0x0 PUSH1 0x1 DUP3 DUP2 SLOAD DUP2 LT PUSH2 0xEA7 JUMPI PUSH2 0xEA6 PUSH2 0x201C JUMP JUMPDEST JUMPDEST SWAP1 PUSH1 0x0 MSTORE PUSH1 0x20 PUSH1 0x0 KECCAK256 ADD SLOAD DUP6 GT PUSH2 0xEE7 JUMPI DUP5 PUSH1 0x1 DUP4 DUP2 SLOAD DUP2 LT PUSH2 0xECD JUMPI PUSH2 0xECC PUSH2 0x201C JUMP JUMPDEST JUMPDEST SWAP1 PUSH1 0x0 MSTORE PUSH1 0x20 PUSH1 0x0 KECCAK256 ADD SLOAD PUSH2 0xEE2 SWAP2 SWAP1 PUSH2 0x1DFF JUMP JUMPDEST PUSH2 0xF12 JUMP JUMPDEST PUSH1 0x1 DUP3 DUP2 SLOAD DUP2 LT PUSH2 0xEFB JUMPI PUSH2 0xEFA PUSH2 0x201C JUMP JUMPDEST JUMPDEST SWAP1 PUSH1 0x0 MSTORE PUSH1 0x20 PUSH1 0x0 KECCAK256 ADD SLOAD DUP6 PUSH2 0xF11 SWAP2 SWAP1 PUSH2 0x1DFF JUMP JUMPDEST JUMPDEST SWAP1 POP DUP4 DUP2 LT ISZERO PUSH2 0xF23 JUMPI DUP1 SWAP4 POP DUP2 SWAP3 POP JUMPDEST POP DUP1 DUP1 PUSH2 0xF2F SWAP1 PUSH2 0x1F75 JUMP JUMPDEST SWAP2 POP POP PUSH2 0xE84 JUMP JUMPDEST POP PUSH1 0x0 PUSH1 0x8 SLOAD PUSH1 0x7 SLOAD TIMESTAMP PUSH2 0xF4B SWAP2 SWAP1 PUSH2 0x1DFF JUMP JUMPDEST GT SWAP1 POP PUSH1 0x2 DUP4 GT ISZERO DUP1 ISZERO PUSH2 0xF5C JUMPI POP DUP1 JUMPDEST ISZERO PUSH2 0xFDF JUMPI PUSH1 0x2 PUSH1 0x0 DUP4 DUP2 MSTORE PUSH1 0x20 ADD SWAP1 DUP2 MSTORE PUSH1 0x20 ADD PUSH1 0x0 KECCAK256 PUSH1 0x0 SWAP1 SLOAD SWAP1 PUSH2 0x100 EXP SWAP1 DIV PUSH1 0xFF AND PUSH2 0xFB4 JUMPI PUSH1 0x1 SWAP6 POP DUP2 PUSH1 0x1 PUSH1 0x40 MLOAD PUSH1 0x20 ADD PUSH2 0xF9E SWAP3 SWAP2 SWAP1 PUSH2 0x1B92 JUMP JUMPDEST PUSH1 0x40 MLOAD PUSH1 0x20 DUP2 DUP4 SUB SUB DUP2 MSTORE SWAP1 PUSH1 0x40 MSTORE SWAP5 POP PUSH2 0xFDE JUMP JUMPDEST PUSH1 0x1 SWAP6 POP DUP2 PUSH1 0x0 PUSH1 0x40 MLOAD PUSH1 0x20 ADD PUSH2 0xFCC SWAP3 SWAP2 SWAP1 PUSH2 0x1B92 JUMP JUMPDEST PUSH1 0x40 MLOAD PUSH1 0x20 DUP2 DUP4 SUB SUB DUP2 MSTORE SWAP1 PUSH1 0x40 MSTORE SWAP5 POP JUMPDEST JUMPDEST POP POP POP POP SWAP3 POP SWAP3 SWAP1 POP JUMP JUMPDEST PUSH1 0x0 DUP1 PUSH1 0x0 DUP1 SLOAD SWAP1 PUSH2 0x100 EXP SWAP1 DIV PUSH20 0xFFFFFFFFFFFFFFFFFFFFFFFFFFFFFFFFFFFFFFFF AND PUSH20 0xFFFFFFFFFFFFFFFFFFFFFFFFFFFFFFFFFFFFFFFF AND PUSH4 0xFEAF968C PUSH1 0x40 MLOAD DUP2 PUSH4 0xFFFFFFFF AND PUSH1 0xE0 SHL DUP2 MSTORE PUSH1 0x4 ADD PUSH1 0xA0 PUSH1 0x40 MLOAD DUP1 DUP4 SUB DUP2 DUP7 DUP1 EXTCODESIZE ISZERO DUP1 ISZERO PUSH2 0x1053 JUMPI PUSH1 0x0 DUP1 REVERT JUMPDEST POP GAS STATICCALL ISZERO DUP1 ISZERO PUSH2 0x1067 JUMPI RETURNDATASIZE PUSH1 0x0 DUP1 RETURNDATACOPY RETURNDATASIZE PUSH1 0x0 REVERT JUMPDEST POP POP POP POP PUSH1 0x40 MLOAD RETURNDATASIZE PUSH1 0x1F NOT PUSH1 0x1F DUP3 ADD AND DUP3 ADD DUP1 PUSH1 0x40 MSTORE POP DUP2 ADD SWAP1 PUSH2 0x108B SWAP2 SWAP1 PUSH2 0x16A9 JUMP JUMPDEST POP POP POP SWAP2 POP POP DUP1 SWAP2 POP POP SWAP1 JUMP JUMPDEST PUSH1 0x4 SLOAD DUP2 JUMP JUMPDEST PUSH1 0x0 PUSH1 0x9 PUSH1 0x0 SWAP1 SLOAD SWAP1 PUSH2 0x100 EXP SWAP1 DIV PUSH20 0xFFFFFFFFFFFFFFFFFFFFFFFFFFFFFFFFFFFFFFFF AND PUSH20 0xFFFFFFFFFFFFFFFFFFFFFFFFFFFFFFFFFFFFFFFF AND PUSH4 0xDD62ED3E ADDRESS PUSH32 0x0 PUSH1 0x40 MLOAD DUP4 PUSH4 0xFFFFFFFF AND PUSH1 0xE0 SHL DUP2 MSTORE PUSH1 0x4 ADD PUSH2 0x111D SWAP3 SWAP2 SWAP1 PUSH2 0x1989 JUMP JUMPDEST PUSH1 0x20 PUSH1 0x40 MLOAD DUP1 DUP4 SUB DUP2 DUP7 DUP1 EXTCODESIZE ISZERO DUP1 ISZERO PUSH2 0x1135 JUMPI PUSH1 0x0 DUP1 REVERT JUMPDEST POP GAS STATICCALL ISZERO DUP1 ISZERO PUSH2 0x1149 JUMPI RETURNDATASIZE PUSH1 0x0 DUP1 RETURNDATACOPY RETURNDATASIZE PUSH1 0x0 REVERT JUMPDEST POP POP POP POP PUSH1 0x40 MLOAD RETURNDATASIZE PUSH1 0x1F NOT PUSH1 0x1F DUP3 ADD AND DUP3 ADD DUP1 PUSH1 0x40 MSTORE POP DUP2 ADD SWAP1 PUSH2 0x116D SWAP2 SWAP1 PUSH2 0x15E9 JUMP JUMPDEST SWAP1 POP SWAP1 JUMP JUMPDEST PUSH1 0x9 PUSH1 0x0 SWAP1 SLOAD SWAP1 PUSH2 0x100 EXP SWAP1 DIV PUSH20 0xFFFFFFFFFFFFFFFFFFFFFFFFFFFFFFFFFFFFFFFF AND PUSH20 0xFFFFFFFFFFFFFFFFFFFFFFFFFFFFFFFFFFFFFFFF AND PUSH4 0x95EA7B3 PUSH32 0x0 PUSH8 0x4563918244F40000 PUSH1 0x40 MLOAD DUP4 PUSH4 0xFFFFFFFF AND PUSH1 0xE0 SHL DUP2 MSTORE PUSH1 0x4 ADD PUSH2 0x11F7 SWAP3 SWAP2 SWAP1 PUSH2 0x19E9 JUMP JUMPDEST PUSH1 0x20 PUSH1 0x40 MLOAD DUP1 DUP4 SUB DUP2 PUSH1 0x0 DUP8 DUP1 EXTCODESIZE ISZERO DUP1 ISZERO PUSH2 0x1211 JUMPI PUSH1 0x0 DUP1 REVERT JUMPDEST POP GAS CALL ISZERO DUP1 ISZERO PUSH2 0x1225 JUMPI RETURNDATASIZE PUSH1 0x0 DUP1 RETURNDATACOPY RETURNDATASIZE PUSH1 0x0 REVERT JUMPDEST POP POP POP POP PUSH1 0x40 MLOAD RETURNDATASIZE PUSH1 0x1F NOT PUSH1 0x1F DUP3 ADD AND DUP3 ADD DUP1 PUSH1 0x40 MSTORE POP DUP2 ADD SWAP1 PUSH2 0x1249 SWAP2 SWAP1 PUSH2 0x1542 JUMP JUMPDEST POP JUMP JUMPDEST PUSH1 0x5 SLOAD DUP2 JUMP JUMPDEST PUSH20 0xA6FA4FB5F76172D178D61B04B0ECD319C5D1C0AA DUP2 JUMP JUMPDEST PUSH1 0x1 DUP2 DUP2 SLOAD DUP2 LT PUSH2 0x127A JUMPI PUSH1 0x0 DUP1 REVERT JUMPDEST SWAP1 PUSH1 0x0 MSTORE PUSH1 0x20 PUSH1 0x0 KECCAK256 ADD PUSH1 0x0 SWAP2 POP SWAP1 POP SLOAD DUP2 JUMP JUMPDEST PUSH32 0x0 DUP2 JUMP JUMPDEST JUMP JUMPDEST PUSH1 0x0 DUP1 PUSH1 0x0 SWAP1 SLOAD SWAP1 PUSH2 0x100 EXP SWAP1 DIV PUSH20 0xFFFFFFFFFFFFFFFFFFFFFFFFFFFFFFFFFFFFFFFF AND PUSH20 0xFFFFFFFFFFFFFFFFFFFFFFFFFFFFFFFFFFFFFFFF AND PUSH4 0x313CE567 PUSH1 0x40 MLOAD DUP2 PUSH4 0xFFFFFFFF AND PUSH1 0xE0 SHL DUP2 MSTORE PUSH1 0x4 ADD PUSH1 0x20 PUSH1 0x40 MLOAD DUP1 DUP4 SUB DUP2 DUP7 DUP1 EXTCODESIZE ISZERO DUP1 ISZERO PUSH2 0x131D JUMPI PUSH1 0x0 DUP1 REVERT JUMPDEST POP GAS STATICCALL ISZERO DUP1 ISZERO PUSH2 0x1331 JUMPI RETURNDATASIZE PUSH1 0x0 DUP1 RETURNDATACOPY RETURNDATASIZE PUSH1 0x0 REVERT JUMPDEST POP POP POP POP PUSH1 0x40 MLOAD RETURNDATASIZE PUSH1 0x1F NOT PUSH1 0x1F DUP3 ADD AND DUP3 ADD DUP1 PUSH1 0x40 MSTORE POP DUP2 ADD SWAP1 PUSH2 0x1355 SWAP2 SWAP1 PUSH2 0x1724 JUMP JUMPDEST SWAP1 POP SWAP1 JUMP JUMPDEST PUSH1 0x0 CALLVALUE EQ PUSH2 0x139D JUMPI PUSH1 0x40 MLOAD PUSH32 0x8C379A000000000000000000000000000000000000000000000000000000000 DUP2 MSTORE PUSH1 0x4 ADD PUSH2 0x1394 SWAP1 PUSH2 0x1B20 JUMP JUMPDEST PUSH1 0x40 MLOAD DUP1 SWAP2 SUB SWAP1 REVERT JUMPDEST PUSH20 0x9C3C9283D3E44854697CD22D3FAA240CFB032889 PUSH20 0xFFFFFFFFFFFFFFFFFFFFFFFFFFFFFFFFFFFFFFFF AND PUSH4 0x23B872DD CALLER ADDRESS DUP5 PUSH1 0x40 MLOAD DUP5 PUSH4 0xFFFFFFFF AND PUSH1 0xE0 SHL DUP2 MSTORE PUSH1 0x4 ADD PUSH2 0x13EE SWAP4 SWAP3 SWAP2 SWAP1 PUSH2 0x19B2 JUMP JUMPDEST PUSH1 0x20 PUSH1 0x40 MLOAD DUP1 DUP4 SUB DUP2 PUSH1 0x0 DUP8 DUP1 EXTCODESIZE ISZERO DUP1 ISZERO PUSH2 0x1408 JUMPI PUSH1 0x0 DUP1 REVERT JUMPDEST POP GAS CALL ISZERO DUP1 ISZERO PUSH2 0x141C JUMPI RETURNDATASIZE PUSH1 0x0 DUP1 RETURNDATACOPY RETURNDATASIZE PUSH1 0x0 REVERT JUMPDEST POP POP POP POP PUSH1 0x40 MLOAD RETURNDATASIZE PUSH1 0x1F NOT PUSH1 0x1F DUP3 ADD AND DUP3 ADD DUP1 PUSH1 0x40 MSTORE POP DUP2 ADD SWAP1 PUSH2 0x1440 SWAP2 SWAP1 PUSH2 0x1542 JUMP JUMPDEST POP POP JUMP JUMPDEST PUSH1 0x0 DUP2 CALLDATALOAD SWAP1 POP PUSH2 0x1453 DUP2 PUSH2 0x21C8 JUMP JUMPDEST SWAP3 SWAP2 POP POP JUMP JUMPDEST PUSH1 0x0 DUP2 CALLDATALOAD SWAP1 POP PUSH2 0x1468 DUP2 PUSH2 0x21DF JUMP JUMPDEST SWAP3 SWAP2 POP POP JUMP JUMPDEST PUSH1 0x0 DUP2 MLOAD SWAP1 POP PUSH2 0x147D DUP2 PUSH2 0x21DF JUMP JUMPDEST SWAP3 SWAP2 POP POP JUMP JUMPDEST PUSH1 0x0 DUP1 DUP4 PUSH1 0x1F DUP5 ADD SLT PUSH2 0x1499 JUMPI PUSH2 0x1498 PUSH2 0x20A1 JUMP JUMPDEST JUMPDEST DUP3 CALLDATALOAD SWAP1 POP PUSH8 0xFFFFFFFFFFFFFFFF DUP2 GT ISZERO PUSH2 0x14B6 JUMPI PUSH2 0x14B5 PUSH2 0x209C JUMP JUMPDEST JUMPDEST PUSH1 0x20 DUP4 ADD SWAP2 POP DUP4 PUSH1 0x1 DUP3 MUL DUP4 ADD GT ISZERO PUSH2 0x14D2 JUMPI PUSH2 0x14D1 PUSH2 0x20A6 JUMP JUMPDEST JUMPDEST SWAP3 POP SWAP3 SWAP1 POP JUMP JUMPDEST PUSH1 0x0 DUP2 MLOAD SWAP1 POP PUSH2 0x14E8 DUP2 PUSH2 0x21F6 JUMP JUMPDEST SWAP3 SWAP2 POP POP JUMP JUMPDEST PUSH1 0x0 DUP2 CALLDATALOAD SWAP1 POP PUSH2 0x14FD DUP2 PUSH2 0x220D JUMP JUMPDEST SWAP3 SWAP2 POP POP JUMP JUMPDEST PUSH1 0x0 DUP2 MLOAD SWAP1 POP PUSH2 0x1512 DUP2 PUSH2 0x220D JUMP JUMPDEST SWAP3 SWAP2 POP POP JUMP JUMPDEST PUSH1 0x0 DUP2 MLOAD SWAP1 POP PUSH2 0x1527 DUP2 PUSH2 0x223B JUMP JUMPDEST SWAP3 SWAP2 POP POP JUMP JUMPDEST PUSH1 0x0 DUP2 MLOAD SWAP1 POP PUSH2 0x153C DUP2 PUSH2 0x2224 JUMP JUMPDEST SWAP3 SWAP2 POP POP JUMP JUMPDEST PUSH1 0x0 PUSH1 0x20 DUP3 DUP5 SUB SLT ISZERO PUSH2 0x1558 JUMPI PUSH2 0x1557 PUSH2 0x20B0 JUMP JUMPDEST JUMPDEST PUSH1 0x0 PUSH2 0x1566 DUP5 DUP3 DUP6 ADD PUSH2 0x146E JUMP JUMPDEST SWAP2 POP POP SWAP3 SWAP2 POP POP JUMP JUMPDEST PUSH1 0x0 DUP1 PUSH1 0x20 DUP4 DUP6 SUB SLT ISZERO PUSH2 0x1586 JUMPI PUSH2 0x1585 PUSH2 0x20B0 JUMP JUMPDEST JUMPDEST PUSH1 0x0 DUP4 ADD CALLDATALOAD PUSH8 0xFFFFFFFFFFFFFFFF DUP2 GT ISZERO PUSH2 0x15A4 JUMPI PUSH2 0x15A3 PUSH2 0x20AB JUMP JUMPDEST JUMPDEST PUSH2 0x15B0 DUP6 DUP3 DUP7 ADD PUSH2 0x1483 JUMP JUMPDEST SWAP3 POP SWAP3 POP POP SWAP3 POP SWAP3 SWAP1 POP JUMP JUMPDEST PUSH1 0x0 PUSH1 0x20 DUP3 DUP5 SUB SLT ISZERO PUSH2 0x15D2 JUMPI PUSH2 0x15D1 PUSH2 0x20B0 JUMP JUMPDEST JUMPDEST PUSH1 0x0 PUSH2 0x15E0 DUP5 DUP3 DUP6 ADD PUSH2 0x14EE JUMP JUMPDEST SWAP2 POP POP SWAP3 SWAP2 POP POP JUMP JUMPDEST PUSH1 0x0 PUSH1 0x20 DUP3 DUP5 SUB SLT ISZERO PUSH2 0x15FF JUMPI PUSH2 0x15FE PUSH2 0x20B0 JUMP JUMPDEST JUMPDEST PUSH1 0x0 PUSH2 0x160D DUP5 DUP3 DUP6 ADD PUSH2 0x1503 JUMP JUMPDEST SWAP2 POP POP SWAP3 SWAP2 POP POP JUMP JUMPDEST PUSH1 0x0 DUP1 PUSH1 0x0 PUSH1 0x60 DUP5 DUP7 SUB SLT ISZERO PUSH2 0x162F JUMPI PUSH2 0x162E PUSH2 0x20B0 JUMP JUMPDEST JUMPDEST PUSH1 0x0 PUSH2 0x163D DUP7 DUP3 DUP8 ADD PUSH2 0x14EE JUMP JUMPDEST SWAP4 POP POP PUSH1 0x20 PUSH2 0x164E DUP7 DUP3 DUP8 ADD PUSH2 0x1444 JUMP JUMPDEST SWAP3 POP POP PUSH1 0x40 PUSH2 0x165F DUP7 DUP3 DUP8 ADD PUSH2 0x1444 JUMP JUMPDEST SWAP2 POP POP SWAP3 POP SWAP3 POP SWAP3 JUMP JUMPDEST PUSH1 0x0 DUP1 PUSH1 0x40 DUP4 DUP6 SUB SLT ISZERO PUSH2 0x1680 JUMPI PUSH2 0x167F PUSH2 0x20B0 JUMP JUMPDEST JUMPDEST PUSH1 0x0 PUSH2 0x168E DUP6 DUP3 DUP7 ADD PUSH2 0x14EE JUMP JUMPDEST SWAP3 POP POP PUSH1 0x20 PUSH2 0x169F DUP6 DUP3 DUP7 ADD PUSH2 0x1459 JUMP JUMPDEST SWAP2 POP POP SWAP3 POP SWAP3 SWAP1 POP JUMP JUMPDEST PUSH1 0x0 DUP1 PUSH1 0x0 DUP1 PUSH1 0x0 PUSH1 0xA0 DUP7 DUP9 SUB SLT ISZERO PUSH2 0x16C5 JUMPI PUSH2 0x16C4 PUSH2 0x20B0 JUMP JUMPDEST JUMPDEST PUSH1 0x0 PUSH2 0x16D3 DUP9 DUP3 DUP10 ADD PUSH2 0x1518 JUMP JUMPDEST SWAP6 POP POP PUSH1 0x20 PUSH2 0x16E4 DUP9 DUP3 DUP10 ADD PUSH2 0x14D9 JUMP JUMPDEST SWAP5 POP POP PUSH1 0x40 PUSH2 0x16F5 DUP9 DUP3 DUP10 ADD PUSH2 0x1503 JUMP JUMPDEST SWAP4 POP POP PUSH1 0x60 PUSH2 0x1706 DUP9 DUP3 DUP10 ADD PUSH2 0x1503 JUMP JUMPDEST SWAP3 POP POP PUSH1 0x80 PUSH2 0x1717 DUP9 DUP3 DUP10 ADD PUSH2 0x1518 JUMP JUMPDEST SWAP2 POP POP SWAP3 SWAP6 POP SWAP3 SWAP6 SWAP1 SWAP4 POP JUMP JUMPDEST PUSH1 0x0 PUSH1 0x20 DUP3 DUP5 SUB SLT ISZERO PUSH2 0x173A JUMPI PUSH2 0x1739 PUSH2 0x20B0 JUMP JUMPDEST JUMPDEST PUSH1 0x0 PUSH2 0x1748 DUP5 DUP3 DUP6 ADD PUSH2 0x152D JUMP JUMPDEST SWAP2 POP POP SWAP3 SWAP2 POP POP JUMP JUMPDEST PUSH2 0x175A DUP2 PUSH2 0x1E33 JUMP JUMPDEST DUP3 MSTORE POP POP JUMP JUMPDEST PUSH2 0x1769 DUP2 PUSH2 0x1E33 JUMP JUMPDEST DUP3 MSTORE POP POP JUMP JUMPDEST PUSH2 0x1778 DUP2 PUSH2 0x1E45 JUMP JUMPDEST DUP3 MSTORE POP POP JUMP JUMPDEST PUSH1 0x0 PUSH2 0x1789 DUP3 PUSH2 0x1C25 JUMP JUMPDEST PUSH2 0x1793 DUP2 DUP6 PUSH2 0x1C3B JUMP JUMPDEST SWAP4 POP PUSH2 0x17A3 DUP2 DUP6 PUSH1 0x20 DUP7 ADD PUSH2 0x1F11 JUMP JUMPDEST PUSH2 0x17AC DUP2 PUSH2 0x20B5 JUMP JUMPDEST DUP5 ADD SWAP2 POP POP SWAP3 SWAP2 POP POP JUMP JUMPDEST PUSH2 0x17C0 DUP2 PUSH2 0x1EB7 JUMP JUMPDEST DUP3 MSTORE POP POP JUMP JUMPDEST PUSH2 0x17CF DUP2 PUSH2 0x1EC9 JUMP JUMPDEST DUP3 MSTORE POP POP JUMP JUMPDEST PUSH2 0x17DE DUP2 PUSH2 0x1E51 JUMP JUMPDEST DUP3 MSTORE POP POP JUMP JUMPDEST PUSH2 0x17ED DUP2 PUSH2 0x1EDB JUMP JUMPDEST DUP3 MSTORE POP POP JUMP JUMPDEST PUSH1 0x0 PUSH2 0x17FE DUP3 PUSH2 0x1C30 JUMP JUMPDEST PUSH2 0x1808 DUP2 DUP6 PUSH2 0x1C4C JUMP JUMPDEST SWAP4 POP PUSH2 0x1818 DUP2 DUP6 PUSH1 0x20 DUP7 ADD PUSH2 0x1F11 JUMP JUMPDEST PUSH2 0x1821 DUP2 PUSH2 0x20B5 JUMP JUMPDEST DUP5 ADD SWAP2 POP POP SWAP3 SWAP2 POP POP JUMP JUMPDEST PUSH1 0x0 PUSH2 0x1839 PUSH1 0x14 DUP4 PUSH2 0x1C4C JUMP JUMPDEST SWAP2 POP PUSH2 0x1844 DUP3 PUSH2 0x20E0 JUMP JUMPDEST PUSH1 0x20 DUP3 ADD SWAP1 POP SWAP2 SWAP1 POP JUMP JUMPDEST PUSH1 0x0 PUSH2 0x185C PUSH1 0x10 DUP4 PUSH2 0x1C4C JUMP JUMPDEST SWAP2 POP PUSH2 0x1867 DUP3 PUSH2 0x2109 JUMP JUMPDEST PUSH1 0x20 DUP3 ADD SWAP1 POP SWAP2 SWAP1 POP JUMP JUMPDEST PUSH2 0x100 DUP3 ADD PUSH1 0x0 DUP3 ADD MLOAD PUSH2 0x1889 PUSH1 0x0 DUP6 ADD DUP3 PUSH2 0x1751 JUMP JUMPDEST POP PUSH1 0x20 DUP3 ADD MLOAD PUSH2 0x189C PUSH1 0x20 DUP6 ADD DUP3 PUSH2 0x1751 JUMP JUMPDEST POP PUSH1 0x40 DUP3 ADD MLOAD PUSH2 0x18AF PUSH1 0x40 DUP6 ADD DUP3 PUSH2 0x1923 JUMP JUMPDEST POP PUSH1 0x60 DUP3 ADD MLOAD PUSH2 0x18C2 PUSH1 0x60 DUP6 ADD DUP3 PUSH2 0x1751 JUMP JUMPDEST POP PUSH1 0x80 DUP3 ADD MLOAD PUSH2 0x18D5 PUSH1 0x80 DUP6 ADD DUP3 PUSH2 0x1941 JUMP JUMPDEST POP PUSH1 0xA0 DUP3 ADD MLOAD PUSH2 0x18E8 PUSH1 0xA0 DUP6 ADD DUP3 PUSH2 0x1941 JUMP JUMPDEST POP PUSH1 0xC0 DUP3 ADD MLOAD PUSH2 0x18FB PUSH1 0xC0 DUP6 ADD DUP3 PUSH2 0x1941 JUMP JUMPDEST POP PUSH1 0xE0 DUP3 ADD MLOAD PUSH2 0x190E PUSH1 0xE0 DUP6 ADD DUP3 PUSH2 0x1914 JUMP JUMPDEST POP POP POP POP JUMP JUMPDEST PUSH2 0x191D DUP2 PUSH2 0x1E5B JUMP JUMPDEST DUP3 MSTORE POP POP JUMP JUMPDEST PUSH2 0x192C DUP2 PUSH2 0x1E7B JUMP JUMPDEST DUP3 MSTORE POP POP JUMP JUMPDEST PUSH2 0x193B DUP2 PUSH2 0x1E7B JUMP JUMPDEST DUP3 MSTORE POP POP JUMP JUMPDEST PUSH2 0x194A DUP2 PUSH2 0x1E8A JUMP JUMPDEST DUP3 MSTORE POP POP JUMP JUMPDEST PUSH2 0x1959 DUP2 PUSH2 0x1E8A JUMP JUMPDEST DUP3 MSTORE POP POP JUMP JUMPDEST PUSH2 0x1968 DUP2 PUSH2 0x1E94 JUMP JUMPDEST DUP3 MSTORE POP POP JUMP JUMPDEST PUSH1 0x0 PUSH1 0x20 DUP3 ADD SWAP1 POP PUSH2 0x1983 PUSH1 0x0 DUP4 ADD DUP5 PUSH2 0x1760 JUMP JUMPDEST SWAP3 SWAP2 POP POP JUMP JUMPDEST PUSH1 0x0 PUSH1 0x40 DUP3 ADD SWAP1 POP PUSH2 0x199E PUSH1 0x0 DUP4 ADD DUP6 PUSH2 0x1760 JUMP JUMPDEST PUSH2 0x19AB PUSH1 0x20 DUP4 ADD DUP5 PUSH2 0x1760 JUMP JUMPDEST SWAP4 SWAP3 POP POP POP JUMP JUMPDEST PUSH1 0x0 PUSH1 0x60 DUP3 ADD SWAP1 POP PUSH2 0x19C7 PUSH1 0x0 DUP4 ADD DUP7 PUSH2 0x1760 JUMP JUMPDEST PUSH2 0x19D4 PUSH1 0x20 DUP4 ADD DUP6 PUSH2 0x1760 JUMP JUMPDEST PUSH2 0x19E1 PUSH1 0x40 DUP4 ADD DUP5 PUSH2 0x1950 JUMP JUMPDEST SWAP5 SWAP4 POP POP POP POP JUMP JUMPDEST PUSH1 0x0 PUSH1 0x40 DUP3 ADD SWAP1 POP PUSH2 0x19FE PUSH1 0x0 DUP4 ADD DUP6 PUSH2 0x1760 JUMP JUMPDEST PUSH2 0x1A0B PUSH1 0x20 DUP4 ADD DUP5 PUSH2 0x17E4 JUMP JUMPDEST SWAP4 SWAP3 POP POP POP JUMP JUMPDEST PUSH1 0x0 PUSH1 0x40 DUP3 ADD SWAP1 POP PUSH2 0x1A27 PUSH1 0x0 DUP4 ADD DUP6 PUSH2 0x1760 JUMP JUMPDEST PUSH2 0x1A34 PUSH1 0x20 DUP4 ADD DUP5 PUSH2 0x1950 JUMP JUMPDEST SWAP4 SWAP3 POP POP POP JUMP JUMPDEST PUSH1 0x0 PUSH1 0x40 DUP3 ADD SWAP1 POP PUSH2 0x1A50 PUSH1 0x0 DUP4 ADD DUP6 PUSH2 0x176F JUMP JUMPDEST DUP2 DUP2 SUB PUSH1 0x20 DUP4 ADD MSTORE PUSH2 0x1A62 DUP2 DUP5 PUSH2 0x177E JUMP JUMPDEST SWAP1 POP SWAP4 SWAP3 POP POP POP JUMP JUMPDEST PUSH1 0x0 PUSH1 0x20 DUP3 ADD SWAP1 POP DUP2 DUP2 SUB PUSH1 0x0 DUP4 ADD MSTORE PUSH2 0x1A85 DUP2 DUP5 PUSH2 0x177E JUMP JUMPDEST SWAP1 POP SWAP3 SWAP2 POP POP JUMP JUMPDEST PUSH1 0x0 PUSH1 0x20 DUP3 ADD SWAP1 POP PUSH2 0x1AA2 PUSH1 0x0 DUP4 ADD DUP5 PUSH2 0x17B7 JUMP JUMPDEST SWAP3 SWAP2 POP POP JUMP JUMPDEST PUSH1 0x0 PUSH1 0x20 DUP3 ADD SWAP1 POP PUSH2 0x1ABD PUSH1 0x0 DUP4 ADD DUP5 PUSH2 0x17C6 JUMP JUMPDEST SWAP3 SWAP2 POP POP JUMP JUMPDEST PUSH1 0x0 PUSH1 0x20 DUP3 ADD SWAP1 POP PUSH2 0x1AD8 PUSH1 0x0 DUP4 ADD DUP5 PUSH2 0x17D5 JUMP JUMPDEST SWAP3 SWAP2 POP POP JUMP JUMPDEST PUSH1 0x0 PUSH1 0x20 DUP3 ADD SWAP1 POP DUP2 DUP2 SUB PUSH1 0x0 DUP4 ADD MSTORE PUSH2 0x1AF8 DUP2 DUP5 PUSH2 0x17F3 JUMP JUMPDEST SWAP1 POP SWAP3 SWAP2 POP POP JUMP JUMPDEST PUSH1 0x0 PUSH1 0x20 DUP3 ADD SWAP1 POP DUP2 DUP2 SUB PUSH1 0x0 DUP4 ADD MSTORE PUSH2 0x1B19 DUP2 PUSH2 0x182C JUMP JUMPDEST SWAP1 POP SWAP2 SWAP1 POP JUMP JUMPDEST PUSH1 0x0 PUSH1 0x20 DUP3 ADD SWAP1 POP DUP2 DUP2 SUB PUSH1 0x0 DUP4 ADD MSTORE PUSH2 0x1B39 DUP2 PUSH2 0x184F JUMP JUMPDEST SWAP1 POP SWAP2 SWAP1 POP JUMP JUMPDEST PUSH1 0x0 PUSH2 0x100 DUP3 ADD SWAP1 POP PUSH2 0x1B56 PUSH1 0x0 DUP4 ADD DUP5 PUSH2 0x1872 JUMP JUMPDEST SWAP3 SWAP2 POP POP JUMP JUMPDEST PUSH1 0x0 PUSH1 0x20 DUP3 ADD SWAP1 POP PUSH2 0x1B71 PUSH1 0x0 DUP4 ADD DUP5 PUSH2 0x1932 JUMP JUMPDEST SWAP3 SWAP2 POP POP JUMP JUMPDEST PUSH1 0x0 PUSH1 0x20 DUP3 ADD SWAP1 POP PUSH2 0x1B8C PUSH1 0x0 DUP4 ADD DUP5 PUSH2 0x1950 JUMP JUMPDEST SWAP3 SWAP2 POP POP JUMP JUMPDEST PUSH1 0x0 PUSH1 0x40 DUP3 ADD SWAP1 POP PUSH2 0x1BA7 PUSH1 0x0 DUP4 ADD DUP6 PUSH2 0x1950 JUMP JUMPDEST PUSH2 0x1BB4 PUSH1 0x20 DUP4 ADD DUP5 PUSH2 0x176F JUMP JUMPDEST SWAP4 SWAP3 POP POP POP JUMP JUMPDEST PUSH1 0x0 PUSH1 0x80 DUP3 ADD SWAP1 POP PUSH2 0x1BD0 PUSH1 0x0 DUP4 ADD DUP8 PUSH2 0x1950 JUMP JUMPDEST PUSH2 0x1BDD PUSH1 0x20 DUP4 ADD DUP7 PUSH2 0x176F JUMP JUMPDEST PUSH2 0x1BEA PUSH1 0x40 DUP4 ADD DUP6 PUSH2 0x1950 JUMP JUMPDEST PUSH2 0x1BF7 PUSH1 0x60 DUP4 ADD DUP5 PUSH2 0x1950 JUMP JUMPDEST SWAP6 SWAP5 POP POP POP POP POP JUMP JUMPDEST PUSH1 0x0 PUSH1 0x20 DUP3 ADD SWAP1 POP PUSH2 0x1C15 PUSH1 0x0 DUP4 ADD DUP5 PUSH2 0x195F JUMP JUMPDEST SWAP3 SWAP2 POP POP JUMP JUMPDEST PUSH1 0x0 PUSH1 0x40 MLOAD SWAP1 POP SWAP1 JUMP JUMPDEST PUSH1 0x0 DUP2 MLOAD SWAP1 POP SWAP2 SWAP1 POP JUMP JUMPDEST PUSH1 0x0 DUP2 MLOAD SWAP1 POP SWAP2 SWAP1 POP JUMP JUMPDEST PUSH1 0x0 DUP3 DUP3 MSTORE PUSH1 0x20 DUP3 ADD SWAP1 POP SWAP3 SWAP2 POP POP JUMP JUMPDEST PUSH1 0x0 DUP3 DUP3 MSTORE PUSH1 0x20 DUP3 ADD SWAP1 POP SWAP3 SWAP2 POP POP JUMP JUMPDEST PUSH1 0x0 PUSH2 0x1C68 DUP3 PUSH2 0x1E8A JUMP JUMPDEST SWAP2 POP PUSH2 0x1C73 DUP4 PUSH2 0x1E8A JUMP JUMPDEST SWAP3 POP DUP3 PUSH2 0x1C83 JUMPI PUSH2 0x1C82 PUSH2 0x1FED JUMP JUMPDEST JUMPDEST DUP3 DUP3 DIV SWAP1 POP SWAP3 SWAP2 POP POP JUMP JUMPDEST PUSH1 0x0 DUP1 DUP3 SWAP2 POP DUP4 SWAP1 POP JUMPDEST PUSH1 0x1 DUP6 GT ISZERO PUSH2 0x1CD8 JUMPI DUP1 DUP7 DIV DUP2 GT ISZERO PUSH2 0x1CB4 JUMPI PUSH2 0x1CB3 PUSH2 0x1FBE JUMP JUMPDEST JUMPDEST PUSH1 0x1 DUP6 AND ISZERO PUSH2 0x1CC3 JUMPI DUP1 DUP3 MUL SWAP2 POP JUMPDEST DUP1 DUP2 MUL SWAP1 POP PUSH2 0x1CD1 DUP6 PUSH2 0x20C6 JUMP JUMPDEST SWAP5 POP PUSH2 0x1C98 JUMP JUMPDEST SWAP5 POP SWAP5 SWAP3 POP POP POP JUMP JUMPDEST PUSH1 0x0 PUSH2 0x1CEC DUP3 PUSH2 0x1E8A JUMP JUMPDEST SWAP2 POP PUSH2 0x1CF7 DUP4 PUSH2 0x1E8A JUMP JUMPDEST SWAP3 POP PUSH2 0x1D24 PUSH32 0xFFFFFFFFFFFFFFFFFFFFFFFFFFFFFFFFFFFFFFFFFFFFFFFFFFFFFFFFFFFFFFFF DUP5 DUP5 PUSH2 0x1D2C JUMP JUMPDEST SWAP1 POP SWAP3 SWAP2 POP POP JUMP JUMPDEST PUSH1 0x0 DUP3 PUSH2 0x1D3C JUMPI PUSH1 0x1 SWAP1 POP PUSH2 0x1DF8 JUMP JUMPDEST DUP2 PUSH2 0x1D4A JUMPI PUSH1 0x0 SWAP1 POP PUSH2 0x1DF8 JUMP JUMPDEST DUP2 PUSH1 0x1 DUP2 EQ PUSH2 0x1D60 JUMPI PUSH1 0x2 DUP2 EQ PUSH2 0x1D6A JUMPI PUSH2 0x1D99 JUMP JUMPDEST PUSH1 0x1 SWAP2 POP POP PUSH2 0x1DF8 JUMP JUMPDEST PUSH1 0xFF DUP5 GT ISZERO PUSH2 0x1D7C JUMPI PUSH2 0x1D7B PUSH2 0x1FBE JUMP JUMPDEST JUMPDEST DUP4 PUSH1 0x2 EXP SWAP2 POP DUP5 DUP3 GT ISZERO PUSH2 0x1D93 JUMPI PUSH2 0x1D92 PUSH2 0x1FBE JUMP JUMPDEST JUMPDEST POP PUSH2 0x1DF8 JUMP JUMPDEST POP PUSH1 0x20 DUP4 LT PUSH2 0x133 DUP4 LT AND PUSH1 0x4E DUP5 LT PUSH1 0xB DUP5 LT AND OR ISZERO PUSH2 0x1DCE JUMPI DUP3 DUP3 EXP SWAP1 POP DUP4 DUP2 GT ISZERO PUSH2 0x1DC9 JUMPI PUSH2 0x1DC8 PUSH2 0x1FBE JUMP JUMPDEST JUMPDEST PUSH2 0x1DF8 JUMP JUMPDEST PUSH2 0x1DDB DUP5 DUP5 DUP5 PUSH1 0x1 PUSH2 0x1C8E JUMP JUMPDEST SWAP3 POP SWAP1 POP DUP2 DUP5 DIV DUP2 GT ISZERO PUSH2 0x1DF2 JUMPI PUSH2 0x1DF1 PUSH2 0x1FBE JUMP JUMPDEST JUMPDEST DUP2 DUP2 MUL SWAP1 POP JUMPDEST SWAP4 SWAP3 POP POP POP JUMP JUMPDEST PUSH1 0x0 PUSH2 0x1E0A DUP3 PUSH2 0x1E8A JUMP JUMPDEST SWAP2 POP PUSH2 0x1E15 DUP4 PUSH2 0x1E8A JUMP JUMPDEST SWAP3 POP DUP3 DUP3 LT ISZERO PUSH2 0x1E28 JUMPI PUSH2 0x1E27 PUSH2 0x1FBE JUMP JUMPDEST JUMPDEST DUP3 DUP3 SUB SWAP1 POP SWAP3 SWAP2 POP POP JUMP JUMPDEST PUSH1 0x0 PUSH2 0x1E3E DUP3 PUSH2 0x1E5B JUMP JUMPDEST SWAP1 POP SWAP2 SWAP1 POP JUMP JUMPDEST PUSH1 0x0 DUP2 ISZERO ISZERO SWAP1 POP SWAP2 SWAP1 POP JUMP JUMPDEST PUSH1 0x0 DUP2 SWAP1 POP SWAP2 SWAP1 POP JUMP JUMPDEST PUSH1 0x0 PUSH20 0xFFFFFFFFFFFFFFFFFFFFFFFFFFFFFFFFFFFFFFFF DUP3 AND SWAP1 POP SWAP2 SWAP1 POP JUMP JUMPDEST PUSH1 0x0 PUSH3 0xFFFFFF DUP3 AND SWAP1 POP SWAP2 SWAP1 POP JUMP JUMPDEST PUSH1 0x0 DUP2 SWAP1 POP SWAP2 SWAP1 POP JUMP JUMPDEST PUSH1 0x0 PUSH1 0xFF DUP3 AND SWAP1 POP SWAP2 SWAP1 POP JUMP JUMPDEST PUSH1 0x0 PUSH10 0xFFFFFFFFFFFFFFFFFFFF DUP3 AND SWAP1 POP SWAP2 SWAP1 POP JUMP JUMPDEST PUSH1 0x0 PUSH2 0x1EC2 DUP3 PUSH2 0x1EED JUMP JUMPDEST SWAP1 POP SWAP2 SWAP1 POP JUMP JUMPDEST PUSH1 0x0 PUSH2 0x1ED4 DUP3 PUSH2 0x1EED JUMP JUMPDEST SWAP1 POP SWAP2 SWAP1 POP JUMP JUMPDEST PUSH1 0x0 PUSH2 0x1EE6 DUP3 PUSH2 0x1E8A JUMP JUMPDEST SWAP1 POP SWAP2 SWAP1 POP JUMP JUMPDEST PUSH1 0x0 PUSH2 0x1EF8 DUP3 PUSH2 0x1EFF JUMP JUMPDEST SWAP1 POP SWAP2 SWAP1 POP JUMP JUMPDEST PUSH1 0x0 PUSH2 0x1F0A DUP3 PUSH2 0x1E5B JUMP JUMPDEST SWAP1 POP SWAP2 SWAP1 POP JUMP JUMPDEST PUSH1 0x0 JUMPDEST DUP4 DUP2 LT ISZERO PUSH2 0x1F2F JUMPI DUP1 DUP3 ADD MLOAD DUP2 DUP5 ADD MSTORE PUSH1 0x20 DUP2 ADD SWAP1 POP PUSH2 0x1F14 JUMP JUMPDEST DUP4 DUP2 GT ISZERO PUSH2 0x1F3E JUMPI PUSH1 0x0 DUP5 DUP5 ADD MSTORE JUMPDEST POP POP POP POP JUMP JUMPDEST PUSH2 0x1F4D DUP3 PUSH2 0x20B5 JUMP JUMPDEST DUP2 ADD DUP2 DUP2 LT PUSH8 0xFFFFFFFFFFFFFFFF DUP3 GT OR ISZERO PUSH2 0x1F6C JUMPI PUSH2 0x1F6B PUSH2 0x204B JUMP JUMPDEST JUMPDEST DUP1 PUSH1 0x40 MSTORE POP POP POP JUMP JUMPDEST PUSH1 0x0 PUSH2 0x1F80 DUP3 PUSH2 0x1E8A JUMP JUMPDEST SWAP2 POP PUSH32 0xFFFFFFFFFFFFFFFFFFFFFFFFFFFFFFFFFFFFFFFFFFFFFFFFFFFFFFFFFFFFFFFF DUP3 EQ ISZERO PUSH2 0x1FB3 JUMPI PUSH2 0x1FB2 PUSH2 0x1FBE JUMP JUMPDEST JUMPDEST PUSH1 0x1 DUP3 ADD SWAP1 POP SWAP2 SWAP1 POP JUMP JUMPDEST PUSH32 0x4E487B7100000000000000000000000000000000000000000000000000000000 PUSH1 0x0 MSTORE PUSH1 0x11 PUSH1 0x4 MSTORE PUSH1 0x24 PUSH1 0x0 REVERT JUMPDEST PUSH32 0x4E487B7100000000000000000000000000000000000000000000000000000000 PUSH1 0x0 MSTORE PUSH1 0x12 PUSH1 0x4 MSTORE PUSH1 0x24 PUSH1 0x0 REVERT JUMPDEST PUSH32 0x4E487B7100000000000000000000000000000000000000000000000000000000 PUSH1 0x0 MSTORE PUSH1 0x32 PUSH1 0x4 MSTORE PUSH1 0x24 PUSH1 0x0 REVERT JUMPDEST PUSH32 0x4E487B7100000000000000000000000000000000000000000000000000000000 PUSH1 0x0 MSTORE PUSH1 0x41 PUSH1 0x4 MSTORE PUSH1 0x24 PUSH1 0x0 REVERT JUMPDEST PUSH1 0x0 PUSH1 0x3 RETURNDATASIZE GT ISZERO PUSH2 0x2099 JUMPI PUSH1 0x4 PUSH1 0x0 DUP1 RETURNDATACOPY PUSH2 0x2096 PUSH1 0x0 MLOAD PUSH2 0x20D3 JUMP JUMPDEST SWAP1 POP JUMPDEST SWAP1 JUMP JUMPDEST PUSH1 0x0 DUP1 REVERT JUMPDEST PUSH1 0x0 DUP1 REVERT JUMPDEST PUSH1 0x0 DUP1 REVERT JUMPDEST PUSH1 0x0 DUP1 REVERT JUMPDEST PUSH1 0x0 DUP1 REVERT JUMPDEST PUSH1 0x0 PUSH1 0x1F NOT PUSH1 0x1F DUP4 ADD AND SWAP1 POP SWAP2 SWAP1 POP JUMP JUMPDEST PUSH1 0x0 DUP2 PUSH1 0x1 SHR SWAP1 POP SWAP2 SWAP1 POP JUMP JUMPDEST PUSH1 0x0 DUP2 PUSH1 0xE0 SHR SWAP1 POP SWAP2 SWAP1 POP JUMP JUMPDEST PUSH32 0x496E73756666696369656E742062616C616E6365000000000000000000000000 PUSH1 0x0 DUP3 ADD MSTORE POP JUMP JUMPDEST PUSH32 0x455448206E6F7420616363657074656400000000000000000000000000000000 PUSH1 0x0 DUP3 ADD MSTORE POP JUMP JUMPDEST PUSH1 0x0 PUSH1 0x44 RETURNDATASIZE LT ISZERO PUSH2 0x2142 JUMPI PUSH2 0x21C5 JUMP JUMPDEST PUSH2 0x214A PUSH2 0x1C1B JUMP JUMPDEST PUSH1 0x4 RETURNDATASIZE SUB PUSH1 0x4 DUP3 RETURNDATACOPY DUP1 MLOAD RETURNDATASIZE PUSH1 0x24 DUP3 ADD GT PUSH8 0xFFFFFFFFFFFFFFFF DUP3 GT OR ISZERO PUSH2 0x2172 JUMPI POP POP PUSH2 0x21C5 JUMP JUMPDEST DUP1 DUP3 ADD DUP1 MLOAD PUSH8 0xFFFFFFFFFFFFFFFF DUP2 GT ISZERO PUSH2 0x2190 JUMPI POP POP POP POP PUSH2 0x21C5 JUMP JUMPDEST DUP1 PUSH1 0x20 DUP4 ADD ADD PUSH1 0x4 RETURNDATASIZE SUB DUP6 ADD DUP2 GT ISZERO PUSH2 0x21AD JUMPI POP POP POP POP POP PUSH2 0x21C5 JUMP JUMPDEST PUSH2 0x21BC DUP3 PUSH1 0x20 ADD DUP6 ADD DUP7 PUSH2 0x1F44 JUMP JUMPDEST DUP3 SWAP6 POP POP POP POP POP POP JUMPDEST SWAP1 JUMP JUMPDEST PUSH2 0x21D1 DUP2 PUSH2 0x1E33 JUMP JUMPDEST DUP2 EQ PUSH2 0x21DC JUMPI PUSH1 0x0 DUP1 REVERT JUMPDEST POP JUMP JUMPDEST PUSH2 0x21E8 DUP2 PUSH2 0x1E45 JUMP JUMPDEST DUP2 EQ PUSH2 0x21F3 JUMPI PUSH1 0x0 DUP1 REVERT JUMPDEST POP JUMP JUMPDEST PUSH2 0x21FF DUP2 PUSH2 0x1E51 JUMP JUMPDEST DUP2 EQ PUSH2 0x220A JUMPI PUSH1 0x0 DUP1 REVERT JUMPDEST POP JUMP JUMPDEST PUSH2 0x2216 DUP2 PUSH2 0x1E8A JUMP JUMPDEST DUP2 EQ PUSH2 0x2221 JUMPI PUSH1 0x0 DUP1 REVERT JUMPDEST POP JUMP JUMPDEST PUSH2 0x222D DUP2 PUSH2 0x1E94 JUMP JUMPDEST DUP2 EQ PUSH2 0x2238 JUMPI PUSH1 0x0 DUP1 REVERT JUMPDEST POP JUMP JUMPDEST PUSH2 0x2244 DUP2 PUSH2 0x1EA1 JUMP JUMPDEST DUP2 EQ PUSH2 0x224F JUMPI PUSH1 0x0 DUP1 REVERT JUMPDEST POP JUMP INVALID LOG2 PUSH5 0x6970667358 0x22 SLT KECCAK256 CALLCODE 0x29 PUSH11 0xB4BACFDDF93CC20E24FAB6 PUSH14 0x540E5F4185241D4B36A168C09E7B PUSH28 0xC31064736F6C63430008070033000000000000000000000000000000 "},"methodIdentifiers":{"WETH()":"ad5c4648","WMATIC()":"4d95cad9","breachCounter()":"05bce226","buyCounter()":"91ceedbf","checkUpkeep(bytes)":"6e04ff0d","depositWmatic(uint256)":"f77ab1e0","getAllowance()":"973e9b8b","getBalance()":"12065fe0","getDecimals()":"f0141d84","getOraclePrice()":"796da7af","getScaledPrice()":"17b37bd9","grids(uint256)":"af3b9678","linkToken()":"57970e93","payContract()":"ecb0b862","performUpkeep(bytes)":"4585e33b","poolFee()":"089fe6aa","routerAddress()":"3268cc56","sellCounter()":"a4d0047d","setAllowance()":"9c315aa8","swapExactInputSingle(uint256,address,address)":"4ce4dca5","swapRouter()":"c31c9c07","withdraw()":"3ccfd60b","withdrawWmatic(uint256)":"3a86b66a"}}}}}