{
  "_format": "hh-sol-artifact-1",
  "contractName": "SingleSwap",
  "sourceName": "contracts/TradeBot.sol",
  "abi": [
    {
      "inputs": [],
      "stateMutability": "nonpayable",
      "type": "constructor"
    },
    {
      "anonymous": false,
      "inputs": [
        {
          "indexed": false,
          "internalType": "bytes",
          "name": "bytesFailure",
          "type": "bytes"
        }
      ],
      "name": "BytesFailure",
      "type": "event"
    },
    {
      "anonymous": false,
      "inputs": [
        {
          "indexed": false,
          "internalType": "uint256",
          "name": "gridIndex",
          "type": "uint256"
        },
        {
          "indexed": false,
          "internalType": "bool",
          "name": "isFirstBreach",
          "type": "bool"
        },
        {
          "indexed": false,
          "internalType": "uint256",
          "name": "qty",
          "type": "uint256"
        },
        {
          "indexed": false,
          "internalType": "uint256",
          "name": "price",
          "type": "uint256"
        }
      ],
      "name": "GridBreached",
      "type": "event"
    },
    {
      "anonymous": false,
      "inputs": [
        {
          "indexed": false,
          "internalType": "string",
          "name": "stringFailure",
          "type": "string"
        }
      ],
      "name": "StringFailure",
      "type": "event"
    },
    {
      "inputs": [],
      "name": "WETH",
      "outputs": [
        {
          "internalType": "address",
          "name": "",
          "type": "address"
        }
      ],
      "stateMutability": "view",
      "type": "function"
    },
    {
      "inputs": [],
      "name": "WMATIC",
      "outputs": [
        {
          "internalType": "address",
          "name": "",
          "type": "address"
        }
      ],
      "stateMutability": "view",
      "type": "function"
    },
    {
      "inputs": [],
      "name": "breachCounter",
      "outputs": [
        {
          "internalType": "uint256",
          "name": "",
          "type": "uint256"
        }
      ],
      "stateMutability": "view",
      "type": "function"
    },
    {
      "inputs": [],
      "name": "buyCounter",
      "outputs": [
        {
          "internalType": "uint256",
          "name": "",
          "type": "uint256"
        }
      ],
      "stateMutability": "view",
      "type": "function"
    },
    {
      "inputs": [
        {
          "internalType": "bytes",
          "name": "",
          "type": "bytes"
        }
      ],
      "name": "checkUpkeep",
      "outputs": [
        {
          "internalType": "bool",
          "name": "upkeepNeeded",
          "type": "bool"
        },
        {
          "internalType": "bytes",
          "name": "performData",
          "type": "bytes"
        }
      ],
      "stateMutability": "view",
      "type": "function"
    },
    {
      "inputs": [
        {
          "internalType": "uint256",
          "name": "amount",
          "type": "uint256"
        }
      ],
      "name": "depositWmatic",
      "outputs": [],
      "stateMutability": "payable",
      "type": "function"
    },
    {
      "inputs": [],
      "name": "getAllowance",
      "outputs": [
        {
          "internalType": "uint256",
          "name": "",
          "type": "uint256"
        }
      ],
      "stateMutability": "view",
      "type": "function"
    },
    {
      "inputs": [],
      "name": "getBalance",
      "outputs": [
        {
          "internalType": "uint256",
          "name": "",
          "type": "uint256"
        }
      ],
      "stateMutability": "view",
      "type": "function"
    },
    {
      "inputs": [],
      "name": "getDecimals",
      "outputs": [
        {
          "internalType": "uint8",
          "name": "",
          "type": "uint8"
        }
      ],
      "stateMutability": "view",
      "type": "function"
    },
    {
      "inputs": [],
      "name": "getOraclePrice",
      "outputs": [
        {
          "internalType": "int256",
          "name": "",
          "type": "int256"
        }
      ],
      "stateMutability": "view",
      "type": "function"
    },
    {
      "inputs": [],
      "name": "getScaledPrice",
      "outputs": [
        {
          "internalType": "uint256",
          "name": "",
          "type": "uint256"
        }
      ],
      "stateMutability": "view",
      "type": "function"
    },
    {
      "inputs": [
        {
          "internalType": "uint256",
          "name": "",
          "type": "uint256"
        }
      ],
      "name": "grids",
      "outputs": [
        {
          "internalType": "uint256",
          "name": "",
          "type": "uint256"
        }
      ],
      "stateMutability": "view",
      "type": "function"
    },
    {
      "inputs": [],
      "name": "linkToken",
      "outputs": [
        {
          "internalType": "contract IERC20",
          "name": "",
          "type": "address"
        }
      ],
      "stateMutability": "view",
      "type": "function"
    },
    {
      "inputs": [],
      "name": "payContract",
      "outputs": [],
      "stateMutability": "payable",
      "type": "function"
    },
    {
      "inputs": [
        {
          "internalType": "bytes",
          "name": "performData",
          "type": "bytes"
        }
      ],
      "name": "performUpkeep",
      "outputs": [],
      "stateMutability": "nonpayable",
      "type": "function"
    },
    {
      "inputs": [],
      "name": "poolFee",
      "outputs": [
        {
          "internalType": "uint24",
          "name": "",
          "type": "uint24"
        }
      ],
      "stateMutability": "view",
      "type": "function"
    },
    {
      "inputs": [],
      "name": "routerAddress",
      "outputs": [
        {
          "internalType": "address",
          "name": "",
          "type": "address"
        }
      ],
      "stateMutability": "view",
      "type": "function"
    },
    {
      "inputs": [],
      "name": "sellCounter",
      "outputs": [
        {
          "internalType": "uint256",
          "name": "",
          "type": "uint256"
        }
      ],
      "stateMutability": "view",
      "type": "function"
    },
    {
      "inputs": [],
      "name": "setAllowance",
      "outputs": [],
      "stateMutability": "nonpayable",
      "type": "function"
    },
    {
      "inputs": [
        {
          "internalType": "uint256",
          "name": "amountIn",
          "type": "uint256"
        },
        {
          "internalType": "address",
          "name": "tin",
          "type": "address"
        },
        {
          "internalType": "address",
          "name": "tout",
          "type": "address"
        }
      ],
      "name": "swapExactInputSingle",
      "outputs": [
        {
          "internalType": "uint256",
          "name": "amountOut",
          "type": "uint256"
        }
      ],
      "stateMutability": "payable",
      "type": "function"
    },
    {
      "inputs": [],
      "name": "swapRouter",
      "outputs": [
        {
          "internalType": "contract ISwapRouter",
          "name": "",
          "type": "address"
        }
      ],
      "stateMutability": "view",
      "type": "function"
    },
    {
      "inputs": [],
      "name": "withdraw",
      "outputs": [],
      "stateMutability": "nonpayable",
      "type": "function"
    },
    {
      "inputs": [
        {
          "internalType": "uint256",
          "name": "amount",
          "type": "uint256"
        }
      ],
      "name": "withdrawWmatic",
      "outputs": [],
      "stateMutability": "nonpayable",
      "type": "function"
    },
    {
      "stateMutability": "payable",
      "type": "receive"
    }
  ],
  "bytecode": "0x60a060405273e592427a0aece92de3edee1f18e0157c0586156473ffffffffffffffffffffffffffffffffffffffff1660809073ffffffffffffffffffffffffffffffffffffffff1660601b815250603c600855739c3c9283d3e44854697cd22d3faa240cfb032889600960006101000a81548173ffffffffffffffffffffffffffffffffffffffff021916908373ffffffffffffffffffffffffffffffffffffffff160217905550348015620000b557600080fd5b50730715a7794a1dc8e42615f059dd6e406a6594651a6000806101000a81548173ffffffffffffffffffffffffffffffffffffffff021916908373ffffffffffffffffffffffffffffffffffffffff1602179055506040518061010001604052806106fb61ffff16815260200161070461ffff16815260200161070d61ffff16815260200161071661ffff16815260200161071f61ffff16815260200161072861ffff16815260200161073261ffff16815260200161074661ffff1681525060019060086200018692919062000195565b5060006003819055506200020c565b828054828255906000526020600020908101928215620001da579160200282015b82811115620001d9578251829061ffff16905591602001919060010190620001b6565b5b509050620001e99190620001ed565b5090565b5b8082111562000208576000816000905550600101620001ee565b5090565b60805160601c6122886200024760003960008181610b4301528181610c74015281816110e1015281816111b2015261129001526122886000f3fe6080604052600436106101445760003560e01c80636e04ff0d116100b6578063ad5c46481161006f578063ad5c464814610417578063af3b967814610442578063c31c9c071461047f578063ecb0b862146104aa578063f0141d84146104b4578063f77ab1e0146104df5761014b565b80636e04ff0d14610316578063796da7af1461035457806391ceedbf1461037f578063973e9b8b146103aa5780639c315aa8146103d5578063a4d0047d146103ec5761014b565b80633a86b66a116101085780633a86b66a146102275780633ccfd60b146102505780634585e33b146102675780634ce4dca5146102905780634d95cad9146102c057806357970e93146102eb5761014b565b806305bce22614610150578063089fe6aa1461017b57806312065fe0146101a657806317b37bd9146101d15780633268cc56146101fc5761014b565b3661014b57005b600080fd5b34801561015c57600080fd5b506101656104fb565b6040516101729190611b77565b60405180910390f35b34801561018757600080fd5b50610190610501565b60405161019d9190611b5c565b60405180910390f35b3480156101b257600080fd5b506101bb610507565b6040516101c89190611b77565b60405180910390f35b3480156101dd57600080fd5b506101e661050f565b6040516101f39190611b77565b60405180910390f35b34801561020857600080fd5b50610211610550565b60405161021e919061196e565b60405180910390f35b34801561023357600080fd5b5061024e600480360381019061024991906115bc565b610568565b005b34801561025c57600080fd5b506102656106ec565b005b34801561027357600080fd5b5061028e6004803603810190610289919061156f565b610741565b005b6102aa60048036038101906102a59190611616565b610b01565b6040516102b79190611b77565b60405180910390f35b3480156102cc57600080fd5b506102d5610e04565b6040516102e2919061196e565b60405180910390f35b3480156102f757600080fd5b50610300610e1c565b60405161030d9190611a8d565b60405180910390f35b34801561032257600080fd5b5061033d6004803603810190610338919061156f565b610e42565b60405161034b929190611a3b565b60405180910390f35b34801561036057600080fd5b50610369610fea565b6040516103769190611ac3565b60405180910390f35b34801561038b57600080fd5b50610394611098565b6040516103a19190611b77565b60405180910390f35b3480156103b657600080fd5b506103bf61109e565b6040516103cc9190611b77565b60405180910390f35b3480156103e157600080fd5b506103ea611172565b005b3480156103f857600080fd5b5061040161124c565b60405161040e9190611b77565b60405180910390f35b34801561042357600080fd5b5061042c611252565b604051610439919061196e565b60405180910390f35b34801561044e57600080fd5b50610469600480360381019061046491906115bc565b61126a565b6040516104769190611b77565b60405180910390f35b34801561048b57600080fd5b5061049461128e565b6040516104a19190611aa8565b60405180910390f35b6104b26112b2565b005b3480156104c057600080fd5b506104c96112b4565b6040516104d69190611c00565b60405180910390f35b6104f960048036038101906104f491906115bc565b61135a565b005b60035481565b610bb881565b600047905090565b60008061051a610fea565b905060006105266112b4565b905060008160ff16600a61053a9190611ce1565b836105459190611c5d565b905080935050505090565b73e592427a0aece92de3edee1f18e0157c0586156481565b80739c3c9283d3e44854697cd22d3faa240cfb03288973ffffffffffffffffffffffffffffffffffffffff166370a08231306040518263ffffffff1660e01b81526004016105b6919061196e565b60206040518083038186803b1580156105ce57600080fd5b505afa1580156105e2573d6000803e3d6000fd5b505050506040513d601f19601f8201168201806040525081019061060691906115e9565b1015610647576040517f08c379a000000000000000000000000000000000000000000000000000000000815260040161063e90611b00565b60405180910390fd5b739c3c9283d3e44854697cd22d3faa240cfb03288973ffffffffffffffffffffffffffffffffffffffff1663a9059cbb33836040518363ffffffff1660e01b8152600401610696929190611a12565b602060405180830381600087803b1580156106b057600080fd5b505af11580156106c4573d6000803e3d6000fd5b505050506040513d601f19601f820116820180604052508101906106e89190611542565b5050565b600033905060004790508173ffffffffffffffffffffffffffffffffffffffff166108fc829081150290604051600060405180830381858888f1935050505015801561073c573d6000803e3d6000fd5b505050565b6000808084848101906107549190611669565b9150915080156109b05760016002600084815260200190815260200160002060006101000a81548160ff0219169083151502179055506003600081548092919061079d90611f75565b91905055506000821180156107dc5750600260006001846107be9190611dff565b815260200190815260200160002060009054906101000a900460ff16155b1561089b57600460008154809291906107f490611f75565b91905055506000610836670214e8348c4f0000739c3c9283d3e44854697cd22d3faa240cfb03288973a6fa4fb5f76172d178d61b04b0ecd319c5d1c0aa610b01565b90508060066000858152602001908152602001600020819055507f4dd189d126bc54edefed41708fddf7028d7043657c8888914503a07df469e82c8360018361087d61050f565b60405161088d9493929190611bbb565b60405180910390a1506109ab565b600660006001846108ac9190611dff565b815260200190815260200160002054925060008311156109aa57600660006001846108d79190611dff565b815260200190815260200160002060009055600260006001846108fa9190611dff565b815260200190815260200160002060006101000a81549060ff02191690556005600081548092919061092b90611f75565b91905055506109638373a6fa4fb5f76172d178d61b04b0ecd319c5d1c0aa739c3c9283d3e44854697cd22d3faa240cfb032889610b01565b507f4dd189d126bc54edefed41708fddf7028d7043657c8888914503a07df469e82c8260008561099161050f565b6040516109a19493929190611bbb565b60405180910390a15b5b610af3565b600260006001846109c19190611dff565b815260200190815260200160002060009054906101000a900460ff1615610af257600660006001846109f39190611dff565b81526020019081526020016000205492506000831115610af15760066000600184610a1e9190611dff565b81526020019081526020016000206000905560026000600184610a419190611dff565b815260200190815260200160002060006101000a81549060ff021916905560056000815480929190610a7290611f75565b9190505550610aaa8373a6fa4fb5f76172d178d61b04b0ecd319c5d1c0aa739c3c9283d3e44854697cd22d3faa240cfb032889610b01565b507f4dd189d126bc54edefed41708fddf7028d7043657c8888914503a07df469e82c82600085610ad861050f565b604051610ae89493929190611bbb565b60405180910390a15b5b5b426007819055505050505050565b6000600960009054906101000a900473ffffffffffffffffffffffffffffffffffffffff1673ffffffffffffffffffffffffffffffffffffffff1663095ea7b37f0000000000000000000000000000000000000000000000000000000000000000866040518363ffffffff1660e01b8152600401610b80929190611a12565b602060405180830381600087803b158015610b9a57600080fd5b505af1158015610bae573d6000803e3d6000fd5b505050506040513d601f19601f82011682018060405250810190610bd29190611542565b5060006040518061010001604052808573ffffffffffffffffffffffffffffffffffffffff1681526020018473ffffffffffffffffffffffffffffffffffffffff168152602001610bb862ffffff1681526020013073ffffffffffffffffffffffffffffffffffffffff16815260200142815260200186815260200160008152602001600073ffffffffffffffffffffffffffffffffffffffff1681525090507f000000000000000000000000000000000000000000000000000000000000000073ffffffffffffffffffffffffffffffffffffffff1663414bf389826040518263ffffffff1660e01b8152600401610ccb9190611b40565b602060405180830381600087803b158015610ce557600080fd5b505af1925050508015610d1657506040513d601f19601f82011682018060405250810190610d1391906115e9565b60015b610df157610d2261207a565b806308c379a01415610d7f5750610d37612132565b80610d425750610d81565b7f81d03b083a6c8b385b5dd0a26081c4e095a4a552b17dc35036054153033ab0db81604051610d719190611ade565b60405180910390a150610dec565b505b3d8060008114610dad576040519150601f19603f3d011682016040523d82523d6000602084013e610db2565b606091505b507f4b87bbd93ba65ede1e2efeca735d9f7a6720bf7d6db0a8355b17dba5b64e578381604051610de29190611a6b565b60405180910390a1505b610dfb565b8092505050610dfd565b505b9392505050565b739c3c9283d3e44854697cd22d3faa240cfb03288981565b600960009054906101000a900473ffffffffffffffffffffffffffffffffffffffff1681565b600060606000610e5061050f565b905060007fffffffffffffffffffffffffffffffffffffffffffffffffffffffffffffffff90506000600180549050905060005b600180549050811015610f3757600060018281548110610ea757610ea661201c565b5b90600052602060002001548511610ee7578460018381548110610ecd57610ecc61201c565b5b9060005260206000200154610ee29190611dff565b610f12565b60018281548110610efb57610efa61201c565b5b906000526020600020015485610f119190611dff565b5b905083811015610f23578093508192505b508080610f2f90611f75565b915050610e84565b50600060085460075442610f4b9190611dff565b11905060028311158015610f5c5750805b15610fdf576002600083815260200190815260200160002060009054906101000a900460ff16610fb45760019550816001604051602001610f9e929190611b92565b6040516020818303038152906040529450610fde565b60019550816000604051602001610fcc929190611b92565b60405160208183030381529060405294505b5b505050509250929050565b60008060008054906101000a900473ffffffffffffffffffffffffffffffffffffffff1673ffffffffffffffffffffffffffffffffffffffff1663feaf968c6040518163ffffffff1660e01b815260040160a06040518083038186803b15801561105357600080fd5b505afa158015611067573d6000803e3d6000fd5b505050506040513d601f19601f8201168201806040525081019061108b91906116a9565b5050509150508091505090565b60045481565b6000600960009054906101000a900473ffffffffffffffffffffffffffffffffffffffff1673ffffffffffffffffffffffffffffffffffffffff1663dd62ed3e307f00000000000000000000000000000000000000000000000000000000000000006040518363ffffffff1660e01b815260040161111d929190611989565b60206040518083038186803b15801561113557600080fd5b505afa158015611149573d6000803e3d6000fd5b505050506040513d601f19601f8201168201806040525081019061116d91906115e9565b905090565b600960009054906101000a900473ffffffffffffffffffffffffffffffffffffffff1673ffffffffffffffffffffffffffffffffffffffff1663095ea7b37f0000000000000000000000000000000000000000000000000000000000000000674563918244f400006040518363ffffffff1660e01b81526004016111f79291906119e9565b602060405180830381600087803b15801561121157600080fd5b505af1158015611225573d6000803e3d6000fd5b505050506040513d601f19601f820116820180604052508101906112499190611542565b50565b60055481565b73a6fa4fb5f76172d178d61b04b0ecd319c5d1c0aa81565b6001818154811061127a57600080fd5b906000526020600020016000915090505481565b7f000000000000000000000000000000000000000000000000000000000000000081565b565b60008060009054906101000a900473ffffffffffffffffffffffffffffffffffffffff1673ffffffffffffffffffffffffffffffffffffffff1663313ce5676040518163ffffffff1660e01b815260040160206040518083038186803b15801561131d57600080fd5b505afa158015611331573d6000803e3d6000fd5b505050506040513d601f19601f820116820180604052508101906113559190611724565b905090565b6000341461139d576040517f08c379a000000000000000000000000000000000000000000000000000000000815260040161139490611b20565b60405180910390fd5b739c3c9283d3e44854697cd22d3faa240cfb03288973ffffffffffffffffffffffffffffffffffffffff166323b872dd3330846040518463ffffffff1660e01b81526004016113ee939291906119b2565b602060405180830381600087803b15801561140857600080fd5b505af115801561141c573d6000803e3d6000fd5b505050506040513d601f19601f820116820180604052508101906114409190611542565b5050565b600081359050611453816121c8565b92915050565b600081359050611468816121df565b92915050565b60008151905061147d816121df565b92915050565b60008083601f840112611499576114986120a1565b5b8235905067ffffffffffffffff8111156114b6576114b561209c565b5b6020830191508360018202830111156114d2576114d16120a6565b5b9250929050565b6000815190506114e8816121f6565b92915050565b6000813590506114fd8161220d565b92915050565b6000815190506115128161220d565b92915050565b6000815190506115278161223b565b92915050565b60008151905061153c81612224565b92915050565b600060208284031215611558576115576120b0565b5b60006115668482850161146e565b91505092915050565b60008060208385031215611586576115856120b0565b5b600083013567ffffffffffffffff8111156115a4576115a36120ab565b5b6115b085828601611483565b92509250509250929050565b6000602082840312156115d2576115d16120b0565b5b60006115e0848285016114ee565b91505092915050565b6000602082840312156115ff576115fe6120b0565b5b600061160d84828501611503565b91505092915050565b60008060006060848603121561162f5761162e6120b0565b5b600061163d868287016114ee565b935050602061164e86828701611444565b925050604061165f86828701611444565b9150509250925092565b600080604083850312156116805761167f6120b0565b5b600061168e858286016114ee565b925050602061169f85828601611459565b9150509250929050565b600080600080600060a086880312156116c5576116c46120b0565b5b60006116d388828901611518565b95505060206116e4888289016114d9565b94505060406116f588828901611503565b935050606061170688828901611503565b925050608061171788828901611518565b9150509295509295909350565b60006020828403121561173a576117396120b0565b5b60006117488482850161152d565b91505092915050565b61175a81611e33565b82525050565b61176981611e33565b82525050565b61177881611e45565b82525050565b600061178982611c25565b6117938185611c3b565b93506117a3818560208601611f11565b6117ac816120b5565b840191505092915050565b6117c081611eb7565b82525050565b6117cf81611ec9565b82525050565b6117de81611e51565b82525050565b6117ed81611edb565b82525050565b60006117fe82611c30565b6118088185611c4c565b9350611818818560208601611f11565b611821816120b5565b840191505092915050565b6000611839601483611c4c565b9150611844826120e0565b602082019050919050565b600061185c601083611c4c565b915061186782612109565b602082019050919050565b610100820160008201516118896000850182611751565b50602082015161189c6020850182611751565b5060408201516118af6040850182611923565b5060608201516118c26060850182611751565b5060808201516118d56080850182611941565b5060a08201516118e860a0850182611941565b5060c08201516118fb60c0850182611941565b5060e082015161190e60e0850182611914565b50505050565b61191d81611e5b565b82525050565b61192c81611e7b565b82525050565b61193b81611e7b565b82525050565b61194a81611e8a565b82525050565b61195981611e8a565b82525050565b61196881611e94565b82525050565b60006020820190506119836000830184611760565b92915050565b600060408201905061199e6000830185611760565b6119ab6020830184611760565b9392505050565b60006060820190506119c76000830186611760565b6119d46020830185611760565b6119e16040830184611950565b949350505050565b60006040820190506119fe6000830185611760565b611a0b60208301846117e4565b9392505050565b6000604082019050611a276000830185611760565b611a346020830184611950565b9392505050565b6000604082019050611a50600083018561176f565b8181036020830152611a62818461177e565b90509392505050565b60006020820190508181036000830152611a85818461177e565b905092915050565b6000602082019050611aa260008301846117b7565b92915050565b6000602082019050611abd60008301846117c6565b92915050565b6000602082019050611ad860008301846117d5565b92915050565b60006020820190508181036000830152611af881846117f3565b905092915050565b60006020820190508181036000830152611b198161182c565b9050919050565b60006020820190508181036000830152611b398161184f565b9050919050565b600061010082019050611b566000830184611872565b92915050565b6000602082019050611b716000830184611932565b92915050565b6000602082019050611b8c6000830184611950565b92915050565b6000604082019050611ba76000830185611950565b611bb4602083018461176f565b9392505050565b6000608082019050611bd06000830187611950565b611bdd602083018661176f565b611bea6040830185611950565b611bf76060830184611950565b95945050505050565b6000602082019050611c15600083018461195f565b92915050565b6000604051905090565b600081519050919050565b600081519050919050565b600082825260208201905092915050565b600082825260208201905092915050565b6000611c6882611e8a565b9150611c7383611e8a565b925082611c8357611c82611fed565b5b828204905092915050565b6000808291508390505b6001851115611cd857808604811115611cb457611cb3611fbe565b5b6001851615611cc35780820291505b8081029050611cd1856120c6565b9450611c98565b94509492505050565b6000611cec82611e8a565b9150611cf783611e8a565b9250611d247fffffffffffffffffffffffffffffffffffffffffffffffffffffffffffffffff8484611d2c565b905092915050565b600082611d3c5760019050611df8565b81611d4a5760009050611df8565b8160018114611d605760028114611d6a57611d99565b6001915050611df8565b60ff841115611d7c57611d7b611fbe565b5b8360020a915084821115611d9357611d92611fbe565b5b50611df8565b5060208310610133831016604e8410600b8410161715611dce5782820a905083811115611dc957611dc8611fbe565b5b611df8565b611ddb8484846001611c8e565b92509050818404811115611df257611df1611fbe565b5b81810290505b9392505050565b6000611e0a82611e8a565b9150611e1583611e8a565b925082821015611e2857611e27611fbe565b5b828203905092915050565b6000611e3e82611e5b565b9050919050565b60008115159050919050565b6000819050919050565b600073ffffffffffffffffffffffffffffffffffffffff82169050919050565b600062ffffff82169050919050565b6000819050919050565b600060ff82169050919050565b600069ffffffffffffffffffff82169050919050565b6000611ec282611eed565b9050919050565b6000611ed482611eed565b9050919050565b6000611ee682611e8a565b9050919050565b6000611ef882611eff565b9050919050565b6000611f0a82611e5b565b9050919050565b60005b83811015611f2f578082015181840152602081019050611f14565b83811115611f3e576000848401525b50505050565b611f4d826120b5565b810181811067ffffffffffffffff82111715611f6c57611f6b61204b565b5b80604052505050565b6000611f8082611e8a565b91507fffffffffffffffffffffffffffffffffffffffffffffffffffffffffffffffff821415611fb357611fb2611fbe565b5b600182019050919050565b7f4e487b7100000000000000000000000000000000000000000000000000000000600052601160045260246000fd5b7f4e487b7100000000000000000000000000000000000000000000000000000000600052601260045260246000fd5b7f4e487b7100000000000000000000000000000000000000000000000000000000600052603260045260246000fd5b7f4e487b7100000000000000000000000000000000000000000000000000000000600052604160045260246000fd5b600060033d11156120995760046000803e6120966000516120d3565b90505b90565b600080fd5b600080fd5b600080fd5b600080fd5b600080fd5b6000601f19601f8301169050919050565b60008160011c9050919050565b60008160e01c9050919050565b7f496e73756666696369656e742062616c616e6365000000000000000000000000600082015250565b7f455448206e6f7420616363657074656400000000000000000000000000000000600082015250565b600060443d1015612142576121c5565b61214a611c1b565b60043d036004823e80513d602482011167ffffffffffffffff821117156121725750506121c5565b808201805167ffffffffffffffff81111561219057505050506121c5565b80602083010160043d0385018111156121ad5750505050506121c5565b6121bc82602001850186611f44565b82955050505050505b90565b6121d181611e33565b81146121dc57600080fd5b50565b6121e881611e45565b81146121f357600080fd5b50565b6121ff81611e51565b811461220a57600080fd5b50565b61221681611e8a565b811461222157600080fd5b50565b61222d81611e94565b811461223857600080fd5b50565b61224481611ea1565b811461224f57600080fd5b5056fea2646970667358221220f2296ab4bacfddf93cc20e24fab66d540e5f4185241d4b36a168c09e7b7bc31064736f6c63430008070033",
  "linkReferences": {},
  "deployedLinkReferences": {}
}