{
  "_format": "hh-sol-artifact-1",
  "contractName": "SingleSwap",
  "sourceName": "contracts/TradeBot.sol",
  "abi": [
    {
      "inputs": [],
      "stateMutability": "nonpayable",
      "type": "constructor"
    },
    {
      "anonymous": false,
      "inputs": [
        {
          "indexed": false,
          "internalType": "bytes",
          "name": "bytesFailure",
          "type": "bytes"
        }
      ],
      "name": "BytesFailure",
      "type": "event"
    },
    {
      "anonymous": false,
      "inputs": [
        {
          "indexed": false,
          "internalType": "uint256",
          "name": "gridIndex",
          "type": "uint256"
        },
        {
          "indexed": false,
          "internalType": "bool",
          "name": "isFirstBreach",
          "type": "bool"
        },
        {
          "indexed": false,
          "internalType": "uint256",
          "name": "qty",
          "type": "uint256"
        },
        {
          "indexed": false,
          "internalType": "uint256",
          "name": "price",
          "type": "uint256"
        }
      ],
      "name": "GridBreached",
      "type": "event"
    },
    {
      "anonymous": false,
      "inputs": [
        {
          "indexed": false,
          "internalType": "string",
          "name": "stringFailure",
          "type": "string"
        }
      ],
      "name": "StringFailure",
      "type": "event"
    },
    {
      "inputs": [
        {
          "internalType": "uint256",
          "name": "_upper_range",
          "type": "uint256"
        },
        {
          "internalType": "uint256",
          "name": "_lower_range",
          "type": "uint256"
        },
        {
          "internalType": "uint256",
          "name": "_no_of_grids",
          "type": "uint256"
        },
        {
          "internalType": "uint256",
          "name": "_amount",
          "type": "uint256"
        }
      ],
      "name": "CreateBot",
      "outputs": [],
      "stateMutability": "payable",
      "type": "function"
    },
    {
      "inputs": [],
      "name": "WETH",
      "outputs": [
        {
          "internalType": "address",
          "name": "",
          "type": "address"
        }
      ],
      "stateMutability": "view",
      "type": "function"
    },
    {
      "inputs": [],
      "name": "WMATIC",
      "outputs": [
        {
          "internalType": "address",
          "name": "",
          "type": "address"
        }
      ],
      "stateMutability": "view",
      "type": "function"
    },
    {
      "inputs": [],
      "name": "amount",
      "outputs": [
        {
          "internalType": "uint256",
          "name": "",
          "type": "uint256"
        }
      ],
      "stateMutability": "view",
      "type": "function"
    },
    {
      "inputs": [],
      "name": "breachCounter",
      "outputs": [
        {
          "internalType": "uint256",
          "name": "",
          "type": "uint256"
        }
      ],
      "stateMutability": "view",
      "type": "function"
    },
    {
      "inputs": [],
      "name": "buyCounter",
      "outputs": [
        {
          "internalType": "uint256",
          "name": "",
          "type": "uint256"
        }
      ],
      "stateMutability": "view",
      "type": "function"
    },
    {
      "inputs": [
        {
          "internalType": "bytes",
          "name": "",
          "type": "bytes"
        }
      ],
      "name": "checkUpkeep",
      "outputs": [
        {
          "internalType": "bool",
          "name": "upkeepNeeded",
          "type": "bool"
        },
        {
          "internalType": "bytes",
          "name": "performData",
          "type": "bytes"
        }
      ],
      "stateMutability": "view",
      "type": "function"
    },
    {
      "inputs": [
        {
          "internalType": "uint256",
          "name": "amount",
          "type": "uint256"
        }
      ],
      "name": "depositWmatic",
      "outputs": [],
      "stateMutability": "payable",
      "type": "function"
    },
    {
      "inputs": [],
      "name": "getAllowance",
      "outputs": [
        {
          "internalType": "uint256",
          "name": "",
          "type": "uint256"
        }
      ],
      "stateMutability": "view",
      "type": "function"
    },
    {
      "inputs": [],
      "name": "getBalance",
      "outputs": [
        {
          "internalType": "uint256",
          "name": "",
          "type": "uint256"
        }
      ],
      "stateMutability": "view",
      "type": "function"
    },
    {
      "inputs": [],
      "name": "getBotsDetails",
      "outputs": [
        {
          "internalType": "uint256",
          "name": "_upper_range",
          "type": "uint256"
        },
        {
          "internalType": "uint256",
          "name": "_lower_range",
          "type": "uint256"
        },
        {
          "internalType": "uint256",
          "name": "_no_of_grids",
          "type": "uint256"
        },
        {
          "internalType": "uint256",
          "name": "_amount",
          "type": "uint256"
        },
        {
          "internalType": "address",
          "name": "tokeIn",
          "type": "address"
        },
        {
          "internalType": "address",
          "name": "tokenOut",
          "type": "address"
        }
      ],
      "stateMutability": "view",
      "type": "function"
    },
    {
      "inputs": [],
      "name": "getDecimals",
      "outputs": [
        {
          "internalType": "uint8",
          "name": "",
          "type": "uint8"
        }
      ],
      "stateMutability": "view",
      "type": "function"
    },
    {
      "inputs": [],
      "name": "getGrids",
      "outputs": [
        {
          "internalType": "uint256[]",
          "name": "_grids",
          "type": "uint256[]"
        }
      ],
      "stateMutability": "view",
      "type": "function"
    },
    {
      "inputs": [],
      "name": "getOraclePrice",
      "outputs": [
        {
          "internalType": "int256",
          "name": "",
          "type": "int256"
        }
      ],
      "stateMutability": "view",
      "type": "function"
    },
    {
      "inputs": [],
      "name": "getScaledPrice",
      "outputs": [
        {
          "internalType": "uint256",
          "name": "",
          "type": "uint256"
        }
      ],
      "stateMutability": "view",
      "type": "function"
    },
    {
      "inputs": [
        {
          "internalType": "uint256",
          "name": "",
          "type": "uint256"
        }
      ],
      "name": "grids",
      "outputs": [
        {
          "internalType": "uint256",
          "name": "",
          "type": "uint256"
        }
      ],
      "stateMutability": "view",
      "type": "function"
    },
    {
      "inputs": [],
      "name": "linkToken",
      "outputs": [
        {
          "internalType": "contract IERC20",
          "name": "",
          "type": "address"
        }
      ],
      "stateMutability": "view",
      "type": "function"
    },
    {
      "inputs": [],
      "name": "lower_range",
      "outputs": [
        {
          "internalType": "uint256",
          "name": "",
          "type": "uint256"
        }
      ],
      "stateMutability": "view",
      "type": "function"
    },
    {
      "inputs": [],
      "name": "no_of_grids",
      "outputs": [
        {
          "internalType": "uint256",
          "name": "",
          "type": "uint256"
        }
      ],
      "stateMutability": "view",
      "type": "function"
    },
    {
      "inputs": [],
      "name": "payContract",
      "outputs": [],
      "stateMutability": "payable",
      "type": "function"
    },
    {
      "inputs": [
        {
          "internalType": "bytes",
          "name": "performData",
          "type": "bytes"
        }
      ],
      "name": "performUpkeep",
      "outputs": [],
      "stateMutability": "nonpayable",
      "type": "function"
    },
    {
      "inputs": [],
      "name": "poolFee",
      "outputs": [
        {
          "internalType": "uint24",
          "name": "",
          "type": "uint24"
        }
      ],
      "stateMutability": "view",
      "type": "function"
    },
    {
      "inputs": [],
      "name": "routerAddress",
      "outputs": [
        {
          "internalType": "address",
          "name": "",
          "type": "address"
        }
      ],
      "stateMutability": "view",
      "type": "function"
    },
    {
      "inputs": [],
      "name": "sellCounter",
      "outputs": [
        {
          "internalType": "uint256",
          "name": "",
          "type": "uint256"
        }
      ],
      "stateMutability": "view",
      "type": "function"
    },
    {
      "inputs": [],
      "name": "setAllowance",
      "outputs": [],
      "stateMutability": "nonpayable",
      "type": "function"
    },
    {
      "inputs": [
        {
          "internalType": "uint256",
          "name": "amountIn",
          "type": "uint256"
        },
        {
          "internalType": "address",
          "name": "tin",
          "type": "address"
        },
        {
          "internalType": "address",
          "name": "tout",
          "type": "address"
        }
      ],
      "name": "swapExactInputSingle",
      "outputs": [
        {
          "internalType": "uint256",
          "name": "amountOut",
          "type": "uint256"
        }
      ],
      "stateMutability": "payable",
      "type": "function"
    },
    {
      "inputs": [],
      "name": "swapRouter",
      "outputs": [
        {
          "internalType": "contract ISwapRouter",
          "name": "",
          "type": "address"
        }
      ],
      "stateMutability": "view",
      "type": "function"
    },
    {
      "inputs": [],
      "name": "upper_range",
      "outputs": [
        {
          "internalType": "uint256",
          "name": "",
          "type": "uint256"
        }
      ],
      "stateMutability": "view",
      "type": "function"
    },
    {
      "inputs": [],
      "name": "withdraw",
      "outputs": [],
      "stateMutability": "nonpayable",
      "type": "function"
    },
    {
      "inputs": [
        {
          "internalType": "uint256",
          "name": "amount",
          "type": "uint256"
        }
      ],
      "name": "withdrawWmatic",
      "outputs": [],
      "stateMutability": "nonpayable",
      "type": "function"
    },
    {
      "stateMutability": "payable",
      "type": "receive"
    }
  ],
  "bytecode": "0x60a060405273e592427a0aece92de3edee1f18e0157c0586156473ffffffffffffffffffffffffffffffffffffffff1660809073ffffffffffffffffffffffffffffffffffffffff1660601b815250603c600855739c3c9283d3e44854697cd22d3faa240cfb032889600d60006101000a81548173ffffffffffffffffffffffffffffffffffffffff021916908373ffffffffffffffffffffffffffffffffffffffff1602179055503480156100b457600080fd5b50730715a7794a1dc8e42615f059dd6e406a6594651a6000806101000a81548173ffffffffffffffffffffffffffffffffffffffff021916908373ffffffffffffffffffffffffffffffffffffffff160217905550600060038190555060805160601c61284a61014b60003960008181610d5601528181610e8701528181611364015281816114350152611519015261284a6000f3fe6080604052600436106101cf5760003560e01c80636e04ff0d116100f7578063aa8c217c11610095578063ecb0b86211610064578063ecb0b8621461063c578063f0141d8414610646578063f34ca3ee14610671578063f77ab1e01461068d576101d6565b8063aa8c217c1461057e578063ad5c4648146105a9578063af3b9678146105d4578063c31c9c0714610611576101d6565b806391ceedbf116100d157806391ceedbf146104e6578063973e9b8b146105115780639c315aa81461053c578063a4d0047d14610553576101d6565b80636e04ff0d1461045257806378126dfa14610490578063796da7af146104bb576101d6565b80633268cc561161016f5780634585e33b1161013e5780634585e33b146103a35780634ce4dca5146103cc5780634d95cad9146103fc57806357970e9314610427576101d6565b80633268cc561461030d5780633a86b66a146103385780633ccfd60b146103615780633e70c93d14610378576101d6565b8063089fe6aa116101ab578063089fe6aa1461026157806312065fe01461028c57806317b37bd9146102b7578063182305b1146102e2576101d6565b806256cf2f146101db578062c993dd1461020657806305bce22614610236576101d6565b366101d657005b600080fd5b3480156101e757600080fd5b506101f06106a9565b6040516101fd9190612049565b60405180910390f35b34801561021257600080fd5b5061021b6106af565b60405161022d969594939291906120d2565b60405180910390f35b34801561024257600080fd5b5061024b610702565b6040516102589190612049565b60405180910390f35b34801561026d57600080fd5b50610276610708565b604051610283919061202e565b60405180910390f35b34801561029857600080fd5b506102a161070e565b6040516102ae9190612049565b60405180910390f35b3480156102c357600080fd5b506102cc610716565b6040516102d99190612049565b60405180910390f35b3480156102ee57600080fd5b506102f7610757565b6040516103049190612049565b60405180910390f35b34801561031957600080fd5b5061032261075d565b60405161032f9190611e1e565b60405180910390f35b34801561034457600080fd5b5061035f600480360381019061035a919061198f565b610775565b005b34801561036d57600080fd5b506103766108f9565b005b34801561038457600080fd5b5061038d61094e565b60405161039a9190612049565b60405180910390f35b3480156103af57600080fd5b506103ca60048036038101906103c59190611942565b610954565b005b6103e660048036038101906103e191906119e9565b610d14565b6040516103f39190612049565b60405180910390f35b34801561040857600080fd5b50610411611017565b60405161041e9190611e1e565b60405180910390f35b34801561043357600080fd5b5061043c61102f565b6040516104499190611f5f565b60405180910390f35b34801561045e57600080fd5b5061047960048036038101906104749190611942565b611055565b604051610487929190611f0d565b60405180910390f35b34801561049c57600080fd5b506104a5611215565b6040516104b29190611eeb565b60405180910390f35b3480156104c757600080fd5b506104d061126d565b6040516104dd9190611f95565b60405180910390f35b3480156104f257600080fd5b506104fb61131b565b6040516105089190612049565b60405180910390f35b34801561051d57600080fd5b50610526611321565b6040516105339190612049565b60405180910390f35b34801561054857600080fd5b506105516113f5565b005b34801561055f57600080fd5b506105686114cf565b6040516105759190612049565b60405180910390f35b34801561058a57600080fd5b506105936114d5565b6040516105a09190612049565b60405180910390f35b3480156105b557600080fd5b506105be6114db565b6040516105cb9190611e1e565b60405180910390f35b3480156105e057600080fd5b506105fb60048036038101906105f6919061198f565b6114f3565b6040516106089190612049565b60405180910390f35b34801561061d57600080fd5b50610626611517565b6040516106339190611f7a565b60405180910390f35b61064461153b565b005b34801561065257600080fd5b5061065b61153d565b6040516106689190612133565b60405180910390f35b61068b60048036038101906106869190611a7c565b6115e3565b005b6106a760048036038101906106a2919061198f565b61172d565b005b60095481565b600080600080600080600954600a54600b54600c54739c3c9283d3e44854697cd22d3faa240cfb03288973a6fa4fb5f76172d178d61b04b0ecd319c5d1c0aa955095509550955095509550909192939495565b60035481565b610bb881565b600047905090565b60008061072161126d565b9050600061072d61153d565b905060008160ff16600a61074191906122a3565b8361074c919061221f565b905080935050505090565b600a5481565b73e592427a0aece92de3edee1f18e0157c0586156481565b80739c3c9283d3e44854697cd22d3faa240cfb03288973ffffffffffffffffffffffffffffffffffffffff166370a08231306040518263ffffffff1660e01b81526004016107c39190611e1e565b60206040518083038186803b1580156107db57600080fd5b505afa1580156107ef573d6000803e3d6000fd5b505050506040513d601f19601f8201168201806040525081019061081391906119bc565b1015610854576040517f08c379a000000000000000000000000000000000000000000000000000000000815260040161084b90611fd2565b60405180910390fd5b739c3c9283d3e44854697cd22d3faa240cfb03288973ffffffffffffffffffffffffffffffffffffffff1663a9059cbb33836040518363ffffffff1660e01b81526004016108a3929190611ec2565b602060405180830381600087803b1580156108bd57600080fd5b505af11580156108d1573d6000803e3d6000fd5b505050506040513d601f19601f820116820180604052508101906108f59190611915565b5050565b600033905060004790508173ffffffffffffffffffffffffffffffffffffffff166108fc829081150290604051600060405180830381858888f19350505050158015610949573d6000803e3d6000fd5b505050565b600b5481565b6000808084848101906109679190611a3c565b915091508015610bc35760016002600084815260200190815260200160002060006101000a81548160ff021916908315150217905550600360008154809291906109b090612537565b91905055506000821180156109ef5750600260006001846109d191906123c1565b815260200190815260200160002060009054906101000a900460ff16155b15610aae5760046000815480929190610a0790612537565b91905055506000610a49670214e8348c4f0000739c3c9283d3e44854697cd22d3faa240cfb03288973a6fa4fb5f76172d178d61b04b0ecd319c5d1c0aa610d14565b90508060066000858152602001908152602001600020819055507f4dd189d126bc54edefed41708fddf7028d7043657c8888914503a07df469e82c83600183610a90610716565b604051610aa0949392919061208d565b60405180910390a150610bbe565b60066000600184610abf91906123c1565b81526020019081526020016000205492506000831115610bbd5760066000600184610aea91906123c1565b81526020019081526020016000206000905560026000600184610b0d91906123c1565b815260200190815260200160002060006101000a81549060ff021916905560056000815480929190610b3e90612537565b9190505550610b768373a6fa4fb5f76172d178d61b04b0ecd319c5d1c0aa739c3c9283d3e44854697cd22d3faa240cfb032889610d14565b507f4dd189d126bc54edefed41708fddf7028d7043657c8888914503a07df469e82c82600085610ba4610716565b604051610bb4949392919061208d565b60405180910390a15b5b610d06565b60026000600184610bd491906123c1565b815260200190815260200160002060009054906101000a900460ff1615610d055760066000600184610c0691906123c1565b81526020019081526020016000205492506000831115610d045760066000600184610c3191906123c1565b81526020019081526020016000206000905560026000600184610c5491906123c1565b815260200190815260200160002060006101000a81549060ff021916905560056000815480929190610c8590612537565b9190505550610cbd8373a6fa4fb5f76172d178d61b04b0ecd319c5d1c0aa739c3c9283d3e44854697cd22d3faa240cfb032889610d14565b507f4dd189d126bc54edefed41708fddf7028d7043657c8888914503a07df469e82c82600085610ceb610716565b604051610cfb949392919061208d565b60405180910390a15b5b5b426007819055505050505050565b6000600d60009054906101000a900473ffffffffffffffffffffffffffffffffffffffff1673ffffffffffffffffffffffffffffffffffffffff1663095ea7b37f0000000000000000000000000000000000000000000000000000000000000000866040518363ffffffff1660e01b8152600401610d93929190611ec2565b602060405180830381600087803b158015610dad57600080fd5b505af1158015610dc1573d6000803e3d6000fd5b505050506040513d601f19601f82011682018060405250810190610de59190611915565b5060006040518061010001604052808573ffffffffffffffffffffffffffffffffffffffff1681526020018473ffffffffffffffffffffffffffffffffffffffff168152602001610bb862ffffff1681526020013073ffffffffffffffffffffffffffffffffffffffff16815260200142815260200186815260200160008152602001600073ffffffffffffffffffffffffffffffffffffffff1681525090507f000000000000000000000000000000000000000000000000000000000000000073ffffffffffffffffffffffffffffffffffffffff1663414bf389826040518263ffffffff1660e01b8152600401610ede9190612012565b602060405180830381600087803b158015610ef857600080fd5b505af1925050508015610f2957506040513d601f19601f82011682018060405250810190610f2691906119bc565b60015b61100457610f3561263c565b806308c379a01415610f925750610f4a6126f4565b80610f555750610f94565b7f81d03b083a6c8b385b5dd0a26081c4e095a4a552b17dc35036054153033ab0db81604051610f849190611fb0565b60405180910390a150610fff565b505b3d8060008114610fc0576040519150601f19603f3d011682016040523d82523d6000602084013e610fc5565b606091505b507f4b87bbd93ba65ede1e2efeca735d9f7a6720bf7d6db0a8355b17dba5b64e578381604051610ff59190611f3d565b60405180910390a1505b61100e565b8092505050611010565b505b9392505050565b739c3c9283d3e44854697cd22d3faa240cfb03288981565b600d60009054906101000a900473ffffffffffffffffffffffffffffffffffffffff1681565b6000606060006001805490501415611070576000915061120e565b600061107a610716565b905060007fffffffffffffffffffffffffffffffffffffffffffffffffffffffffffffffff90506000600180549050905060005b600180549050811015611161576000600182815481106110d1576110d06125de565b5b906000526020600020015485116111115784600183815481106110f7576110f66125de565b5b906000526020600020015461110c91906123c1565b61113c565b60018281548110611125576111246125de565b5b90600052602060002001548561113b91906123c1565b5b90508381101561114d578093508192505b50808061115990612537565b9150506110ae565b5060006008546007544261117591906123c1565b119050600283111580156111865750805b15611209576002600083815260200190815260200160002060009054906101000a900460ff166111de57600195508160016040516020016111c8929190612064565b6040516020818303038152906040529450611208565b600195508160006040516020016111f6929190612064565b60405160208183030381529060405294505b5b505050505b9250929050565b6060600180548060200260200160405190810160405280929190818152602001828054801561126357602002820191906000526020600020905b81548152602001906001019080831161124f575b5050505050905090565b60008060008054906101000a900473ffffffffffffffffffffffffffffffffffffffff1673ffffffffffffffffffffffffffffffffffffffff1663feaf968c6040518163ffffffff1660e01b815260040160a06040518083038186803b1580156112d657600080fd5b505afa1580156112ea573d6000803e3d6000fd5b505050506040513d601f19601f8201168201806040525081019061130e9190611ae3565b5050509150508091505090565b60045481565b6000600d60009054906101000a900473ffffffffffffffffffffffffffffffffffffffff1673ffffffffffffffffffffffffffffffffffffffff1663dd62ed3e307f00000000000000000000000000000000000000000000000000000000000000006040518363ffffffff1660e01b81526004016113a0929190611e39565b60206040518083038186803b1580156113b857600080fd5b505afa1580156113cc573d6000803e3d6000fd5b505050506040513d601f19601f820116820180604052508101906113f091906119bc565b905090565b600d60009054906101000a900473ffffffffffffffffffffffffffffffffffffffff1673ffffffffffffffffffffffffffffffffffffffff1663095ea7b37f0000000000000000000000000000000000000000000000000000000000000000674563918244f400006040518363ffffffff1660e01b815260040161147a929190611e99565b602060405180830381600087803b15801561149457600080fd5b505af11580156114a8573d6000803e3d6000fd5b505050506040513d601f19601f820116820180604052508101906114cc9190611915565b50565b60055481565b600c5481565b73a6fa4fb5f76172d178d61b04b0ecd319c5d1c0aa81565b6001818154811061150357600080fd5b906000526020600020016000915090505481565b7f000000000000000000000000000000000000000000000000000000000000000081565b565b60008060009054906101000a900473ffffffffffffffffffffffffffffffffffffffff1673ffffffffffffffffffffffffffffffffffffffff1663313ce5676040518163ffffffff1660e01b815260040160206040518083038186803b1580156115a657600080fd5b505afa1580156115ba573d6000803e3d6000fd5b505050506040513d601f19601f820116820180604052508101906115de9190611b5e565b905090565b8360098190555082600a8190555081600b8190555080600c81905550739c3c9283d3e44854697cd22d3faa240cfb03288973ffffffffffffffffffffffffffffffffffffffff166323b872dd3330600c546040518463ffffffff1660e01b815260040161165293929190611e62565b602060405180830381600087803b15801561166c57600080fd5b505af1158015611680573d6000803e3d6000fd5b505050506040513d601f19601f820116820180604052508101906116a49190611915565b506000600b54600a546009546116ba91906123c1565b6116c4919061221f565b90506000805b600b5481116117245781600a546116e191906121c9565b600182815481106116f5576116f46125de565b5b9060005260206000200181905550828261170f91906121c9565b9150808061171c90612537565b9150506116ca565b50505050505050565b60003414611770576040517f08c379a000000000000000000000000000000000000000000000000000000000815260040161176790611ff2565b60405180910390fd5b739c3c9283d3e44854697cd22d3faa240cfb03288973ffffffffffffffffffffffffffffffffffffffff166323b872dd3330846040518463ffffffff1660e01b81526004016117c193929190611e62565b602060405180830381600087803b1580156117db57600080fd5b505af11580156117ef573d6000803e3d6000fd5b505050506040513d601f19601f820116820180604052508101906118139190611915565b5050565b6000813590506118268161278a565b92915050565b60008135905061183b816127a1565b92915050565b600081519050611850816127a1565b92915050565b60008083601f84011261186c5761186b612663565b5b8235905067ffffffffffffffff8111156118895761188861265e565b5b6020830191508360018202830111156118a5576118a4612668565b5b9250929050565b6000815190506118bb816127b8565b92915050565b6000813590506118d0816127cf565b92915050565b6000815190506118e5816127cf565b92915050565b6000815190506118fa816127fd565b92915050565b60008151905061190f816127e6565b92915050565b60006020828403121561192b5761192a612672565b5b600061193984828501611841565b91505092915050565b6000806020838503121561195957611958612672565b5b600083013567ffffffffffffffff8111156119775761197661266d565b5b61198385828601611856565b92509250509250929050565b6000602082840312156119a5576119a4612672565b5b60006119b3848285016118c1565b91505092915050565b6000602082840312156119d2576119d1612672565b5b60006119e0848285016118d6565b91505092915050565b600080600060608486031215611a0257611a01612672565b5b6000611a10868287016118c1565b9350506020611a2186828701611817565b9250506040611a3286828701611817565b9150509250925092565b60008060408385031215611a5357611a52612672565b5b6000611a61858286016118c1565b9250506020611a728582860161182c565b9150509250929050565b60008060008060808587031215611a9657611a95612672565b5b6000611aa4878288016118c1565b9450506020611ab5878288016118c1565b9350506040611ac6878288016118c1565b9250506060611ad7878288016118c1565b91505092959194509250565b600080600080600060a08688031215611aff57611afe612672565b5b6000611b0d888289016118eb565b9550506020611b1e888289016118ac565b9450506040611b2f888289016118d6565b9350506060611b40888289016118d6565b9250506080611b51888289016118eb565b9150509295509295909350565b600060208284031215611b7457611b73612672565b5b6000611b8284828501611900565b91505092915050565b6000611b978383611df1565b60208301905092915050565b611bac816123f5565b82525050565b611bbb816123f5565b82525050565b6000611bcc82612168565b611bd68185612196565b9350611be183612158565b8060005b83811015611c12578151611bf98882611b8b565b9750611c0483612189565b925050600181019050611be5565b5085935050505092915050565b611c2881612407565b82525050565b6000611c3982612173565b611c4381856121a7565b9350611c538185602086016124d3565b611c5c81612677565b840191505092915050565b611c7081612479565b82525050565b611c7f8161248b565b82525050565b611c8e81612413565b82525050565b611c9d8161249d565b82525050565b6000611cae8261217e565b611cb881856121b8565b9350611cc88185602086016124d3565b611cd181612677565b840191505092915050565b6000611ce96014836121b8565b9150611cf4826126a2565b602082019050919050565b6000611d0c6010836121b8565b9150611d17826126cb565b602082019050919050565b61010082016000820151611d396000850182611ba3565b506020820151611d4c6020850182611ba3565b506040820151611d5f6040850182611dd3565b506060820151611d726060850182611ba3565b506080820151611d856080850182611df1565b5060a0820151611d9860a0850182611df1565b5060c0820151611dab60c0850182611df1565b5060e0820151611dbe60e0850182611dc4565b50505050565b611dcd8161241d565b82525050565b611ddc8161243d565b82525050565b611deb8161243d565b82525050565b611dfa8161244c565b82525050565b611e098161244c565b82525050565b611e1881612456565b82525050565b6000602082019050611e336000830184611bb2565b92915050565b6000604082019050611e4e6000830185611bb2565b611e5b6020830184611bb2565b9392505050565b6000606082019050611e776000830186611bb2565b611e846020830185611bb2565b611e916040830184611e00565b949350505050565b6000604082019050611eae6000830185611bb2565b611ebb6020830184611c94565b9392505050565b6000604082019050611ed76000830185611bb2565b611ee46020830184611e00565b9392505050565b60006020820190508181036000830152611f058184611bc1565b905092915050565b6000604082019050611f226000830185611c1f565b8181036020830152611f348184611c2e565b90509392505050565b60006020820190508181036000830152611f578184611c2e565b905092915050565b6000602082019050611f746000830184611c67565b92915050565b6000602082019050611f8f6000830184611c76565b92915050565b6000602082019050611faa6000830184611c85565b92915050565b60006020820190508181036000830152611fca8184611ca3565b905092915050565b60006020820190508181036000830152611feb81611cdc565b9050919050565b6000602082019050818103600083015261200b81611cff565b9050919050565b6000610100820190506120286000830184611d22565b92915050565b60006020820190506120436000830184611de2565b92915050565b600060208201905061205e6000830184611e00565b92915050565b60006040820190506120796000830185611e00565b6120866020830184611c1f565b9392505050565b60006080820190506120a26000830187611e00565b6120af6020830186611c1f565b6120bc6040830185611e00565b6120c96060830184611e00565b95945050505050565b600060c0820190506120e76000830189611e00565b6120f46020830188611e00565b6121016040830187611e00565b61210e6060830186611e00565b61211b6080830185611bb2565b61212860a0830184611bb2565b979650505050505050565b60006020820190506121486000830184611e0f565b92915050565b6000604051905090565b6000819050602082019050919050565b600081519050919050565b600081519050919050565b600081519050919050565b6000602082019050919050565b600082825260208201905092915050565b600082825260208201905092915050565b600082825260208201905092915050565b60006121d48261244c565b91506121df8361244c565b9250827fffffffffffffffffffffffffffffffffffffffffffffffffffffffffffffffff0382111561221457612213612580565b5b828201905092915050565b600061222a8261244c565b91506122358361244c565b925082612245576122446125af565b5b828204905092915050565b6000808291508390505b600185111561229a5780860481111561227657612275612580565b5b60018516156122855780820291505b808102905061229385612688565b945061225a565b94509492505050565b60006122ae8261244c565b91506122b98361244c565b92506122e67fffffffffffffffffffffffffffffffffffffffffffffffffffffffffffffffff84846122ee565b905092915050565b6000826122fe57600190506123ba565b8161230c57600090506123ba565b8160018114612322576002811461232c5761235b565b60019150506123ba565b60ff84111561233e5761233d612580565b5b8360020a91508482111561235557612354612580565b5b506123ba565b5060208310610133831016604e8410600b84101617156123905782820a90508381111561238b5761238a612580565b5b6123ba565b61239d8484846001612250565b925090508184048111156123b4576123b3612580565b5b81810290505b9392505050565b60006123cc8261244c565b91506123d78361244c565b9250828210156123ea576123e9612580565b5b828203905092915050565b60006124008261241d565b9050919050565b60008115159050919050565b6000819050919050565b600073ffffffffffffffffffffffffffffffffffffffff82169050919050565b600062ffffff82169050919050565b6000819050919050565b600060ff82169050919050565b600069ffffffffffffffffffff82169050919050565b6000612484826124af565b9050919050565b6000612496826124af565b9050919050565b60006124a88261244c565b9050919050565b60006124ba826124c1565b9050919050565b60006124cc8261241d565b9050919050565b60005b838110156124f15780820151818401526020810190506124d6565b83811115612500576000848401525b50505050565b61250f82612677565b810181811067ffffffffffffffff8211171561252e5761252d61260d565b5b80604052505050565b60006125428261244c565b91507fffffffffffffffffffffffffffffffffffffffffffffffffffffffffffffffff82141561257557612574612580565b5b600182019050919050565b7f4e487b7100000000000000000000000000000000000000000000000000000000600052601160045260246000fd5b7f4e487b7100000000000000000000000000000000000000000000000000000000600052601260045260246000fd5b7f4e487b7100000000000000000000000000000000000000000000000000000000600052603260045260246000fd5b7f4e487b7100000000000000000000000000000000000000000000000000000000600052604160045260246000fd5b600060033d111561265b5760046000803e612658600051612695565b90505b90565b600080fd5b600080fd5b600080fd5b600080fd5b600080fd5b6000601f19601f8301169050919050565b60008160011c9050919050565b60008160e01c9050919050565b7f496e73756666696369656e742062616c616e6365000000000000000000000000600082015250565b7f455448206e6f7420616363657074656400000000000000000000000000000000600082015250565b600060443d101561270457612787565b61270c61214e565b60043d036004823e80513d602482011167ffffffffffffffff82111715612734575050612787565b808201805167ffffffffffffffff8111156127525750505050612787565b80602083010160043d03850181111561276f575050505050612787565b61277e82602001850186612506565b82955050505050505b90565b612793816123f5565b811461279e57600080fd5b50565b6127aa81612407565b81146127b557600080fd5b50565b6127c181612413565b81146127cc57600080fd5b50565b6127d88161244c565b81146127e357600080fd5b50565b6127ef81612456565b81146127fa57600080fd5b50565b61280681612463565b811461281157600080fd5b5056fea2646970667358221220e858646768540af52f8852c0c84ff3389ba947a084dbb27668e139420c9342c864736f6c63430008070033",
  "linkReferences": {},
  "deployedLinkReferences": {}
}